{"abi":[{"anonymous":false,"inputs":[{"indexed":true,"internalType":"address","name":"staker","type":"address"},{"indexed":true,"internalType":"address","name":"token","type":"address"},{"components":[{"internalType":"uint256","name":"id","type":"uint256"},{"internalType":"address","name":"staker","type":"address"},{"internalType":"address","name":"stakedToken","type":"address"},{"internalType":"uint256","name":"stakedTokenPrice","type":"uint256"},{"internalType":"uint256","name":"stakedTokenAmount","type":"uint256"},{"internalType":"address","name":"rewardToken","type":"address"},{"internalType":"uint256","name":"rewardTokenPrice","type":"uint256"},{"internalType":"uint256","name":"rewardTokenAmount","type":"uint256"},{"internalType":"uint256","name":"stakingDurationInSeconds","type":"uint256"},{"internalType":"string[2]","name":"actionPerformed","type":"string[2]"},{"internalType":"uint256","name":"timestampAdded","type":"uint256"},{"internalType":"uint256","name":"timestampLastUpdated","type":"uint256"}],"indexed":false,"internalType":"struct SavvyFinanceFarm.TokenStakerRewardDetails","name":"rewardData","type":"tuple"}],"name":"IssueStakingReward","type":"event"},{"anonymous":false,"inputs":[{"indexed":true,"internalType":"address","name":"previousOwner","type":"address"},{"indexed":true,"internalType":"address","name":"newOwner","type":"address"}],"name":"OwnershipTransferred","type":"event"},{"anonymous":false,"inputs":[{"indexed":true,"internalType":"bytes32","name":"role","type":"bytes32"},{"indexed":true,"internalType":"bytes32","name":"previousAdminRole","type":"bytes32"},{"indexed":true,"internalType":"bytes32","name":"newAdminRole","type":"bytes32"}],"name":"RoleAdminChanged","type":"event"},{"anonymous":false,"inputs":[{"indexed":true,"internalType":"bytes32","name":"role","type":"bytes32"},{"indexed":true,"internalType":"address","name":"account","type":"address"},{"indexed":true,"internalType":"address","name":"sender","type":"address"}],"name":"RoleGranted","type":"event"},{"anonymous":false,"inputs":[{"indexed":true,"internalType":"bytes32","name":"role","type":"bytes32"},{"indexed":true,"internalType":"address","name":"account","type":"address"},{"indexed":true,"internalType":"address","name":"sender","type":"address"}],"name":"RoleRevoked","type":"event"},{"anonymous":false,"inputs":[{"indexed":true,"internalType":"address","name":"staker","type":"address"},{"indexed":true,"internalType":"address","name":"token","type":"address"},{"indexed":false,"internalType":"uint256","name":"amount","type":"uint256"}],"name":"Stake","type":"event"},{"anonymous":false,"inputs":[{"indexed":true,"internalType":"address","name":"staker","type":"address"},{"indexed":true,"internalType":"address","name":"token","type":"address"},{"indexed":false,"internalType":"uint256","name":"amount","type":"uint256"}],"name":"Unstake","type":"event"},{"anonymous":false,"inputs":[{"indexed":true,"internalType":"address","name":"staker","type":"address"},{"indexed":true,"internalType":"address","name":"reward_token","type":"address"},{"indexed":false,"internalType":"uint256","name":"amount","type":"uint256"}],"name":"WithdrawStakingReward","type":"event"},{"inputs":[],"name":"DEFAULT_ADMIN_ROLE","outputs":[{"internalType":"bytes32","name":"","type":"bytes32"}],"stateMutability":"view","type":"function"},{"inputs":[{"internalType":"address","name":"_token","type":"address"}],"name":"activateToken","outputs":[],"stateMutability":"nonpayable","type":"function"},{"inputs":[{"internalType":"address","name":"_token","type":"address"},{"internalType":"string","name":"_name","type":"string"},{"internalType":"uint256","name":"_category","type":"uint256"},{"internalType":"uint256","name":"_stakeFee","type":"uint256"},{"internalType":"uint256","name":"_unstakeFee","type":"uint256"},{"internalType":"uint256","name":"_stakingApr","type":"uint256"},{"internalType":"address","name":"_reward_token","type":"address"},{"internalType":"address","name":"_admin","type":"address"}],"name":"addToken","outputs":[],"stateMutability":"nonpayable","type":"function"},{"inputs":[{"internalType":"address","name":"_token","type":"address"}],"name":"deactivateToken","outputs":[],"stateMutability":"nonpayable","type":"function"},{"inputs":[{"internalType":"address","name":"_token","type":"address"},{"internalType":"uint256","name":"_amount","type":"uint256"}],"name":"depositToken","outputs":[],"stateMutability":"nonpayable","type":"function"},{"inputs":[],"name":"developmentWallet","outputs":[{"internalType":"address","name":"","type":"address"}],"stateMutability":"view","type":"function"},{"inputs":[{"internalType":"address","name":"_token","type":"address"}],"name":"disableTokenMultiReward","outputs":[],"stateMutability":"nonpayable","type":"function"},{"inputs":[{"internalType":"address","name":"_token","type":"address"}],"name":"enableTokenMultiReward","outputs":[],"stateMutability":"nonpayable","type":"function"},{"inputs":[{"internalType":"address","name":"_address","type":"address"}],"name":"excludeFromFees","outputs":[],"stateMutability":"nonpayable","type":"function"},{"inputs":[{"internalType":"uint256","name":"_number","type":"uint256"}],"name":"fromWei","outputs":[{"internalType":"uint256","name":"","type":"uint256"}],"stateMutability":"pure","type":"function"},{"inputs":[{"internalType":"bytes32","name":"role","type":"bytes32"}],"name":"getRoleAdmin","outputs":[{"internalType":"bytes32","name":"","type":"bytes32"}],"stateMutability":"view","type":"function"},{"inputs":[{"internalType":"address","name":"_staker","type":"address"}],"name":"getStakerData","outputs":[{"components":[{"internalType":"bool","name":"isActive","type":"bool"},{"internalType":"uint256","name":"uniqueTokensStaked","type":"uint256"},{"internalType":"uint256","name":"timestampAdded","type":"uint256"},{"internalType":"uint256","name":"timestampLastUpdated","type":"uint256"}],"internalType":"struct SavvyFinanceFarm.StakerDetails","name":"","type":"tuple"}],"stateMutability":"view","type":"function"},{"inputs":[],"name":"getStakers","outputs":[{"internalType":"address[]","name":"","type":"address[]"}],"stateMutability":"view","type":"function"},{"inputs":[{"internalType":"address","name":"_token","type":"address"}],"name":"getTokenData","outputs":[{"components":[{"internalType":"bool","name":"isActive","type":"bool"},{"internalType":"bool","name":"hasMultiReward","type":"bool"},{"internalType":"string","name":"name","type":"string"},{"internalType":"uint256","name":"category","type":"uint256"},{"internalType":"uint256","name":"price","type":"uint256"},{"internalType":"uint256","name":"rewardBalance","type":"uint256"},{"internalType":"uint256","name":"stakingBalance","type":"uint256"},{"internalType":"uint256","name":"stakeFee","type":"uint256"},{"internalType":"uint256","name":"unstakeFee","type":"uint256"},{"internalType":"uint256","name":"stakingApr","type":"uint256"},{"internalType":"address","name":"rewardToken","type":"address"},{"internalType":"address","name":"admin","type":"address"},{"internalType":"uint256","name":"timestampAdded","type":"uint256"},{"internalType":"uint256","name":"timestampLastUpdated","type":"uint256"}],"internalType":"struct SavvyFinanceFarm.TokenDetails","name":"","type":"tuple"}],"stateMutability":"view","type":"function"},{"inputs":[{"internalType":"address","name":"_token","type":"address"}],"name":"getTokenRewardValue","outputs":[{"internalType":"uint256","name":"","type":"uint256"}],"stateMutability":"view","type":"function"},{"inputs":[{"internalType":"address","name":"_token","type":"address"},{"internalType":"address","name":"_staker","type":"address"}],"name":"getTokenStakerData","outputs":[{"components":[{"internalType":"uint256","name":"rewardBalance","type":"uint256"},{"internalType":"uint256","name":"stakingBalance","type":"uint256"},{"internalType":"address","name":"stakingRewardToken","type":"address"},{"components":[{"internalType":"uint256","name":"id","type":"uint256"},{"internalType":"address","name":"staker","type":"address"},{"internalType":"address","name":"stakedToken","type":"address"},{"internalType":"uint256","name":"stakedTokenPrice","type":"uint256"},{"internalType":"uint256","name":"stakedTokenAmount","type":"uint256"},{"internalType":"address","name":"rewardToken","type":"address"},{"internalType":"uint256","name":"rewardTokenPrice","type":"uint256"},{"internalType":"uint256","name":"rewardTokenAmount","type":"uint256"},{"internalType":"uint256","name":"stakingDurationInSeconds","type":"uint256"},{"internalType":"string[2]","name":"actionPerformed","type":"string[2]"},{"internalType":"uint256","name":"timestampAdded","type":"uint256"},{"internalType":"uint256","name":"timestampLastUpdated","type":"uint256"}],"internalType":"struct SavvyFinanceFarm.TokenStakerRewardDetails[]","name":"stakingRewards","type":"tuple[]"},{"internalType":"uint256","name":"timestampLastRewarded","type":"uint256"},{"internalType":"uint256","name":"timestampAdded","type":"uint256"},{"internalType":"uint256","name":"timestampLastUpdated","type":"uint256"}],"internalType":"struct SavvyFinanceFarm.TokenStakerDetails","name":"","type":"tuple"}],"stateMutability":"view","type":"function"},{"inputs":[],"name":"getTokens","outputs":[{"internalType":"address[]","name":"","type":"address[]"}],"stateMutability":"view","type":"function"},{"inputs":[{"internalType":"bytes32","name":"role","type":"bytes32"},{"internalType":"address","name":"account","type":"address"}],"name":"grantRole","outputs":[],"stateMutability":"nonpayable","type":"function"},{"inputs":[{"internalType":"bytes32","name":"role","type":"bytes32"},{"internalType":"address","name":"account","type":"address"}],"name":"hasRole","outputs":[{"internalType":"bool","name":"","type":"bool"}],"stateMutability":"view","type":"function"},{"inputs":[{"internalType":"address","name":"_address","type":"address"}],"name":"includeInFees","outputs":[],"stateMutability":"nonpayable","type":"function"},{"inputs":[],"name":"initialize","outputs":[],"stateMutability":"nonpayable","type":"function"},{"inputs":[{"internalType":"address","name":"","type":"address"}],"name":"isExcludedFromFees","outputs":[{"internalType":"bool","name":"","type":"bool"}],"stateMutability":"view","type":"function"},{"inputs":[],"name":"issueStakingRewards","outputs":[],"stateMutability":"nonpayable","type":"function"},{"inputs":[],"name":"maximumStakingApr","outputs":[{"internalType":"uint256","name":"","type":"uint256"}],"stateMutability":"view","type":"function"},{"inputs":[],"name":"maximumStakingFee","outputs":[{"internalType":"uint256","name":"","type":"uint256"}],"stateMutability":"view","type":"function"},{"inputs":[],"name":"minimumStakingApr","outputs":[{"internalType":"uint256","name":"","type":"uint256"}],"stateMutability":"view","type":"function"},{"inputs":[],"name":"minimumStakingFee","outputs":[{"internalType":"uint256","name":"","type":"uint256"}],"stateMutability":"view","type":"function"},{"inputs":[],"name":"owner","outputs":[{"internalType":"address","name":"","type":"address"}],"stateMutability":"view","type":"function"},{"inputs":[],"name":"renounceOwnership","outputs":[],"stateMutability":"nonpayable","type":"function"},{"inputs":[{"internalType":"bytes32","name":"role","type":"bytes32"},{"internalType":"address","name":"account","type":"address"}],"name":"renounceRole","outputs":[],"stateMutability":"nonpayable","type":"function"},{"inputs":[{"internalType":"bytes32","name":"role","type":"bytes32"},{"internalType":"address","name":"account","type":"address"}],"name":"revokeRole","outputs":[],"stateMutability":"nonpayable","type":"function"},{"inputs":[{"internalType":"uint256","name":"_seconds","type":"uint256"}],"name":"secondsToYears","outputs":[{"internalType":"uint256","name":"","type":"uint256"}],"stateMutability":"pure","type":"function"},{"inputs":[{"internalType":"address","name":"_developmentWallet","type":"address"}],"name":"setDevelopmentWallet","outputs":[],"stateMutability":"nonpayable","type":"function"},{"inputs":[{"internalType":"uint256","name":"_minimumStakingApr","type":"uint256"},{"internalType":"uint256","name":"_maximumStakingApr","type":"uint256"}],"name":"setStakingAprDetails","outputs":[],"stateMutability":"nonpayable","type":"function"},{"inputs":[{"internalType":"uint256","name":"_minimumStakingFee","type":"uint256"},{"internalType":"uint256","name":"_maximumStakingFee","type":"uint256"}],"name":"setStakingFeeDetails","outputs":[],"stateMutability":"nonpayable","type":"function"},{"inputs":[{"internalType":"address","name":"_token","type":"address"},{"internalType":"address","name":"_reward_token","type":"address"}],"name":"setStakingRewardToken","outputs":[],"stateMutability":"nonpayable","type":"function"},{"inputs":[{"internalType":"address","name":"_token","type":"address"},{"internalType":"address","name":"_admin","type":"address"}],"name":"setTokenAdmin","outputs":[],"stateMutability":"nonpayable","type":"function"},{"inputs":[{"internalType":"address","name":"_token","type":"address"},{"internalType":"uint256","name":"_category","type":"uint256"}],"name":"setTokenCategory","outputs":[],"stateMutability":"nonpayable","type":"function"},{"inputs":[{"internalType":"uint256","name":"_number","type":"uint256"},{"internalType":"string","name":"_name","type":"string"}],"name":"setTokenCategoryNumberToName","outputs":[],"stateMutability":"nonpayable","type":"function"},{"inputs":[{"internalType":"address","name":"_token","type":"address"},{"internalType":"string","name":"_name","type":"string"}],"name":"setTokenName","outputs":[],"stateMutability":"nonpayable","type":"function"},{"inputs":[{"internalType":"address","name":"_token","type":"address"},{"internalType":"uint256","name":"_price","type":"uint256"}],"name":"setTokenPrice","outputs":[],"stateMutability":"nonpayable","type":"function"},{"inputs":[{"internalType":"address","name":"_token","type":"address"},{"internalType":"address","name":"_reward_token","type":"address"}],"name":"setTokenRewardToken","outputs":[],"stateMutability":"nonpayable","type":"function"},{"inputs":[{"internalType":"address","name":"_token","type":"address"},{"internalType":"uint256","name":"_stakeFee","type":"uint256"}],"name":"setTokenStakeFee","outputs":[],"stateMutability":"nonpayable","type":"function"},{"inputs":[{"internalType":"address","name":"_token","type":"address"},{"internalType":"uint256","name":"_stakingApr","type":"uint256"}],"name":"setTokenStakingApr","outputs":[],"stateMutability":"nonpayable","type":"function"},{"inputs":[{"internalType":"address","name":"_token","type":"address"},{"internalType":"uint256","name":"_stakeFee","type":"uint256"},{"internalType":"uint256","name":"_unstakeFee","type":"uint256"}],"name":"setTokenStakingFees","outputs":[],"stateMutability":"nonpayable","type":"function"},{"inputs":[{"internalType":"address","name":"_token","type":"address"},{"internalType":"uint256","name":"_unstakeFee","type":"uint256"}],"name":"setTokenUnstakeFee","outputs":[],"stateMutability":"nonpayable","type":"function"},{"inputs":[{"internalType":"address","name":"_token","type":"address"},{"internalType":"uint256","name":"_amount","type":"uint256"}],"name":"stakeToken","outputs":[],"stateMutability":"nonpayable","type":"function"},{"inputs":[{"internalType":"address","name":"_staker","type":"address"}],"name":"stakerExists","outputs":[{"internalType":"bool","name":"","type":"bool"}],"stateMutability":"view","type":"function"},{"inputs":[{"internalType":"uint256","name":"","type":"uint256"}],"name":"stakers","outputs":[{"internalType":"address","name":"","type":"address"}],"stateMutability":"view","type":"function"},{"inputs":[{"internalType":"address","name":"","type":"address"}],"name":"stakersData","outputs":[{"internalType":"bool","name":"isActive","type":"bool"},{"internalType":"uint256","name":"uniqueTokensStaked","type":"uint256"},{"internalType":"uint256","name":"timestampAdded","type":"uint256"},{"internalType":"uint256","name":"timestampLastUpdated","type":"uint256"}],"stateMutability":"view","type":"function"},{"inputs":[{"internalType":"bytes4","name":"interfaceId","type":"bytes4"}],"name":"supportsInterface","outputs":[{"internalType":"bool","name":"","type":"bool"}],"stateMutability":"view","type":"function"},{"inputs":[{"internalType":"address","name":"a","type":"address"}],"name":"toRole","outputs":[{"internalType":"bytes32","name":"","type":"bytes32"}],"stateMutability":"pure","type":"function"},{"inputs":[{"internalType":"uint256","name":"_number","type":"uint256"}],"name":"toWei","outputs":[{"internalType":"uint256","name":"","type":"uint256"}],"stateMutability":"pure","type":"function"},{"inputs":[{"internalType":"uint256","name":"","type":"uint256"}],"name":"tokenCategoryNumberToName","outputs":[{"internalType":"string","name":"","type":"string"}],"stateMutability":"view","type":"function"},{"inputs":[{"internalType":"address","name":"_token","type":"address"}],"name":"tokenExists","outputs":[{"internalType":"bool","name":"","type":"bool"}],"stateMutability":"view","type":"function"},{"inputs":[{"internalType":"uint256","name":"","type":"uint256"}],"name":"tokens","outputs":[{"internalType":"address","name":"","type":"address"}],"stateMutability":"view","type":"function"},{"inputs":[{"internalType":"address","name":"","type":"address"}],"name":"tokensData","outputs":[{"internalType":"bool","name":"isActive","type":"bool"},{"internalType":"bool","name":"hasMultiReward","type":"bool"},{"internalType":"string","name":"name","type":"string"},{"internalType":"uint256","name":"category","type":"uint256"},{"internalType":"uint256","name":"price","type":"uint256"},{"internalType":"uint256","name":"rewardBalance","type":"uint256"},{"internalType":"uint256","name":"stakingBalance","type":"uint256"},{"internalType":"uint256","name":"stakeFee","type":"uint256"},{"internalType":"uint256","name":"unstakeFee","type":"uint256"},{"internalType":"uint256","name":"stakingApr","type":"uint256"},{"internalType":"address","name":"rewardToken","type":"address"},{"internalType":"address","name":"admin","type":"address"},{"internalType":"uint256","name":"timestampAdded","type":"uint256"},{"internalType":"uint256","name":"timestampLastUpdated","type":"uint256"}],"stateMutability":"view","type":"function"},{"inputs":[{"internalType":"address","name":"","type":"address"},{"internalType":"address","name":"","type":"address"}],"name":"tokensStakersData","outputs":[{"internalType":"uint256","name":"rewardBalance","type":"uint256"},{"internalType":"uint256","name":"stakingBalance","type":"uint256"},{"internalType":"address","name":"stakingRewardToken","type":"address"},{"internalType":"uint256","name":"timestampLastRewarded","type":"uint256"},{"internalType":"uint256","name":"timestampAdded","type":"uint256"},{"internalType":"uint256","name":"timestampLastUpdated","type":"uint256"}],"stateMutability":"view","type":"function"},{"inputs":[{"internalType":"address","name":"newOwner","type":"address"}],"name":"transferOwnership","outputs":[],"stateMutability":"nonpayable","type":"function"},{"inputs":[{"internalType":"address","name":"_token","type":"address"},{"internalType":"address","name":"_to","type":"address"},{"internalType":"uint256","name":"_amount","type":"uint256"}],"name":"transferToken","outputs":[],"stateMutability":"nonpayable","type":"function"},{"inputs":[{"internalType":"address","name":"_token","type":"address"},{"internalType":"uint256","name":"_amount","type":"uint256"}],"name":"unstakeToken","outputs":[],"stateMutability":"nonpayable","type":"function"},{"inputs":[{"internalType":"address","name":"_reward_token","type":"address"},{"internalType":"uint256","name":"_amount","type":"uint256"}],"name":"withdrawStakingReward","outputs":[],"stateMutability":"nonpayable","type":"function"},{"inputs":[{"internalType":"address","name":"_token","type":"address"},{"internalType":"uint256","name":"_amount","type":"uint256"}],"name":"withdrawToken","outputs":[],"stateMutability":"nonpayable","type":"function"}],"bytecode":"60806040523480156200001157600080fd5b506200001d3362000023565b62000073565b600080546001600160a01b038381166001600160a01b0319831681178455604051919092169283917f8be0079c531659141344cd1fd0a4f28419497f9722a3daafe3b4186f6b6457e09190a35050565b61532080620000836000396000f3fe608060405234801561001057600080fd5b50600436106103c55760003560e01c80638129fc1c116101ff578063b678c3a41161011a578063e1430aa4116100ad578063f2fde38b1161007c578063f2fde38b14610968578063f5537ede1461097b578063f739ed9e1461098e578063fd5e6dd1146109a157600080fd5b8063e1430aa41461091c578063e57f14e11461092f578063e65d152214610942578063ed2b79f81461095557600080fd5b8063cfa10ca0116100e9578063cfa10ca0146108db578063d547741f146108ee578063de37f25a14610901578063e01614031461090957600080fd5b8063b678c3a41461085a578063c04a54141461086d578063c370c86d14610880578063c601f3521461089357600080fd5b8063a217fddf11610192578063ac66c6e011610161578063ac66c6e01461079f578063acb422c5146107cc578063b1c2a9f814610827578063b33f78ca1461084757600080fd5b8063a217fddf14610769578063a490dd7d14610771578063aa6ca80814610784578063ac2e41ff1461078c57600080fd5b80638ef88b19116101ce5780638ef88b191461072757806391d148541461073a578063941714d41461074d5780639e281a981461075657600080fd5b80638129fc1c146106f257806386a2a968146106fa5780638d62be02146107035780638da5cb5b1461071657600080fd5b8063417aa1b1116102ef57806361ee1955116102825780636c82a726116102515780636c82a726146106b1578063715018a6146106c457806372ac2486146106cc57806375d7f0d9146106df57600080fd5b806361ee195514610665578063669dafe8146106785780636763d6f91461068b57806368173bcf1461069e57600080fd5b806349a5b196116102be57806349a5b196146105f15780634f64b2be146106045780634fbee1931461062f57806358c887e61461065257600080fd5b8063417aa1b1146105ad578063431f63c9146105b657806343352d61146105c957806344adec1d146105de57600080fd5b8063248a9ca311610367578063338b5dea11610336578063338b5dea1461056b57806334738dfa1461057e57806336568abe1461059157806336795dca146105a457600080fd5b8063248a9ca3146104805780632b12984e146104b25780632d94c6cd146104c55780632f2ff15d1461055857600080fd5b806313316bcf116103a357806313316bcf1461042757806313ff7e9f1461043a57806316a2f82a1461045a5780631a19a45b1461046d57600080fd5b806301ffc9a7146103ca57806304f78063146103f25780630d1ce2d214610412575b600080fd5b6103dd6103d8366004614918565b6109b4565b60405190151581526020015b60405180910390f35b61040561040036600461495e565b6109eb565b6040516103e99190614af7565b610425610420366004614bae565b610c3e565b005b61042561043536600461495e565b610cba565b61044d610448366004614bae565b610ccc565b6040516103e99190614bc9565b610425610468366004614bae565b610eb2565b61042561047b366004614cba565b610efd565b6104a461048e366004614cdc565b6000908152600160208190526040909120015490565b6040519081526020016103e9565b6104256104c0366004614d98565b610f32565b61051d6104d336600461495e565b600d602090815260009283526040808420909152908252902080546001820154600283015460048401546005850154600690950154939492936001600160a01b0390921692909186565b6040805196875260208701959095526001600160a01b03909316938501939093526060840152608083019190915260a082015260c0016103e9565b610425610566366004614ddf565b610f7b565b610425610579366004614e02565b610fa1565b6104a461058c366004614bae565b61117c565b61042561059f366004614ddf565b6111a9565b6104a460035481565b6104a460055481565b6104256105c4366004614e02565b611227565b6105d16112a0565b6040516103e99190614e2c565b6104256105ec366004614e02565b611302565b6104256105ff36600461495e565b611422565b610617610612366004614cdc565b611537565b6040516001600160a01b0390911681526020016103e9565b6103dd61063d366004614bae565b60076020526000908152604090205460ff1681565b610425610660366004614e02565b611561565b610425610673366004614e02565b611681565b6104a4610686366004614cdc565b611888565b610425610699366004614e79565b61189c565b6104256106ac366004614bae565b6118da565b6104256106bf366004614e02565b61194a565b610425611da9565b6104256106da366004614bae565b611ddf565b6104256106ed366004614e02565b611e2b565b610425611f34565b6104a460065481565b6104a4610711366004614cdc565b611f87565b6000546001600160a01b0316610617565b6104a4610735366004614bae565b611f9b565b6103dd610748366004614ddf565b611fda565b6104a460045481565b610425610764366004614e02565b612005565b6104a4600081565b61042561077f366004614bae565b61216f565b6105d16121c9565b61042561079a366004614bae565b612229565b6107b26107ad366004614bae565b612287565b6040516103e99e9d9c9b9a99989796959493929190614eac565b6108056107da366004614bae565b600c60205260009081526040902080546001820154600283015460039093015460ff90921692909184565b60408051941515855260208501939093529183015260608201526080016103e9565b61083a610835366004614cdc565b61238e565b6040516103e99190614f43565b6103dd610855366004614bae565b612428565b61042561086836600461495e565b612491565b600254610617906001600160a01b031681565b61042561088e366004614f56565b61256e565b6108a66108a1366004614bae565b61260e565b6040516103e9919081511515815260208083015190820152604080830151908201526060918201519181019190915260800190565b6103dd6108e9366004614bae565b61268e565b6104256108fc366004614ddf565b6126ee565b610425612714565b610425610917366004614f8e565b61282b565b61042561092a366004614cba565b6129de565b61042561093d366004614bae565b612a13565b6104a4610950366004614cdc565b612a61565b610425610963366004614e02565b612a75565b610425610976366004614bae565b612aee565b610425610989366004615024565b612b86565b61042561099c366004614e02565b612be5565b6106176109af366004614cdc565b6131ae565b60006001600160e01b03198216637965db0b60e01b14806109e557506301ffc9a760e01b6001600160e01b03198316145b92915050565b610a346040518060e00160405280600081526020016000815260200160006001600160a01b03168152602001606081526020016000815260200160008152602001600081525090565b6001600160a01b038084166000908152600d6020908152604080832086851684528252808320815160e081018352815481526001820154818501526002820154909516858301526003810180548351818602810186019094528084529194606087019491929184015b82821015610c1057600084815260208082206040805161018081018252600d87029092018054835260018101546001600160a01b03908116948401949094526002808201548516848401526003820154606085015260048201546080850152600582015490941660a0840152600681015460c0840152600781015460e08401526008810154610100840152815180830190925291939192610120850192600985019190835b82821015610be5578382018054610b5890615060565b80601f0160208091040260200160405190810160405280929190818152602001828054610b8490615060565b8015610bd15780601f10610ba657610100808354040283529160200191610bd1565b820191906000526020600020905b815481529060010190602001808311610bb457829003601f168201915b505050505081526020019060010190610b42565b505050508152602001600b8201548152602001600c8201548152505081526020019060010190610a9d565b5050505081526020016004820154815260200160058201548152602001600682015481525050905092915050565b6000546001600160a01b03163314610c715760405162461bcd60e51b8152600401610c689061509a565b60405180910390fd5b610c7a81612428565b610c965760405162461bcd60e51b8152600401610c68906150cf565b6001600160a01b03166000908152600a60205260409020805460ff19166001179055565b610cc733838360016131be565b505050565b610d54604051806101c00160405280600015158152602001600015158152602001606081526020016000815260200160008152602001600081526020016000815260200160008152602001600081526020016000815260200160006001600160a01b0316815260200160006001600160a01b0316815260200160008152602001600081525090565b6001600160a01b0382166000908152600a602090815260409182902082516101c081018452815460ff80821615158352610100909104161515928101929092526001810180549293919291840191610dab90615060565b80601f0160208091040260200160405190810160405280929190818152602001828054610dd790615060565b8015610e245780601f10610df957610100808354040283529160200191610e24565b820191906000526020600020905b815481529060010190602001808311610e0757829003601f168201915b505050918352505060028201546020820152600382015460408201526004820154606082015260058201546080820152600682015460a0820152600782015460c0820152600882015460e082015260098201546001600160a01b03908116610100830152600a83015416610120820152600b820154610140820152600c909101546101609091015292915050565b6000546001600160a01b03163314610edc5760405162461bcd60e51b8152600401610c689061509a565b6001600160a01b03166000908152600760205260409020805460ff19169055565b6000546001600160a01b03163314610f275760405162461bcd60e51b8152600401610c689061509a565b600591909155600655565b6000546001600160a01b03163314610f5c5760405162461bcd60e51b8152600401610c689061509a565b60008281526008602090815260409091208251610cc792840190614733565b60008281526001602081905260409091200154610f97816133da565b610cc783836133e4565b610faa82611f9b565b610fb3816133da565b610fbc83612428565b610fd85760405162461bcd60e51b8152600401610c68906150cf565b60008211610ff85760405162461bcd60e51b8152600401610c68906150fe565b816001600160a01b0384166370a08231336040516001600160e01b031960e084901b1681526001600160a01b039091166004820152602401602060405180830381865afa15801561104d573d6000803e3d6000fd5b505050506040513d601f19601f82011682018060405250810190611071919061513f565b10156110bf5760405162461bcd60e51b815260206004820152601c60248201527f496e73756666696369656e742077616c6c65742062616c616e63652e000000006044820152606401610c68565b6001600160a01b0383166323b872dd336040516001600160e01b031960e084901b1681526001600160a01b039091166004820152306024820152604481018590526064016020604051808303816000875af1158015611122573d6000803e3d6000fd5b505050506040513d601f19601f820116820180604052508101906111469190615158565b506001600160a01b0383166000908152600a602052604081206004018054849290611172908490615190565b9091555050505050565b6001600160a01b0381166000908152600a6020526040812060038101546004909101546109e591906151a8565b6001600160a01b03811633146112195760405162461bcd60e51b815260206004820152602f60248201527f416363657373436f6e74726f6c3a2063616e206f6e6c792072656e6f756e636560448201526e103937b632b9903337b91039b2b63360891b6064820152608401610c68565b611223828261344f565b5050565b6000546001600160a01b031633146112515760405162461bcd60e51b8152600401610c689061509a565b61125a82612428565b6112765760405162461bcd60e51b8152600401610c68906150cf565b6001600160a01b039091166000908152600a60205260409020600381019190915542600c90910155565b6060600b8054806020026020016040519081016040528092919081815260200182805480156112f857602002820191906000526020600020905b81546001600160a01b031681526001909101906020018083116112da575b5050505050905090565b6000546001600160a01b0316331461132c5760405162461bcd60e51b8152600401610c689061509a565b61133582612428565b6113515760405162461bcd60e51b8152600401610c68906150cf565b600354811015801561136557506004548111155b611370600354612a61565b61137b600454612a61565b6040517f5374616b6520666565206d757374206265206265747765656e000000000000006020820152603981019290925262185b9960ea1b6059830152605c820152601760f91b607c820152607d01604051602081830303815290604052906113f75760405162461bcd60e51b8152600401610c689190614f43565b506001600160a01b039091166000908152600a60205260409020600681019190915542600c90910155565b6000546001600160a01b0316331461144c5760405162461bcd60e51b8152600401610c689061509a565b61145582612428565b6114715760405162461bcd60e51b8152600401610c68906150cf565b600080546001600160a01b038481168352600a602081905260409093209092015482169116146114cb576114cb6114a783611f9b565b6001600160a01b038085166000908152600a602081905260409091200154166126ee565b6001600160a01b038281166000908152600a6020819052604090912090810180546001600160a01b0319169284169290921790915542600c9091015561122361151383611f9b565b6001600160a01b038085166000908152600a60208190526040909120015416610f7b565b6009818154811061154757600080fd5b6000918252602090912001546001600160a01b0316905081565b6000546001600160a01b0316331461158b5760405162461bcd60e51b8152600401610c689061509a565b61159482612428565b6115b05760405162461bcd60e51b8152600401610c68906150cf565b60035481101580156115c457506004548111155b6115cf600354612a61565b6115da600454612a61565b6040517f556e7374616b6520666565206d757374206265206265747765656e00000000006020820152603b81019290925262185b9960ea1b605b830152605e820152601760f91b607e820152607f01604051602081830303815290604052906116565760405162461bcd60e51b8152600401610c689190614f43565b506001600160a01b039091166000908152600a60205260409020600781019190915542600c90910155565b61168a82612428565b6116d65760405162461bcd60e51b815260206004820152601c60248201527f52657761726420746f6b656e20646f6573206e6f742065786973742e000000006044820152606401610c68565b600081116116f65760405162461bcd60e51b8152600401610c68906150fe565b6001600160a01b0382166000908152600d602090815260408083203384529091529020548111156117695760405162461bcd60e51b815260206004820152601c60248201527f496e73756666696369656e74207265776172642062616c616e63652e000000006044820152606401610c68565b6001600160a01b0382166000908152600d602090815260408083203384529091528120805483929061179c9084906151c7565b90915550506001600160a01b0382166000818152600d602090815260408083203380855292529091204260069091015563a9059cbb906040516001600160e01b031960e084901b1681526001600160a01b039091166004820152602481018490526044016020604051808303816000875af115801561181f573d6000803e3d6000fd5b505050506040513d601f19601f820116820180604052508101906118439190615158565b506040518181526001600160a01b0383169033907f720db5561318adbd9cbe874fb87168241f3e2d2b7961ec09027b908ffbd4526d9060200160405180910390a35050565b60006109e582670de0b6b3a76400006151a8565b6000546001600160a01b031633146118c65760405162461bcd60e51b8152600401610c689061509a565b6118d08383611302565b610cc78382611561565b6000546001600160a01b031633146119045760405162461bcd60e51b8152600401610c689061509a565b61190d81612428565b6119295760405162461bcd60e51b8152600401610c68906150cf565b6001600160a01b03166000908152600a60205260409020805460ff19169055565b61195382612428565b61196f5760405162461bcd60e51b8152600401610c68906150cf565b6000811161198f5760405162461bcd60e51b8152600401610c68906150fe565b6001600160a01b0382166000908152600d60209081526040808320338452909152902060010154811115611a055760405162461bcd60e51b815260206004820152601d60248201527f496e73756666696369656e74207374616b696e672062616c616e63652e0000006044820152606401610c68565b611a4b823360408051608081018252600791810191825266756e7374616b6560c81b606082015290815260208101611a44611a3f87612a61565b6134b6565b90526135bf565b6001600160a01b0382166000908152600d60209081526040808320338452909152902060010154819003611af957336000908152600c602052604090206001908101549003611aac57336000908152600c60205260409020805460ff191690555b336000908152600c60205260408120600101805491611aca836151de565b919050555042600c6000611adb3390565b6001600160a01b031681526020810191909152604001600020600301555b6001600160a01b0382166000908152600d6020908152604080832033845290915281206001018054839290611b2f9084906151c7565b90915550506001600160a01b0382166000908152600d6020908152604080832033845290915290206005015415611b91576001600160a01b0382166000908152600d602090815260408083203384529091529020426006909101819055611bbe565b6001600160a01b0382166000908152600d6020908152604080832033845290915290204260059091018190555b506001600160a01b0382166000908152600a602052604081206005018054839290611bea9084906151c7565b90915550506001600160a01b0382166000908152600a6020526040812042600c82015560070154611c1b6064611888565b611c25908461520b565b611c2f91906151a8565b90506000811580611c4f57503360009081526007602052604090205460ff165b15611c5b575081611ce0565b60025460405163a9059cbb60e01b81526001600160a01b039182166004820152602481018490529085169063a9059cbb906044016020604051808303816000875af1158015611cae573d6000803e3d6000fd5b505050506040513d601f19601f82011682018060405250810190611cd29190615158565b50611cdd82846151c7565b90505b6001600160a01b03841663a9059cbb336040516001600160e01b031960e084901b1681526001600160a01b039091166004820152602481018490526044016020604051808303816000875af1158015611d3d573d6000803e3d6000fd5b505050506040513d601f19601f82011682018060405250810190611d619190615158565b506040518181526001600160a01b0385169033907f390b1276974b9463e5d66ab10df69b6f3d7b930eb066a0e66df327edd2cc811c906020015b60405180910390a350505050565b6000546001600160a01b03163314611dd35760405162461bcd60e51b8152600401610c689061509a565b611ddd6000613f0f565b565b6000546001600160a01b03163314611e095760405162461bcd60e51b8152600401610c689061509a565b600280546001600160a01b0319166001600160a01b0392909216919091179055565b611e3482611f9b565b611e3d816133da565b611e4683612428565b611e625760405162461bcd60e51b8152600401610c68906150cf565b6005548210158015611e7657506006548211155b611e81600554612a61565b611e8c600654612a61565b6040517f5374616b696e6720415052206d757374206265206265747765656e00000000006020820152603b81019290925262185b9960ea1b605b830152605e820152601760f91b607e820152607f0160405160208183030381529060405290611f085760405162461bcd60e51b8152600401610c689190614f43565b50506001600160a01b039091166000908152600a60205260409020600881019190915542600c90910155565b600280546001600160a01b031916331790556000600355611f55600a611888565b600455611f626032611888565b600555611f706103e8611888565b600655611f7e600033613f5f565b611ddd33613f0f565b60006109e5610950836407620d26406151a8565b6040516bffffffffffffffffffffffff19606083901b166020820152600090603401604051602081830303815290604052805190602001209050919050565b60009182526001602090815260408084206001600160a01b0393909316845291905290205460ff1690565b61200e82611f9b565b612017816133da565b61202083612428565b61203c5760405162461bcd60e51b8152600401610c68906150cf565b6000821161205c5760405162461bcd60e51b8152600401610c68906150fe565b6001600160a01b0383166000908152600a60205260409020600401548211156120c75760405162461bcd60e51b815260206004820152601c60248201527f496e73756666696369656e74207265776172642062616c616e63652e000000006044820152606401610c68565b6001600160a01b0383166000908152600a6020526040812060040180548492906120f29084906151c7565b909155505060405163a9059cbb60e01b8152336004820152602481018390526001600160a01b0384169063a9059cbb906044015b6020604051808303816000875af1158015612145573d6000803e3d6000fd5b505050506040513d601f19601f820116820180604052508101906121699190615158565b50505050565b61217881611f9b565b612181816133da565b61218a82612428565b6121a65760405162461bcd60e51b8152600401610c68906150cf565b506001600160a01b03166000908152600a60205260409020805461ff0019169055565b606060098054806020026020016040519081016040528092919081815260200182805480156112f8576020028201919060005260206000209081546001600160a01b031681526001909101906020018083116112da575050505050905090565b61223281611f9b565b61223b816133da565b61224482612428565b6122605760405162461bcd60e51b8152600401610c68906150cf565b506001600160a01b03166000908152600a60205260409020805461ff001916610100179055565b600a602052600090815260409020805460018201805460ff80841694610100909404169291906122b690615060565b80601f01602080910402602001604051908101604052809291908181526020018280546122e290615060565b801561232f5780601f106123045761010080835404028352916020019161232f565b820191906000526020600020905b81548152906001019060200180831161231257829003601f168201915b50505060028401546003850154600486015460058701546006880154600789015460088a015460098b0154600a8c0154600b8d0154600c909d01549b9c989b979a5095985093969295919490936001600160a01b03908116939116918e565b600860205260009081526040902080546123a790615060565b80601f01602080910402602001604051908101604052809291908181526020018280546123d390615060565b80156124205780601f106123f557610100808354040283529160200191612420565b820191906000526020600020905b81548152906001019060200180831161240357829003601f168201915b505050505081565b6000805b60095481101561248857826001600160a01b0316600982815481106124535761245361521f565b6000918252602090912001546001600160a01b0316036124765750600192915050565b8061248081615235565b91505061242c565b50600092915050565b61249a82611f9b565b6124a3816133da565b6124ac82611f9b565b6124b5816133da565b6124be84612428565b6124da5760405162461bcd60e51b8152600401610c68906150cf565b6124e383612428565b61252f5760405162461bcd60e51b815260206004820152601c60248201527f52657761726420746f6b656e20646f6573206e6f742065786973742e000000006044820152606401610c68565b50506001600160a01b039182166000908152600a602052604090206009810180546001600160a01b031916929093169190911790915542600c90910155565b6000546001600160a01b031633146125985760405162461bcd60e51b8152600401610c689061509a565b6125a182612428565b6125bd5760405162461bcd60e51b8152600401610c68906150cf565b6001600160a01b0382166000908152600a6020908152604090912082516125ec92600190920191840190614733565b50506001600160a01b03166000908152600a6020526040902042600c90910155565b61263b60405180608001604052806000151581526020016000815260200160008152602001600081525090565b506001600160a01b03166000908152600c60209081526040918290208251608081018452815460ff1615158152600182015492810192909252600281015492820192909252600390910154606082015290565b6000805b600b5481101561248857826001600160a01b0316600b82815481106126b9576126b961521f565b6000918252602090912001546001600160a01b0316036126dc5750600192915050565b806126e681615235565b915050612692565b6000828152600160208190526040909120015461270a816133da565b610cc7838361344f565b6000546001600160a01b0316331461273e5760405162461bcd60e51b8152600401610c689061509a565b60005b600954811015612828576000600982815481106127605761276061521f565b60009182526020822001546001600160a01b031691505b600b54811015612813576000600b82815481106127965761279661521f565b6000918252602080832090910154604080516080810182526015818301908152746973737565207374616b696e67207265776172647360581b606083015281528151808501909252938152918301919091526001600160a01b0316915061280090849083906135bf565b508061280b81615235565b915050612777565b5050808061282090615235565b915050612741565b50565b6000546001600160a01b031633146128555760405162461bcd60e51b8152600401610c689061509a565b61285e88612428565b156128a35760405162461bcd60e51b81526020600482015260156024820152742a37b5b2b71030b63932b0b23c9032bc34b9ba399760591b6044820152606401610c68565b6128b56128af89611f9b565b33613f5f565b6009805460018082019092557f6e1540171b6c0c960b71a7020d9f60077f6af931a8bbf590da0223dacf75c7af810180546001600160a01b0319166001600160a01b038c169081179091556000908152600a602090815260409091208a519293612924939101918b0190614733565b506001600160a01b0389166000908152600a602052604090206002810188905542600b9091015561297b89871561295b5787612965565b6129656001611888565b8715612971578761189c565b6106996001611888565b61299589851561298b5785611e2b565b6106ed6064611888565b6129b4896001600160a01b038516156129ae5784612491565b8a612491565b6129d3896001600160a01b038416156129cd5783611422565b33611422565b505050505050505050565b6000546001600160a01b03163314612a085760405162461bcd60e51b8152600401610c689061509a565b600391909155600455565b6000546001600160a01b03163314612a3d5760405162461bcd60e51b8152600401610c689061509a565b6001600160a01b03166000908152600760205260409020805460ff19166001179055565b60006109e5670de0b6b3a76400008361520b565b6000546001600160a01b03163314612a9f5760405162461bcd60e51b8152600401610c689061509a565b612aa882612428565b612ac45760405162461bcd60e51b8152600401610c68906150cf565b6001600160a01b039091166000908152600a60205260409020600281019190915542600c90910155565b6000546001600160a01b03163314612b185760405162461bcd60e51b8152600401610c689061509a565b6001600160a01b038116612b7d5760405162461bcd60e51b815260206004820152602660248201527f4f776e61626c653a206e6577206f776e657220697320746865207a65726f206160448201526564647265737360d01b6064820152608401610c68565b61282881613f0f565b6000546001600160a01b03163314612bb05760405162461bcd60e51b8152600401610c689061509a565b60405163a9059cbb60e01b81526001600160a01b0383811660048301526024820183905284169063a9059cbb90604401612126565b6001600160a01b0382166000908152600a602052604090205460ff16612c415760405162461bcd60e51b81526020600482015260116024820152702a37b5b2b7103737ba1030b1ba34bb329760791b6044820152606401610c68565b60008111612c615760405162461bcd60e51b8152600401610c68906150fe565b806001600160a01b0383166370a08231336040516001600160e01b031960e084901b1681526001600160a01b039091166004820152602401602060405180830381865afa158015612cb6573d6000803e3d6000fd5b505050506040513d601f19601f82011682018060405250810190612cda919061513f565b1015612d285760405162461bcd60e51b815260206004820152601c60248201527f496e73756666696369656e742077616c6c65742062616c616e63652e000000006044820152606401610c68565b6001600160a01b0382166000908152600a6020526040812060060154612d4e6064611888565b612d58908461520b565b612d6291906151a8565b90506000811580612d8257503360009081526007602052604090205460ff165b15612d8e575081612e27565b6001600160a01b0384166323b872dd3360025460405160e084901b6001600160e01b03191681526001600160a01b03928316600482015291166024820152604481018590526064016020604051808303816000875af1158015612df5573d6000803e3d6000fd5b505050506040513d601f19601f82011682018060405250810190612e199190615158565b50612e2482846151c7565b90505b6001600160a01b0384166323b872dd336040516001600160e01b031960e084901b1681526001600160a01b039091166004820152306024820152604481018490526064016020604051808303816000875af1158015612e8a573d6000803e3d6000fd5b505050506040513d601f19601f82011682018060405250810190612eae9190615158565b506001600160a01b0384166000908152600d60209081526040808320338452909152812060010154900361302657336000908152600c60205260408120600101549003612f2657612efe3361268e565b612f0b57612f0b33613f69565b336000908152600c60205260409020805460ff191660011790555b336000908152600c60205260408120600101805491612f4483615235565b9190505550600c6000612f543390565b6001600160a01b0316815260208101919091526040016000206002015415612f9357336000908152600c60205260409020426003909101819055612fac565b336000908152600c602052604090204260029091018190555b506001600160a01b038481166000908152600d6020908152604080832033845290915290206002015416613021576001600160a01b038481166000908152600a6020908152604080832060090154600d835281842033855290925290912060020180546001600160a01b031916919092161790555b61305e565b61305e8433604080516080810182526005918101918252647374616b6560d81b606082015290815260208101611a44611a3f89612a61565b6001600160a01b0384166000908152600d6020908152604080832033845290915281206001018054839290613094908490615190565b90915550506001600160a01b0384166000908152600d60209081526040808320338452909152902060050154156130f6576001600160a01b0384166000908152600d602090815260408083203384529091529020426006909101819055613123565b6001600160a01b0384166000908152600d6020908152604080832033845290915290204260059091018190555b506001600160a01b0384166000908152600a60205260408120600501805483929061314f908490615190565b90915550506001600160a01b0384166000818152600a6020526040902042600c90910155336001600160a01b03167f99039fcf0a98f484616c5196ee8b2ecfa971babf0b519848289ea4db381f85f783604051611d9b91815260200190565b600b818154811061154757600080fd5b6000811561337f576001600160a01b0384166000908152600a602052604090205460ff166132225760405162461bcd60e51b81526020600482015260116024820152702a37b5b2b7103737ba1030b1ba34bb329760791b6044820152606401610c68565b6001600160a01b0384166000908152600a6020526040902054610100900460ff166132995760405162461bcd60e51b815260206004820152602160248201527f546f6b656e20646f6573206e6f742068617665206d756c7469207265776172646044820152601760f91b6064820152608401610c68565b6001600160a01b0383166000908152600a602052604090205460ff166133015760405162461bcd60e51b815260206004820152601860248201527f52657761726420746f6b656e206e6f74206163746976652e00000000000000006044820152606401610c68565b6001600160a01b0383166000908152600a6020526040902054610100900460ff1661337f5760405162461bcd60e51b815260206004820152602860248201527f52657761726420746f6b656e20646f6573206e6f742068617665206d756c7469604482015267103932bbb0b9321760c11b6064820152608401610c68565b6133888561268e565b6133955761339585613f69565b50506001600160a01b039182166000908152600d6020908152604080832095851683529490529290922060020180546001600160a01b03191692909116918217905590565b6128288133614019565b6133ee8282611fda565b6112235760008281526001602081815260408084206001600160a01b0386168086529252808420805460ff19169093179092559051339285917f2f8788117e7eff1d82e926ec794901d17c78024a50270940304540a733656f0d9190a45050565b6134598282611fda565b156112235760008281526001602090815260408083206001600160a01b0385168085529252808320805460ff1916905551339285917ff6391f5c32d9c69d2a47ea670b442974b53935d1edc7fd64eb21e047a839171b9190a45050565b6060816000036134dd5750506040805180820190915260018152600360fc1b602082015290565b8160005b811561350757806134f181615235565b91506135009050600a8361520b565b91506134e1565b60008167ffffffffffffffff81111561352257613522614cf5565b6040519080825280601f01601f19166020018201604052801561354c576020820181803683370190505b5090505b84156135b7576135616001836151c7565b915061356e600a8661524e565b613579906030615190565b60f81b81838151811061358e5761358e61521f565b60200101906001600160f81b031916908160001a9053506135b0600a8661520b565b9450613550565b949350505050565b6001600160a01b0383166000908152600a602052604090205460ff166135e457505050565b6001600160a01b0382166000908152600c602052604090205460ff1661360957505050565b6001600160a01b0383166000908152600a6020908152604080832081516101c081018352815460ff8082161515835261010090910416151593810193909352600181018054919284019161365c90615060565b80601f016020809104026020016040519081016040528092919081815260200182805461368890615060565b80156136d55780601f106136aa576101008083540402835291602001916136d5565b820191906000526020600020905b8154815290600101906020018083116136b857829003601f168201915b5050509183525050600282810154602080840191909152600380850154604080860191909152600486015460608087019190915260058701546080870152600687015460a0870152600787015460c0870152600887015460e08088019190915260098801546001600160a01b03908116610100890152600a8901548116610120890152600b890154610140890152600c90980154610160909701969096528b87166000908152600d85528281208c891682528552828120835197880184528054885260018101548887015295860154909716868301529184018054825181860281018601909352808352979850959694959394918601939092909190879084015b8282101561394957600084815260208082206040805161018081018252600d87029092018054835260018101546001600160a01b03908116948401949094526002808201548516848401526003820154606085015260048201546080850152600582015490941660a0840152600681015460c0840152600781015460e08401526008810154610100840152815180830190925291939192610120850192600985019190835b8282101561391e57838201805461389190615060565b80601f01602080910402602001604051908101604052809291908181526020018280546138bd90615060565b801561390a5780601f106138df5761010080835404028352916020019161390a565b820191906000526020600020905b8154815290600101906020018083116138ed57829003601f168201915b50505050508152602001906001019061387b565b505050508152602001600b8201548152602001600c82015481525050815260200190600101906137d6565b505050508152602001600482015481526020016005820154815260200160068201548152505090506000816020015111613984575050505050565b6040808201516001600160a01b03166000908152600a602052205460ff16613a0d578161014001516001600160a01b031681604001516001600160a01b0316036139cf575050505050565b6139e1848684610140015160006131be565b6001600160a01b031660408083018290526000918252600a60205290205460ff16613a0d575050505050565b600080600080613a1d888a61407d565b935093509350935083600003613a3857505050505050505050565b6000613a47866040015161117c565b905084811015613ac6578661014001516001600160a01b031686604001516001600160a01b031603613a8857613a7c8a6118da565b50505050505050505050565b613a9a898b89610140015160006131be565b6001600160a01b031660408701819052613ab39061117c565b905084811015613ac657613a7c8a6118da565b6040808701516001600160a01b03166000908152600a602052908120600301549081613af188611888565b613afb919061520b565b905060008111613b1357505050505050505050505050565b6040808901516001600160a01b03166000908152600a6020529081206004018054839290613b429084906151c7565b9091555050604080890180516001600160a01b039081166000908152600a602090815284822042600c90910155925182168152600d8352838120918f16815291529081208054839290613b96908490615190565b9250508190555042600d60008a604001516001600160a01b03166001600160a01b0316815260200190815260200160002060008d6001600160a01b03166001600160a01b031681526020019081526020016000206006018190555042600d60008e6001600160a01b03166001600160a01b0316815260200190815260200160002060008d6001600160a01b03166001600160a01b0316815260200190815260200160002060040181905550613c496147b7565b600d60008e6001600160a01b03166001600160a01b0316815260200190815260200160002060008d6001600160a01b03166001600160a01b03168152602001908152602001600020600301805490508160000181815250508b81602001906001600160a01b031690816001600160a01b0316815250508c81604001906001600160a01b031690816001600160a01b03168152505084816060018181525050886020015181608001818152505088604001518160a001906001600160a01b031690816001600160a01b031681525050828160c0018181525050818160e001818152505086816101000181815250508a8161012001819052504281610140018181525050600d60008e6001600160a01b03166001600160a01b0316815260200190815260200160002060008d6001600160a01b03166001600160a01b031681526020019081526020016000206003018190806001815401808255809150506001900390600052602060002090600d02016000909190919091506000820151816000015560208201518160010160006101000a8154816001600160a01b0302191690836001600160a01b0316021790555060408201518160020160006101000a8154816001600160a01b0302191690836001600160a01b03160217905550606082015181600301556080820151816004015560a08201518160050160006101000a8154816001600160a01b0302191690836001600160a01b0316021790555060c0820151816006015560e08201518160070155610100820151816008015561012082015181600901906002613e9c929190614839565b5061014082015181600b015561016082015181600c015550508c6001600160a01b03168c6001600160a01b03167fb395c2e4b9eefd26762aaac5447ef5cd093097911077f60b874f4ffdc5391b3683604051613ef89190615262565b60405180910390a350505050505050505050505050565b600080546001600160a01b038381166001600160a01b0319831681178455604051919092169283917f8be0079c531659141344cd1fd0a4f28419497f9722a3daafe3b4186f6b6457e09190a35050565b61122382826133e4565b613f728161268e565b15613fb85760405162461bcd60e51b815260206004820152601660248201527529ba30b5b2b91030b63932b0b23c9032bc34b9ba399760511b6044820152606401610c68565b600b8054600181019091557f0175b7a638427703f0dbe7bb9bbf987a2551717b34e79f33b5b1008d1fa01db90180546001600160a01b039092166001600160a01b0319909216821790556000908152600c6020526040902042600290910155565b6140238282611fda565b6112235761403b816001600160a01b03166014614590565b614046836020614590565b604051602001614057929190615275565b60408051601f198184030181529082905262461bcd60e51b8252610c6891600401614f43565b60008060008061408c8661268e565b6140a157506000925082915081905080614587565b6140aa85612428565b6140bf57506000925082915081905080614587565b6001600160a01b0385166000908152600a6020908152604080832081516101c081018352815460ff8082161515835261010090910416151593810193909352600181018054919284019161411290615060565b80601f016020809104026020016040519081016040528092919081815260200182805461413e90615060565b801561418b5780601f106141605761010080835404028352916020019161418b565b820191906000526020600020905b81548152906001019060200180831161416e57829003601f168201915b50505050508152602001600282015481526020016003820154815260200160048201548152602001600582015481526020016006820154815260200160078201548152602001600882015481526020016009820160009054906101000a90046001600160a01b03166001600160a01b03166001600160a01b03168152602001600a820160009054906101000a90046001600160a01b03166001600160a01b03166001600160a01b03168152602001600b8201548152602001600c8201548152505090506000600d6000886001600160a01b03166001600160a01b031681526020019081526020016000206000896001600160a01b03166001600160a01b031681526020019081526020016000206040518060e001604052908160008201548152602001600182015481526020016002820160009054906101000a90046001600160a01b03166001600160a01b03166001600160a01b0316815260200160038201805480602002602001604051908101604052809291908181526020016000905b8282101561447e57600084815260208082206040805161018081018252600d87029092018054835260018101546001600160a01b03908116948401949094526002808201548516848401526003820154606085015260048201546080850152600582015490941660a0840152600681015460c0840152600781015460e08401526008810154610100840152815180830190925291939192610120850192600985019190835b828210156144535783820180546143c690615060565b80601f01602080910402602001604051908101604052809291908181526020018280546143f290615060565b801561443f5780601f106144145761010080835404028352916020019161443f565b820191906000526020600020905b81548152906001019060200180831161442257829003601f168201915b5050505050815260200190600101906143b0565b505050508152602001600b8201548152602001600c820154815250508152602001906001019061430b565b5050505081526020016004820154815260200160058201548152602001600682015481525050905060008160200151116144c75760008060008095509550955095505050614587565b60006144e08360800151836020015161095091906151a8565b9050600060648461012001516144f6919061520b565b905060008360800151600003614510578360a00151614516565b83608001515b905042600061452861068684846151c7565b9050600061453582611f87565b905060006ec097ce7bc90715b34b9f100000000082614554888a6151a8565b61455e91906151a8565b614568919061520b565b602090980151608090990151979c50919a509698509496505050505050505b92959194509250565b6060600061459f8360026151a8565b6145aa906002615190565b67ffffffffffffffff8111156145c2576145c2614cf5565b6040519080825280601f01601f1916602001820160405280156145ec576020820181803683370190505b509050600360fc1b816000815181106146075761460761521f565b60200101906001600160f81b031916908160001a905350600f60fb1b816001815181106146365761463661521f565b60200101906001600160f81b031916908160001a905350600061465a8460026151a8565b614665906001615190565b90505b60018111156146dd576f181899199a1a9b1b9c1cb0b131b232b360811b85600f16601081106146995761469961521f565b1a60f81b8282815181106146af576146af61521f565b60200101906001600160f81b031916908160001a90535060049490941c936146d6816151de565b9050614668565b50831561472c5760405162461bcd60e51b815260206004820181905260248201527f537472696e67733a20686578206c656e67746820696e73756666696369656e746044820152606401610c68565b9392505050565b82805461473f90615060565b90600052602060002090601f01602090048101928261476157600085556147a7565b82601f1061477a57805160ff19168380011785556147a7565b828001600101855582156147a7579182015b828111156147a757825182559160200191906001019061478c565b506147b3929150614885565b5090565b6040518061018001604052806000815260200160006001600160a01b0316815260200160006001600160a01b03168152602001600081526020016000815260200160006001600160a01b0316815260200160008152602001600081526020016000815260200161482561489a565b815260200160008152602001600081525090565b8260028101928215614879579160200282015b828111156148795782518051614869918491602090910190614733565b509160200191906001019061484c565b506147b39291506148c1565b5b808211156147b35760008155600101614886565b60405180604001604052806002905b60608152602001906001900390816148a95790505090565b808211156147b35760006148d582826148de565b506001016148c1565b5080546148ea90615060565b6000825580601f106148fa575050565b601f0160209004906000526020600020908101906128289190614885565b60006020828403121561492a57600080fd5b81356001600160e01b03198116811461472c57600080fd5b80356001600160a01b038116811461495957600080fd5b919050565b6000806040838503121561497157600080fd5b61497a83614942565b915061498860208401614942565b90509250929050565b60005b838110156149ac578181015183820152602001614994565b838111156121695750506000910152565b600081518084526149d5816020860160208601614991565b601f01601f19169290920160200192915050565b600082604081018360005b6002811015614a23578383038752614a0d8383516149bd565b60209788019790935091909101906001016149f4565b509095945050505050565b6000610180825184526020830151614a5160208601826001600160a01b03169052565b506040830151614a6c60408601826001600160a01b03169052565b50606083015160608501526080830151608085015260a0830151614a9b60a08601826001600160a01b03169052565b5060c083015160c085015260e083015160e0850152610100808401518186015250610120808401518282870152614ad4838701826149e9565b610140868101519088015261016095860151959096019490945250929392505050565b60006020808352610100830184518285015281850151604085015260018060a01b036040860151166060850152606085015160e0608086015281815180845261012093508387019150838160051b8801019350848301925060005b81811015614b815761011f19888603018352614b6f858551614a2e565b94509285019291850191600101614b52565b50505050608085015160a085015260a085015160c085015260c085015160e0850152809250505092915050565b600060208284031215614bc057600080fd5b61472c82614942565b60208152614bdc60208201835115159052565b60006020830151614bf1604084018215159052565b5060408301516101c0806060850152614c0e6101e08501836149bd565b915060608501516080850152608085015160a085015260a085015160c085015260c085015160e085015260e0850151610100818187015280870151915050610120818187015280870151915050610140818187015280870151915050610160614c81818701836001600160a01b03169052565b8601519050610180614c9d868201836001600160a01b03169052565b8601516101a0868101919091529095015193019290925250919050565b60008060408385031215614ccd57600080fd5b50508035926020909101359150565b600060208284031215614cee57600080fd5b5035919050565b634e487b7160e01b600052604160045260246000fd5b600082601f830112614d1c57600080fd5b813567ffffffffffffffff80821115614d3757614d37614cf5565b604051601f8301601f19908116603f01168101908282118183101715614d5f57614d5f614cf5565b81604052838152866020858801011115614d7857600080fd5b836020870160208301376000602085830101528094505050505092915050565b60008060408385031215614dab57600080fd5b82359150602083013567ffffffffffffffff811115614dc957600080fd5b614dd585828601614d0b565b9150509250929050565b60008060408385031215614df257600080fd5b8235915061498860208401614942565b60008060408385031215614e1557600080fd5b614e1e83614942565b946020939093013593505050565b6020808252825182820181905260009190848201906040850190845b81811015614e6d5783516001600160a01b031683529284019291840191600101614e48565b50909695505050505050565b600080600060608486031215614e8e57600080fd5b614e9784614942565b95602085013595506040909401359392505050565b8e151581528d151560208201526101c060408201526000614ed16101c083018f6149bd565b90508c60608301528b60808301528a60a08301528960c08301528860e08301528761010083015286610120830152614f156101408301876001600160a01b03169052565b6001600160a01b0385166101608301526101808201939093526101a001529c9b505050505050505050505050565b60208152600061472c60208301846149bd565b60008060408385031215614f6957600080fd5b614f7283614942565b9150602083013567ffffffffffffffff811115614dc957600080fd5b600080600080600080600080610100898b031215614fab57600080fd5b614fb489614942565b9750602089013567ffffffffffffffff811115614fd057600080fd5b614fdc8b828c01614d0b565b97505060408901359550606089013594506080890135935060a0890135925061500760c08a01614942565b915061501560e08a01614942565b90509295985092959890939650565b60008060006060848603121561503957600080fd5b61504284614942565b925061505060208501614942565b9150604084013590509250925092565b600181811c9082168061507457607f821691505b60208210810361509457634e487b7160e01b600052602260045260246000fd5b50919050565b6020808252818101527f4f776e61626c653a2063616c6c6572206973206e6f7420746865206f776e6572604082015260600190565b6020808252601590820152742a37b5b2b7103237b2b9903737ba1032bc34b9ba1760591b604082015260600190565b60208082526021908201527f416d6f756e74206d7573742062652067726561746572207468616e207a65726f6040820152601760f91b606082015260800190565b60006020828403121561515157600080fd5b5051919050565b60006020828403121561516a57600080fd5b8151801515811461472c57600080fd5b634e487b7160e01b600052601160045260246000fd5b600082198211156151a3576151a361517a565b500190565b60008160001904831182151516156151c2576151c261517a565b500290565b6000828210156151d9576151d961517a565b500390565b6000816151ed576151ed61517a565b506000190190565b634e487b7160e01b600052601260045260246000fd5b60008261521a5761521a6151f5565b500490565b634e487b7160e01b600052603260045260246000fd5b6000600182016152475761524761517a565b5060010190565b60008261525d5761525d6151f5565b500690565b60208152600061472c6020830184614a2e565b7f416363657373436f6e74726f6c3a206163636f756e74200000000000000000008152600083516152ad816017850160208801614991565b7001034b99036b4b9b9b4b733903937b6329607d1b60179184019182015283516152de816028840160208801614991565b0160280194935050505056fea2646970667358221220618162f65ebc920cc43b4e41be211369bc1184e498d3d4e19f372ad752f266d164736f6c634300080d0033","bytecodeSha1":"ee01f0988bc1b3ed6eec45dc9b5156e97bf40d94","compiler":{"evm_version":"istanbul","optimizer":{"enabled":true,"runs":200},"version":"0.8.13+commit.abaa5c0e"},"contractName":"SavvyFinanceFarm","language":"Solidity","natspec":{"kind":"dev","methods":{"getRoleAdmin(bytes32)":{"details":"Returns the admin role that controls `role`. See {grantRole} and {revokeRole}. To change a role's admin, use {_setRoleAdmin}."},"grantRole(bytes32,address)":{"details":"Grants `role` to `account`. If `account` had not been already granted `role`, emits a {RoleGranted} event. Requirements: - the caller must have ``role``'s admin role."},"hasRole(bytes32,address)":{"details":"Returns `true` if `account` has been granted `role`."},"owner()":{"details":"Returns the address of the current owner."},"renounceOwnership()":{"details":"Leaves the contract without owner. It will not be possible to call `onlyOwner` functions anymore. Can only be called by the current owner. NOTE: Renouncing ownership will leave the contract without an owner, thereby removing any functionality that is only available to the owner."},"renounceRole(bytes32,address)":{"details":"Revokes `role` from the calling account. Roles are often managed via {grantRole} and {revokeRole}: this function's purpose is to provide a mechanism for accounts to lose their privileges if they are compromised (such as when a trusted device is misplaced). If the calling account had been revoked `role`, emits a {RoleRevoked} event. Requirements: - the caller must be `account`."},"revokeRole(bytes32,address)":{"details":"Revokes `role` from `account`. If `account` had been granted `role`, emits a {RoleRevoked} event. Requirements: - the caller must have ``role``'s admin role."},"supportsInterface(bytes4)":{"details":"See {IERC165-supportsInterface}."},"transferOwnership(address)":{"details":"Transfers ownership of the contract to a new account (`newOwner`). Can only be called by the current owner."}},"version":1},"opcodes":"PUSH1 0x80 PUSH1 0x40 MSTORE CALLVALUE DUP1 ISZERO PUSH2 0x10 JUMPI PUSH1 0x0 DUP1 REVERT JUMPDEST POP PUSH1 0x4 CALLDATASIZE LT PUSH2 0x3C5 JUMPI PUSH1 0x0 CALLDATALOAD PUSH1 0xE0 SHR DUP1 PUSH4 0x8129FC1C GT PUSH2 0x1FF JUMPI DUP1 PUSH4 0xB678C3A4 GT PUSH2 0x11A JUMPI DUP1 PUSH4 0xE1430AA4 GT PUSH2 0xAD JUMPI DUP1 PUSH4 0xF2FDE38B GT PUSH2 0x7C JUMPI DUP1 PUSH4 0xF2FDE38B EQ PUSH2 0x968 JUMPI DUP1 PUSH4 0xF5537EDE EQ PUSH2 0x97B JUMPI DUP1 PUSH4 0xF739ED9E EQ PUSH2 0x98E JUMPI DUP1 PUSH4 0xFD5E6DD1 EQ PUSH2 0x9A1 JUMPI PUSH1 0x0 DUP1 REVERT JUMPDEST DUP1 PUSH4 0xE1430AA4 EQ PUSH2 0x91C JUMPI DUP1 PUSH4 0xE57F14E1 EQ PUSH2 0x92F JUMPI DUP1 PUSH4 0xE65D1522 EQ PUSH2 0x942 JUMPI DUP1 PUSH4 0xED2B79F8 EQ PUSH2 0x955 JUMPI PUSH1 0x0 DUP1 REVERT JUMPDEST DUP1 PUSH4 0xCFA10CA0 GT PUSH2 0xE9 JUMPI DUP1 PUSH4 0xCFA10CA0 EQ PUSH2 0x8DB JUMPI DUP1 PUSH4 0xD547741F EQ PUSH2 0x8EE JUMPI DUP1 PUSH4 0xDE37F25A EQ PUSH2 0x901 JUMPI DUP1 PUSH4 0xE0161403 EQ PUSH2 0x909 JUMPI PUSH1 0x0 DUP1 REVERT JUMPDEST DUP1 PUSH4 0xB678C3A4 EQ PUSH2 0x85A JUMPI DUP1 PUSH4 0xC04A5414 EQ PUSH2 0x86D JUMPI DUP1 PUSH4 0xC370C86D EQ PUSH2 0x880 JUMPI DUP1 PUSH4 0xC601F352 EQ PUSH2 0x893 JUMPI PUSH1 0x0 DUP1 REVERT JUMPDEST DUP1 PUSH4 0xA217FDDF GT PUSH2 0x192 JUMPI DUP1 PUSH4 0xAC66C6E0 GT PUSH2 0x161 JUMPI DUP1 PUSH4 0xAC66C6E0 EQ PUSH2 0x79F JUMPI DUP1 PUSH4 0xACB422C5 EQ PUSH2 0x7CC JUMPI DUP1 PUSH4 0xB1C2A9F8 EQ PUSH2 0x827 JUMPI DUP1 PUSH4 0xB33F78CA EQ PUSH2 0x847 JUMPI PUSH1 0x0 DUP1 REVERT JUMPDEST DUP1 PUSH4 0xA217FDDF EQ PUSH2 0x769 JUMPI DUP1 PUSH4 0xA490DD7D EQ PUSH2 0x771 JUMPI DUP1 PUSH4 0xAA6CA808 EQ PUSH2 0x784 JUMPI DUP1 PUSH4 0xAC2E41FF EQ PUSH2 0x78C JUMPI PUSH1 0x0 DUP1 REVERT JUMPDEST DUP1 PUSH4 0x8EF88B19 GT PUSH2 0x1CE JUMPI DUP1 PUSH4 0x8EF88B19 EQ PUSH2 0x727 JUMPI DUP1 PUSH4 0x91D14854 EQ PUSH2 0x73A JUMPI DUP1 PUSH4 0x941714D4 EQ PUSH2 0x74D JUMPI DUP1 PUSH4 0x9E281A98 EQ PUSH2 0x756 JUMPI PUSH1 0x0 DUP1 REVERT JUMPDEST DUP1 PUSH4 0x8129FC1C EQ PUSH2 0x6F2 JUMPI DUP1 PUSH4 0x86A2A968 EQ PUSH2 0x6FA JUMPI DUP1 PUSH4 0x8D62BE02 EQ PUSH2 0x703 JUMPI DUP1 PUSH4 0x8DA5CB5B EQ PUSH2 0x716 JUMPI PUSH1 0x0 DUP1 REVERT JUMPDEST DUP1 PUSH4 0x417AA1B1 GT PUSH2 0x2EF JUMPI DUP1 PUSH4 0x61EE1955 GT PUSH2 0x282 JUMPI DUP1 PUSH4 0x6C82A726 GT PUSH2 0x251 JUMPI DUP1 PUSH4 0x6C82A726 EQ PUSH2 0x6B1 JUMPI DUP1 PUSH4 0x715018A6 EQ PUSH2 0x6C4 JUMPI DUP1 PUSH4 0x72AC2486 EQ PUSH2 0x6CC JUMPI DUP1 PUSH4 0x75D7F0D9 EQ PUSH2 0x6DF JUMPI PUSH1 0x0 DUP1 REVERT JUMPDEST DUP1 PUSH4 0x61EE1955 EQ PUSH2 0x665 JUMPI DUP1 PUSH4 0x669DAFE8 EQ PUSH2 0x678 JUMPI DUP1 PUSH4 0x6763D6F9 EQ PUSH2 0x68B JUMPI DUP1 PUSH4 0x68173BCF EQ PUSH2 0x69E JUMPI PUSH1 0x0 DUP1 REVERT JUMPDEST DUP1 PUSH4 0x49A5B196 GT PUSH2 0x2BE JUMPI DUP1 PUSH4 0x49A5B196 EQ PUSH2 0x5F1 JUMPI DUP1 PUSH4 0x4F64B2BE EQ PUSH2 0x604 JUMPI DUP1 PUSH4 0x4FBEE193 EQ PUSH2 0x62F JUMPI DUP1 PUSH4 0x58C887E6 EQ PUSH2 0x652 JUMPI PUSH1 0x0 DUP1 REVERT JUMPDEST DUP1 PUSH4 0x417AA1B1 EQ PUSH2 0x5AD JUMPI DUP1 PUSH4 0x431F63C9 EQ PUSH2 0x5B6 JUMPI DUP1 PUSH4 0x43352D61 EQ PUSH2 0x5C9 JUMPI DUP1 PUSH4 0x44ADEC1D EQ PUSH2 0x5DE JUMPI PUSH1 0x0 DUP1 REVERT JUMPDEST DUP1 PUSH4 0x248A9CA3 GT PUSH2 0x367 JUMPI DUP1 PUSH4 0x338B5DEA GT PUSH2 0x336 JUMPI DUP1 PUSH4 0x338B5DEA EQ PUSH2 0x56B JUMPI DUP1 PUSH4 0x34738DFA EQ PUSH2 0x57E JUMPI DUP1 PUSH4 0x36568ABE EQ PUSH2 0x591 JUMPI DUP1 PUSH4 0x36795DCA EQ PUSH2 0x5A4 JUMPI PUSH1 0x0 DUP1 REVERT JUMPDEST DUP1 PUSH4 0x248A9CA3 EQ PUSH2 0x480 JUMPI DUP1 PUSH4 0x2B12984E EQ PUSH2 0x4B2 JUMPI DUP1 PUSH4 0x2D94C6CD EQ PUSH2 0x4C5 JUMPI DUP1 PUSH4 0x2F2FF15D EQ PUSH2 0x558 JUMPI PUSH1 0x0 DUP1 REVERT JUMPDEST DUP1 PUSH4 0x13316BCF GT PUSH2 0x3A3 JUMPI DUP1 PUSH4 0x13316BCF EQ PUSH2 0x427 JUMPI DUP1 PUSH4 0x13FF7E9F EQ PUSH2 0x43A JUMPI DUP1 PUSH4 0x16A2F82A EQ PUSH2 0x45A JUMPI DUP1 PUSH4 0x1A19A45B EQ PUSH2 0x46D JUMPI PUSH1 0x0 DUP1 REVERT JUMPDEST DUP1 PUSH4 0x1FFC9A7 EQ PUSH2 0x3CA JUMPI DUP1 PUSH4 0x4F78063 EQ PUSH2 0x3F2 JUMPI DUP1 PUSH4 0xD1CE2D2 EQ PUSH2 0x412 JUMPI JUMPDEST PUSH1 0x0 DUP1 REVERT JUMPDEST PUSH2 0x3DD PUSH2 0x3D8 CALLDATASIZE PUSH1 0x4 PUSH2 0x4918 JUMP JUMPDEST PUSH2 0x9B4 JUMP JUMPDEST PUSH1 0x40 MLOAD SWAP1 ISZERO ISZERO DUP2 MSTORE PUSH1 0x20 ADD JUMPDEST PUSH1 0x40 MLOAD DUP1 SWAP2 SUB SWAP1 RETURN JUMPDEST PUSH2 0x405 PUSH2 0x400 CALLDATASIZE PUSH1 0x4 PUSH2 0x495E JUMP JUMPDEST PUSH2 0x9EB JUMP JUMPDEST PUSH1 0x40 MLOAD PUSH2 0x3E9 SWAP2 SWAP1 PUSH2 0x4AF7 JUMP JUMPDEST PUSH2 0x425 PUSH2 0x420 CALLDATASIZE PUSH1 0x4 PUSH2 0x4BAE JUMP JUMPDEST PUSH2 0xC3E JUMP JUMPDEST STOP JUMPDEST PUSH2 0x425 PUSH2 0x435 CALLDATASIZE PUSH1 0x4 PUSH2 0x495E JUMP JUMPDEST PUSH2 0xCBA JUMP JUMPDEST PUSH2 0x44D PUSH2 0x448 CALLDATASIZE PUSH1 0x4 PUSH2 0x4BAE JUMP JUMPDEST PUSH2 0xCCC JUMP JUMPDEST PUSH1 0x40 MLOAD PUSH2 0x3E9 SWAP2 SWAP1 PUSH2 0x4BC9 JUMP JUMPDEST PUSH2 0x425 PUSH2 0x468 CALLDATASIZE PUSH1 0x4 PUSH2 0x4BAE JUMP JUMPDEST PUSH2 0xEB2 JUMP JUMPDEST PUSH2 0x425 PUSH2 0x47B CALLDATASIZE PUSH1 0x4 PUSH2 0x4CBA JUMP JUMPDEST PUSH2 0xEFD JUMP JUMPDEST PUSH2 0x4A4 PUSH2 0x48E CALLDATASIZE PUSH1 0x4 PUSH2 0x4CDC JUMP JUMPDEST PUSH1 0x0 SWAP1 DUP2 MSTORE PUSH1 0x1 PUSH1 0x20 DUP2 SWAP1 MSTORE PUSH1 0x40 SWAP1 SWAP2 KECCAK256 ADD SLOAD SWAP1 JUMP JUMPDEST PUSH1 0x40 MLOAD SWAP1 DUP2 MSTORE PUSH1 0x20 ADD PUSH2 0x3E9 JUMP JUMPDEST PUSH2 0x425 PUSH2 0x4C0 CALLDATASIZE PUSH1 0x4 PUSH2 0x4D98 JUMP JUMPDEST PUSH2 0xF32 JUMP JUMPDEST PUSH2 0x51D PUSH2 0x4D3 CALLDATASIZE PUSH1 0x4 PUSH2 0x495E JUMP JUMPDEST PUSH1 0xD PUSH1 0x20 SWAP1 DUP2 MSTORE PUSH1 0x0 SWAP3 DUP4 MSTORE PUSH1 0x40 DUP1 DUP5 KECCAK256 SWAP1 SWAP2 MSTORE SWAP1 DUP3 MSTORE SWAP1 KECCAK256 DUP1 SLOAD PUSH1 0x1 DUP3 ADD SLOAD PUSH1 0x2 DUP4 ADD SLOAD PUSH1 0x4 DUP5 ADD SLOAD PUSH1 0x5 DUP6 ADD SLOAD PUSH1 0x6 SWAP1 SWAP6 ADD SLOAD SWAP4 SWAP5 SWAP3 SWAP4 PUSH1 0x1 PUSH1 0x1 PUSH1 0xA0 SHL SUB SWAP1 SWAP3 AND SWAP3 SWAP1 SWAP2 DUP7 JUMP JUMPDEST PUSH1 0x40 DUP1 MLOAD SWAP7 DUP8 MSTORE PUSH1 0x20 DUP8 ADD SWAP6 SWAP1 SWAP6 MSTORE PUSH1 0x1 PUSH1 0x1 PUSH1 0xA0 SHL SUB SWAP1 SWAP4 AND SWAP4 DUP6 ADD SWAP4 SWAP1 SWAP4 MSTORE PUSH1 0x60 DUP5 ADD MSTORE PUSH1 0x80 DUP4 ADD SWAP2 SWAP1 SWAP2 MSTORE PUSH1 0xA0 DUP3 ADD MSTORE PUSH1 0xC0 ADD PUSH2 0x3E9 JUMP JUMPDEST PUSH2 0x425 PUSH2 0x566 CALLDATASIZE PUSH1 0x4 PUSH2 0x4DDF JUMP JUMPDEST PUSH2 0xF7B JUMP JUMPDEST PUSH2 0x425 PUSH2 0x579 CALLDATASIZE PUSH1 0x4 PUSH2 0x4E02 JUMP JUMPDEST PUSH2 0xFA1 JUMP JUMPDEST PUSH2 0x4A4 PUSH2 0x58C CALLDATASIZE PUSH1 0x4 PUSH2 0x4BAE JUMP JUMPDEST PUSH2 0x117C JUMP JUMPDEST PUSH2 0x425 PUSH2 0x59F CALLDATASIZE PUSH1 0x4 PUSH2 0x4DDF JUMP JUMPDEST PUSH2 0x11A9 JUMP JUMPDEST PUSH2 0x4A4 PUSH1 0x3 SLOAD DUP2 JUMP JUMPDEST PUSH2 0x4A4 PUSH1 0x5 SLOAD DUP2 JUMP JUMPDEST PUSH2 0x425 PUSH2 0x5C4 CALLDATASIZE PUSH1 0x4 PUSH2 0x4E02 JUMP JUMPDEST PUSH2 0x1227 JUMP JUMPDEST PUSH2 0x5D1 PUSH2 0x12A0 JUMP JUMPDEST PUSH1 0x40 MLOAD PUSH2 0x3E9 SWAP2 SWAP1 PUSH2 0x4E2C JUMP JUMPDEST PUSH2 0x425 PUSH2 0x5EC CALLDATASIZE PUSH1 0x4 PUSH2 0x4E02 JUMP JUMPDEST PUSH2 0x1302 JUMP JUMPDEST PUSH2 0x425 PUSH2 0x5FF CALLDATASIZE PUSH1 0x4 PUSH2 0x495E JUMP JUMPDEST PUSH2 0x1422 JUMP JUMPDEST PUSH2 0x617 PUSH2 0x612 CALLDATASIZE PUSH1 0x4 PUSH2 0x4CDC JUMP JUMPDEST PUSH2 0x1537 JUMP JUMPDEST PUSH1 0x40 MLOAD PUSH1 0x1 PUSH1 0x1 PUSH1 0xA0 SHL SUB SWAP1 SWAP2 AND DUP2 MSTORE PUSH1 0x20 ADD PUSH2 0x3E9 JUMP JUMPDEST PUSH2 0x3DD PUSH2 0x63D CALLDATASIZE PUSH1 0x4 PUSH2 0x4BAE JUMP JUMPDEST PUSH1 0x7 PUSH1 0x20 MSTORE PUSH1 0x0 SWAP1 DUP2 MSTORE PUSH1 0x40 SWAP1 KECCAK256 SLOAD PUSH1 0xFF AND DUP2 JUMP JUMPDEST PUSH2 0x425 PUSH2 0x660 CALLDATASIZE PUSH1 0x4 PUSH2 0x4E02 JUMP JUMPDEST PUSH2 0x1561 JUMP JUMPDEST PUSH2 0x425 PUSH2 0x673 CALLDATASIZE PUSH1 0x4 PUSH2 0x4E02 JUMP JUMPDEST PUSH2 0x1681 JUMP JUMPDEST PUSH2 0x4A4 PUSH2 0x686 CALLDATASIZE PUSH1 0x4 PUSH2 0x4CDC JUMP JUMPDEST PUSH2 0x1888 JUMP JUMPDEST PUSH2 0x425 PUSH2 0x699 CALLDATASIZE PUSH1 0x4 PUSH2 0x4E79 JUMP JUMPDEST PUSH2 0x189C JUMP JUMPDEST PUSH2 0x425 PUSH2 0x6AC CALLDATASIZE PUSH1 0x4 PUSH2 0x4BAE JUMP JUMPDEST PUSH2 0x18DA JUMP JUMPDEST PUSH2 0x425 PUSH2 0x6BF CALLDATASIZE PUSH1 0x4 PUSH2 0x4E02 JUMP JUMPDEST PUSH2 0x194A JUMP JUMPDEST PUSH2 0x425 PUSH2 0x1DA9 JUMP JUMPDEST PUSH2 0x425 PUSH2 0x6DA CALLDATASIZE PUSH1 0x4 PUSH2 0x4BAE JUMP JUMPDEST PUSH2 0x1DDF JUMP JUMPDEST PUSH2 0x425 PUSH2 0x6ED CALLDATASIZE PUSH1 0x4 PUSH2 0x4E02 JUMP JUMPDEST PUSH2 0x1E2B JUMP JUMPDEST PUSH2 0x425 PUSH2 0x1F34 JUMP JUMPDEST PUSH2 0x4A4 PUSH1 0x6 SLOAD DUP2 JUMP JUMPDEST PUSH2 0x4A4 PUSH2 0x711 CALLDATASIZE PUSH1 0x4 PUSH2 0x4CDC JUMP JUMPDEST PUSH2 0x1F87 JUMP JUMPDEST PUSH1 0x0 SLOAD PUSH1 0x1 PUSH1 0x1 PUSH1 0xA0 SHL SUB AND PUSH2 0x617 JUMP JUMPDEST PUSH2 0x4A4 PUSH2 0x735 CALLDATASIZE PUSH1 0x4 PUSH2 0x4BAE JUMP JUMPDEST PUSH2 0x1F9B JUMP JUMPDEST PUSH2 0x3DD PUSH2 0x748 CALLDATASIZE PUSH1 0x4 PUSH2 0x4DDF JUMP JUMPDEST PUSH2 0x1FDA JUMP JUMPDEST PUSH2 0x4A4 PUSH1 0x4 SLOAD DUP2 JUMP JUMPDEST PUSH2 0x425 PUSH2 0x764 CALLDATASIZE PUSH1 0x4 PUSH2 0x4E02 JUMP JUMPDEST PUSH2 0x2005 JUMP JUMPDEST PUSH2 0x4A4 PUSH1 0x0 DUP2 JUMP JUMPDEST PUSH2 0x425 PUSH2 0x77F CALLDATASIZE PUSH1 0x4 PUSH2 0x4BAE JUMP JUMPDEST PUSH2 0x216F JUMP JUMPDEST PUSH2 0x5D1 PUSH2 0x21C9 JUMP JUMPDEST PUSH2 0x425 PUSH2 0x79A CALLDATASIZE PUSH1 0x4 PUSH2 0x4BAE JUMP JUMPDEST PUSH2 0x2229 JUMP JUMPDEST PUSH2 0x7B2 PUSH2 0x7AD CALLDATASIZE PUSH1 0x4 PUSH2 0x4BAE JUMP JUMPDEST PUSH2 0x2287 JUMP JUMPDEST PUSH1 0x40 MLOAD PUSH2 0x3E9 SWAP15 SWAP14 SWAP13 SWAP12 SWAP11 SWAP10 SWAP9 SWAP8 SWAP7 SWAP6 SWAP5 SWAP4 SWAP3 SWAP2 SWAP1 PUSH2 0x4EAC JUMP JUMPDEST PUSH2 0x805 PUSH2 0x7DA CALLDATASIZE PUSH1 0x4 PUSH2 0x4BAE JUMP JUMPDEST PUSH1 0xC PUSH1 0x20 MSTORE PUSH1 0x0 SWAP1 DUP2 MSTORE PUSH1 0x40 SWAP1 KECCAK256 DUP1 SLOAD PUSH1 0x1 DUP3 ADD SLOAD PUSH1 0x2 DUP4 ADD SLOAD PUSH1 0x3 SWAP1 SWAP4 ADD SLOAD PUSH1 0xFF SWAP1 SWAP3 AND SWAP3 SWAP1 SWAP2 DUP5 JUMP JUMPDEST PUSH1 0x40 DUP1 MLOAD SWAP5 ISZERO ISZERO DUP6 MSTORE PUSH1 0x20 DUP6 ADD SWAP4 SWAP1 SWAP4 MSTORE SWAP2 DUP4 ADD MSTORE PUSH1 0x60 DUP3 ADD MSTORE PUSH1 0x80 ADD PUSH2 0x3E9 JUMP JUMPDEST PUSH2 0x83A PUSH2 0x835 CALLDATASIZE PUSH1 0x4 PUSH2 0x4CDC JUMP JUMPDEST PUSH2 0x238E JUMP JUMPDEST PUSH1 0x40 MLOAD PUSH2 0x3E9 SWAP2 SWAP1 PUSH2 0x4F43 JUMP JUMPDEST PUSH2 0x3DD PUSH2 0x855 CALLDATASIZE PUSH1 0x4 PUSH2 0x4BAE JUMP JUMPDEST PUSH2 0x2428 JUMP JUMPDEST PUSH2 0x425 PUSH2 0x868 CALLDATASIZE PUSH1 0x4 PUSH2 0x495E JUMP JUMPDEST PUSH2 0x2491 JUMP JUMPDEST PUSH1 0x2 SLOAD PUSH2 0x617 SWAP1 PUSH1 0x1 PUSH1 0x1 PUSH1 0xA0 SHL SUB AND DUP2 JUMP JUMPDEST PUSH2 0x425 PUSH2 0x88E CALLDATASIZE PUSH1 0x4 PUSH2 0x4F56 JUMP JUMPDEST PUSH2 0x256E JUMP JUMPDEST PUSH2 0x8A6 PUSH2 0x8A1 CALLDATASIZE PUSH1 0x4 PUSH2 0x4BAE JUMP JUMPDEST PUSH2 0x260E JUMP JUMPDEST PUSH1 0x40 MLOAD PUSH2 0x3E9 SWAP2 SWAP1 DUP2 MLOAD ISZERO ISZERO DUP2 MSTORE PUSH1 0x20 DUP1 DUP4 ADD MLOAD SWAP1 DUP3 ADD MSTORE PUSH1 0x40 DUP1 DUP4 ADD MLOAD SWAP1 DUP3 ADD MSTORE PUSH1 0x60 SWAP2 DUP3 ADD MLOAD SWAP2 DUP2 ADD SWAP2 SWAP1 SWAP2 MSTORE PUSH1 0x80 ADD SWAP1 JUMP JUMPDEST PUSH2 0x3DD PUSH2 0x8E9 CALLDATASIZE PUSH1 0x4 PUSH2 0x4BAE JUMP JUMPDEST PUSH2 0x268E JUMP JUMPDEST PUSH2 0x425 PUSH2 0x8FC CALLDATASIZE PUSH1 0x4 PUSH2 0x4DDF JUMP JUMPDEST PUSH2 0x26EE JUMP JUMPDEST PUSH2 0x425 PUSH2 0x2714 JUMP JUMPDEST PUSH2 0x425 PUSH2 0x917 CALLDATASIZE PUSH1 0x4 PUSH2 0x4F8E JUMP JUMPDEST PUSH2 0x282B JUMP JUMPDEST PUSH2 0x425 PUSH2 0x92A CALLDATASIZE PUSH1 0x4 PUSH2 0x4CBA JUMP JUMPDEST PUSH2 0x29DE JUMP JUMPDEST PUSH2 0x425 PUSH2 0x93D CALLDATASIZE PUSH1 0x4 PUSH2 0x4BAE JUMP JUMPDEST PUSH2 0x2A13 JUMP JUMPDEST PUSH2 0x4A4 PUSH2 0x950 CALLDATASIZE PUSH1 0x4 PUSH2 0x4CDC JUMP JUMPDEST PUSH2 0x2A61 JUMP JUMPDEST PUSH2 0x425 PUSH2 0x963 CALLDATASIZE PUSH1 0x4 PUSH2 0x4E02 JUMP JUMPDEST PUSH2 0x2A75 JUMP JUMPDEST PUSH2 0x425 PUSH2 0x976 CALLDATASIZE PUSH1 0x4 PUSH2 0x4BAE JUMP JUMPDEST PUSH2 0x2AEE JUMP JUMPDEST PUSH2 0x425 PUSH2 0x989 CALLDATASIZE PUSH1 0x4 PUSH2 0x5024 JUMP JUMPDEST PUSH2 0x2B86 JUMP JUMPDEST PUSH2 0x425 PUSH2 0x99C CALLDATASIZE PUSH1 0x4 PUSH2 0x4E02 JUMP JUMPDEST PUSH2 0x2BE5 JUMP JUMPDEST PUSH2 0x617 PUSH2 0x9AF CALLDATASIZE PUSH1 0x4 PUSH2 0x4CDC JUMP JUMPDEST PUSH2 0x31AE JUMP JUMPDEST PUSH1 0x0 PUSH1 0x1 PUSH1 0x1 PUSH1 0xE0 SHL SUB NOT DUP3 AND PUSH4 0x7965DB0B PUSH1 0xE0 SHL EQ DUP1 PUSH2 0x9E5 JUMPI POP PUSH4 0x1FFC9A7 PUSH1 0xE0 SHL PUSH1 0x1 PUSH1 0x1 PUSH1 0xE0 SHL SUB NOT DUP4 AND EQ JUMPDEST SWAP3 SWAP2 POP POP JUMP JUMPDEST PUSH2 0xA34 PUSH1 0x40 MLOAD DUP1 PUSH1 0xE0 ADD PUSH1 0x40 MSTORE DUP1 PUSH1 0x0 DUP2 MSTORE PUSH1 0x20 ADD PUSH1 0x0 DUP2 MSTORE PUSH1 0x20 ADD PUSH1 0x0 PUSH1 0x1 PUSH1 0x1 PUSH1 0xA0 SHL SUB AND DUP2 MSTORE PUSH1 0x20 ADD PUSH1 0x60 DUP2 MSTORE PUSH1 0x20 ADD PUSH1 0x0 DUP2 MSTORE PUSH1 0x20 ADD PUSH1 0x0 DUP2 MSTORE PUSH1 0x20 ADD PUSH1 0x0 DUP2 MSTORE POP SWAP1 JUMP JUMPDEST PUSH1 0x1 PUSH1 0x1 PUSH1 0xA0 SHL SUB DUP1 DUP5 AND PUSH1 0x0 SWAP1 DUP2 MSTORE PUSH1 0xD PUSH1 0x20 SWAP1 DUP2 MSTORE PUSH1 0x40 DUP1 DUP4 KECCAK256 DUP7 DUP6 AND DUP5 MSTORE DUP3 MSTORE DUP1 DUP4 KECCAK256 DUP2 MLOAD PUSH1 0xE0 DUP2 ADD DUP4 MSTORE DUP2 SLOAD DUP2 MSTORE PUSH1 0x1 DUP3 ADD SLOAD DUP2 DUP6 ADD MSTORE PUSH1 0x2 DUP3 ADD SLOAD SWAP1 SWAP6 AND DUP6 DUP4 ADD MSTORE PUSH1 0x3 DUP2 ADD DUP1 SLOAD DUP4 MLOAD DUP2 DUP7 MUL DUP2 ADD DUP7 ADD SWAP1 SWAP5 MSTORE DUP1 DUP5 MSTORE SWAP2 SWAP5 PUSH1 0x60 DUP8 ADD SWAP5 SWAP2 SWAP3 SWAP2 DUP5 ADD JUMPDEST DUP3 DUP3 LT ISZERO PUSH2 0xC10 JUMPI PUSH1 0x0 DUP5 DUP2 MSTORE PUSH1 0x20 DUP1 DUP3 KECCAK256 PUSH1 0x40 DUP1 MLOAD PUSH2 0x180 DUP2 ADD DUP3 MSTORE PUSH1 0xD DUP8 MUL SWAP1 SWAP3 ADD DUP1 SLOAD DUP4 MSTORE PUSH1 0x1 DUP2 ADD SLOAD PUSH1 0x1 PUSH1 0x1 PUSH1 0xA0 SHL SUB SWAP1 DUP2 AND SWAP5 DUP5 ADD SWAP5 SWAP1 SWAP5 MSTORE PUSH1 0x2 DUP1 DUP3 ADD SLOAD DUP6 AND DUP5 DUP5 ADD MSTORE PUSH1 0x3 DUP3 ADD SLOAD PUSH1 0x60 DUP6 ADD MSTORE PUSH1 0x4 DUP3 ADD SLOAD PUSH1 0x80 DUP6 ADD MSTORE PUSH1 0x5 DUP3 ADD SLOAD SWAP1 SWAP5 AND PUSH1 0xA0 DUP5 ADD MSTORE PUSH1 0x6 DUP2 ADD SLOAD PUSH1 0xC0 DUP5 ADD MSTORE PUSH1 0x7 DUP2 ADD SLOAD PUSH1 0xE0 DUP5 ADD MSTORE PUSH1 0x8 DUP2 ADD SLOAD PUSH2 0x100 DUP5 ADD MSTORE DUP2 MLOAD DUP1 DUP4 ADD SWAP1 SWAP3 MSTORE SWAP2 SWAP4 SWAP2 SWAP3 PUSH2 0x120 DUP6 ADD SWAP3 PUSH1 0x9 DUP6 ADD SWAP2 SWAP1 DUP4 JUMPDEST DUP3 DUP3 LT ISZERO PUSH2 0xBE5 JUMPI DUP4 DUP3 ADD DUP1 SLOAD PUSH2 0xB58 SWAP1 PUSH2 0x5060 JUMP JUMPDEST DUP1 PUSH1 0x1F ADD PUSH1 0x20 DUP1 SWAP2 DIV MUL PUSH1 0x20 ADD PUSH1 0x40 MLOAD SWAP1 DUP2 ADD PUSH1 0x40 MSTORE DUP1 SWAP3 SWAP2 SWAP1 DUP2 DUP2 MSTORE PUSH1 0x20 ADD DUP3 DUP1 SLOAD PUSH2 0xB84 SWAP1 PUSH2 0x5060 JUMP JUMPDEST DUP1 ISZERO PUSH2 0xBD1 JUMPI DUP1 PUSH1 0x1F LT PUSH2 0xBA6 JUMPI PUSH2 0x100 DUP1 DUP4 SLOAD DIV MUL DUP4 MSTORE SWAP2 PUSH1 0x20 ADD SWAP2 PUSH2 0xBD1 JUMP JUMPDEST DUP3 ADD SWAP2 SWAP1 PUSH1 0x0 MSTORE PUSH1 0x20 PUSH1 0x0 KECCAK256 SWAP1 JUMPDEST DUP2 SLOAD DUP2 MSTORE SWAP1 PUSH1 0x1 ADD SWAP1 PUSH1 0x20 ADD DUP1 DUP4 GT PUSH2 0xBB4 JUMPI DUP3 SWAP1 SUB PUSH1 0x1F AND DUP3 ADD SWAP2 JUMPDEST POP POP POP POP POP DUP2 MSTORE PUSH1 0x20 ADD SWAP1 PUSH1 0x1 ADD SWAP1 PUSH2 0xB42 JUMP JUMPDEST POP POP POP POP DUP2 MSTORE PUSH1 0x20 ADD PUSH1 0xB DUP3 ADD SLOAD DUP2 MSTORE PUSH1 0x20 ADD PUSH1 0xC DUP3 ADD SLOAD DUP2 MSTORE POP POP DUP2 MSTORE PUSH1 0x20 ADD SWAP1 PUSH1 0x1 ADD SWAP1 PUSH2 0xA9D JUMP JUMPDEST POP POP POP POP DUP2 MSTORE PUSH1 0x20 ADD PUSH1 0x4 DUP3 ADD SLOAD DUP2 MSTORE PUSH1 0x20 ADD PUSH1 0x5 DUP3 ADD SLOAD DUP2 MSTORE PUSH1 0x20 ADD PUSH1 0x6 DUP3 ADD SLOAD DUP2 MSTORE POP POP SWAP1 POP SWAP3 SWAP2 POP POP JUMP JUMPDEST PUSH1 0x0 SLOAD PUSH1 0x1 PUSH1 0x1 PUSH1 0xA0 SHL SUB AND CALLER EQ PUSH2 0xC71 JUMPI PUSH1 0x40 MLOAD PUSH3 0x461BCD PUSH1 0xE5 SHL DUP2 MSTORE PUSH1 0x4 ADD PUSH2 0xC68 SWAP1 PUSH2 0x509A JUMP JUMPDEST PUSH1 0x40 MLOAD DUP1 SWAP2 SUB SWAP1 REVERT JUMPDEST PUSH2 0xC7A DUP2 PUSH2 0x2428 JUMP JUMPDEST PUSH2 0xC96 JUMPI PUSH1 0x40 MLOAD PUSH3 0x461BCD PUSH1 0xE5 SHL DUP2 MSTORE PUSH1 0x4 ADD PUSH2 0xC68 SWAP1 PUSH2 0x50CF JUMP JUMPDEST PUSH1 0x1 PUSH1 0x1 PUSH1 0xA0 SHL SUB AND PUSH1 0x0 SWAP1 DUP2 MSTORE PUSH1 0xA PUSH1 0x20 MSTORE PUSH1 0x40 SWAP1 KECCAK256 DUP1 SLOAD PUSH1 0xFF NOT AND PUSH1 0x1 OR SWAP1 SSTORE JUMP JUMPDEST PUSH2 0xCC7 CALLER DUP4 DUP4 PUSH1 0x1 PUSH2 0x31BE JUMP JUMPDEST POP POP POP JUMP JUMPDEST PUSH2 0xD54 PUSH1 0x40 MLOAD DUP1 PUSH2 0x1C0 ADD PUSH1 0x40 MSTORE DUP1 PUSH1 0x0 ISZERO ISZERO DUP2 MSTORE PUSH1 0x20 ADD PUSH1 0x0 ISZERO ISZERO DUP2 MSTORE PUSH1 0x20 ADD PUSH1 0x60 DUP2 MSTORE PUSH1 0x20 ADD PUSH1 0x0 DUP2 MSTORE PUSH1 0x20 ADD PUSH1 0x0 DUP2 MSTORE PUSH1 0x20 ADD PUSH1 0x0 DUP2 MSTORE PUSH1 0x20 ADD PUSH1 0x0 DUP2 MSTORE PUSH1 0x20 ADD PUSH1 0x0 DUP2 MSTORE PUSH1 0x20 ADD PUSH1 0x0 DUP2 MSTORE PUSH1 0x20 ADD PUSH1 0x0 DUP2 MSTORE PUSH1 0x20 ADD PUSH1 0x0 PUSH1 0x1 PUSH1 0x1 PUSH1 0xA0 SHL SUB AND DUP2 MSTORE PUSH1 0x20 ADD PUSH1 0x0 PUSH1 0x1 PUSH1 0x1 PUSH1 0xA0 SHL SUB AND DUP2 MSTORE PUSH1 0x20 ADD PUSH1 0x0 DUP2 MSTORE PUSH1 0x20 ADD PUSH1 0x0 DUP2 MSTORE POP SWAP1 JUMP JUMPDEST PUSH1 0x1 PUSH1 0x1 PUSH1 0xA0 SHL SUB DUP3 AND PUSH1 0x0 SWAP1 DUP2 MSTORE PUSH1 0xA PUSH1 0x20 SWAP1 DUP2 MSTORE PUSH1 0x40 SWAP2 DUP3 SWAP1 KECCAK256 DUP3 MLOAD PUSH2 0x1C0 DUP2 ADD DUP5 MSTORE DUP2 SLOAD PUSH1 0xFF DUP1 DUP3 AND ISZERO ISZERO DUP4 MSTORE PUSH2 0x100 SWAP1 SWAP2 DIV AND ISZERO ISZERO SWAP3 DUP2 ADD SWAP3 SWAP1 SWAP3 MSTORE PUSH1 0x1 DUP2 ADD DUP1 SLOAD SWAP3 SWAP4 SWAP2 SWAP3 SWAP2 DUP5 ADD SWAP2 PUSH2 0xDAB SWAP1 PUSH2 0x5060 JUMP JUMPDEST DUP1 PUSH1 0x1F ADD PUSH1 0x20 DUP1 SWAP2 DIV MUL PUSH1 0x20 ADD PUSH1 0x40 MLOAD SWAP1 DUP2 ADD PUSH1 0x40 MSTORE DUP1 SWAP3 SWAP2 SWAP1 DUP2 DUP2 MSTORE PUSH1 0x20 ADD DUP3 DUP1 SLOAD PUSH2 0xDD7 SWAP1 PUSH2 0x5060 JUMP JUMPDEST DUP1 ISZERO PUSH2 0xE24 JUMPI DUP1 PUSH1 0x1F LT PUSH2 0xDF9 JUMPI PUSH2 0x100 DUP1 DUP4 SLOAD DIV MUL DUP4 MSTORE SWAP2 PUSH1 0x20 ADD SWAP2 PUSH2 0xE24 JUMP JUMPDEST DUP3 ADD SWAP2 SWAP1 PUSH1 0x0 MSTORE PUSH1 0x20 PUSH1 0x0 KECCAK256 SWAP1 JUMPDEST DUP2 SLOAD DUP2 MSTORE SWAP1 PUSH1 0x1 ADD SWAP1 PUSH1 0x20 ADD DUP1 DUP4 GT PUSH2 0xE07 JUMPI DUP3 SWAP1 SUB PUSH1 0x1F AND DUP3 ADD SWAP2 JUMPDEST POP POP POP SWAP2 DUP4 MSTORE POP POP PUSH1 0x2 DUP3 ADD SLOAD PUSH1 0x20 DUP3 ADD MSTORE PUSH1 0x3 DUP3 ADD SLOAD PUSH1 0x40 DUP3 ADD MSTORE PUSH1 0x4 DUP3 ADD SLOAD PUSH1 0x60 DUP3 ADD MSTORE PUSH1 0x5 DUP3 ADD SLOAD PUSH1 0x80 DUP3 ADD MSTORE PUSH1 0x6 DUP3 ADD SLOAD PUSH1 0xA0 DUP3 ADD MSTORE PUSH1 0x7 DUP3 ADD SLOAD PUSH1 0xC0 DUP3 ADD MSTORE PUSH1 0x8 DUP3 ADD SLOAD PUSH1 0xE0 DUP3 ADD MSTORE PUSH1 0x9 DUP3 ADD SLOAD PUSH1 0x1 PUSH1 0x1 PUSH1 0xA0 SHL SUB SWAP1 DUP2 AND PUSH2 0x100 DUP4 ADD MSTORE PUSH1 0xA DUP4 ADD SLOAD AND PUSH2 0x120 DUP3 ADD MSTORE PUSH1 0xB DUP3 ADD SLOAD PUSH2 0x140 DUP3 ADD MSTORE PUSH1 0xC SWAP1 SWAP2 ADD SLOAD PUSH2 0x160 SWAP1 SWAP2 ADD MSTORE SWAP3 SWAP2 POP POP JUMP JUMPDEST PUSH1 0x0 SLOAD PUSH1 0x1 PUSH1 0x1 PUSH1 0xA0 SHL SUB AND CALLER EQ PUSH2 0xEDC JUMPI PUSH1 0x40 MLOAD PUSH3 0x461BCD PUSH1 0xE5 SHL DUP2 MSTORE PUSH1 0x4 ADD PUSH2 0xC68 SWAP1 PUSH2 0x509A JUMP JUMPDEST PUSH1 0x1 PUSH1 0x1 PUSH1 0xA0 SHL SUB AND PUSH1 0x0 SWAP1 DUP2 MSTORE PUSH1 0x7 PUSH1 0x20 MSTORE PUSH1 0x40 SWAP1 KECCAK256 DUP1 SLOAD PUSH1 0xFF NOT AND SWAP1 SSTORE JUMP JUMPDEST PUSH1 0x0 SLOAD PUSH1 0x1 PUSH1 0x1 PUSH1 0xA0 SHL SUB AND CALLER EQ PUSH2 0xF27 JUMPI PUSH1 0x40 MLOAD PUSH3 0x461BCD PUSH1 0xE5 SHL DUP2 MSTORE PUSH1 0x4 ADD PUSH2 0xC68 SWAP1 PUSH2 0x509A JUMP JUMPDEST PUSH1 0x5 SWAP2 SWAP1 SWAP2 SSTORE PUSH1 0x6 SSTORE JUMP JUMPDEST PUSH1 0x0 SLOAD PUSH1 0x1 PUSH1 0x1 PUSH1 0xA0 SHL SUB AND CALLER EQ PUSH2 0xF5C JUMPI PUSH1 0x40 MLOAD PUSH3 0x461BCD PUSH1 0xE5 SHL DUP2 MSTORE PUSH1 0x4 ADD PUSH2 0xC68 SWAP1 PUSH2 0x509A JUMP JUMPDEST PUSH1 0x0 DUP3 DUP2 MSTORE PUSH1 0x8 PUSH1 0x20 SWAP1 DUP2 MSTORE PUSH1 0x40 SWAP1 SWAP2 KECCAK256 DUP3 MLOAD PUSH2 0xCC7 SWAP3 DUP5 ADD SWAP1 PUSH2 0x4733 JUMP JUMPDEST PUSH1 0x0 DUP3 DUP2 MSTORE PUSH1 0x1 PUSH1 0x20 DUP2 SWAP1 MSTORE PUSH1 0x40 SWAP1 SWAP2 KECCAK256 ADD SLOAD PUSH2 0xF97 DUP2 PUSH2 0x33DA JUMP JUMPDEST PUSH2 0xCC7 DUP4 DUP4 PUSH2 0x33E4 JUMP JUMPDEST PUSH2 0xFAA DUP3 PUSH2 0x1F9B JUMP JUMPDEST PUSH2 0xFB3 DUP2 PUSH2 0x33DA JUMP JUMPDEST PUSH2 0xFBC DUP4 PUSH2 0x2428 JUMP JUMPDEST PUSH2 0xFD8 JUMPI PUSH1 0x40 MLOAD PUSH3 0x461BCD PUSH1 0xE5 SHL DUP2 MSTORE PUSH1 0x4 ADD PUSH2 0xC68 SWAP1 PUSH2 0x50CF JUMP JUMPDEST PUSH1 0x0 DUP3 GT PUSH2 0xFF8 JUMPI PUSH1 0x40 MLOAD PUSH3 0x461BCD PUSH1 0xE5 SHL DUP2 MSTORE PUSH1 0x4 ADD PUSH2 0xC68 SWAP1 PUSH2 0x50FE JUMP JUMPDEST DUP2 PUSH1 0x1 PUSH1 0x1 PUSH1 0xA0 SHL SUB DUP5 AND PUSH4 0x70A08231 CALLER PUSH1 0x40 MLOAD PUSH1 0x1 PUSH1 0x1 PUSH1 0xE0 SHL SUB NOT PUSH1 0xE0 DUP5 SWAP1 SHL AND DUP2 MSTORE PUSH1 0x1 PUSH1 0x1 PUSH1 0xA0 SHL SUB SWAP1 SWAP2 AND PUSH1 0x4 DUP3 ADD MSTORE PUSH1 0x24 ADD PUSH1 0x20 PUSH1 0x40 MLOAD DUP1 DUP4 SUB DUP2 DUP7 GAS STATICCALL ISZERO DUP1 ISZERO PUSH2 0x104D JUMPI RETURNDATASIZE PUSH1 0x0 DUP1 RETURNDATACOPY RETURNDATASIZE PUSH1 0x0 REVERT JUMPDEST POP POP POP POP PUSH1 0x40 MLOAD RETURNDATASIZE PUSH1 0x1F NOT PUSH1 0x1F DUP3 ADD AND DUP3 ADD DUP1 PUSH1 0x40 MSTORE POP DUP2 ADD SWAP1 PUSH2 0x1071 SWAP2 SWAP1 PUSH2 0x513F JUMP JUMPDEST LT ISZERO PUSH2 0x10BF JUMPI PUSH1 0x40 MLOAD PUSH3 0x461BCD PUSH1 0xE5 SHL DUP2 MSTORE PUSH1 0x20 PUSH1 0x4 DUP3 ADD MSTORE PUSH1 0x1C PUSH1 0x24 DUP3 ADD MSTORE PUSH32 0x496E73756666696369656E742077616C6C65742062616C616E63652E00000000 PUSH1 0x44 DUP3 ADD MSTORE PUSH1 0x64 ADD PUSH2 0xC68 JUMP JUMPDEST PUSH1 0x1 PUSH1 0x1 PUSH1 0xA0 SHL SUB DUP4 AND PUSH4 0x23B872DD CALLER PUSH1 0x40 MLOAD PUSH1 0x1 PUSH1 0x1 PUSH1 0xE0 SHL SUB NOT PUSH1 0xE0 DUP5 SWAP1 SHL AND DUP2 MSTORE PUSH1 0x1 PUSH1 0x1 PUSH1 0xA0 SHL SUB SWAP1 SWAP2 AND PUSH1 0x4 DUP3 ADD MSTORE ADDRESS PUSH1 0x24 DUP3 ADD MSTORE PUSH1 0x44 DUP2 ADD DUP6 SWAP1 MSTORE PUSH1 0x64 ADD PUSH1 0x20 PUSH1 0x40 MLOAD DUP1 DUP4 SUB DUP2 PUSH1 0x0 DUP8 GAS CALL ISZERO DUP1 ISZERO PUSH2 0x1122 JUMPI RETURNDATASIZE PUSH1 0x0 DUP1 RETURNDATACOPY RETURNDATASIZE PUSH1 0x0 REVERT JUMPDEST POP POP POP POP PUSH1 0x40 MLOAD RETURNDATASIZE PUSH1 0x1F NOT PUSH1 0x1F DUP3 ADD AND DUP3 ADD DUP1 PUSH1 0x40 MSTORE POP DUP2 ADD SWAP1 PUSH2 0x1146 SWAP2 SWAP1 PUSH2 0x5158 JUMP JUMPDEST POP PUSH1 0x1 PUSH1 0x1 PUSH1 0xA0 SHL SUB DUP4 AND PUSH1 0x0 SWAP1 DUP2 MSTORE PUSH1 0xA PUSH1 0x20 MSTORE PUSH1 0x40 DUP2 KECCAK256 PUSH1 0x4 ADD DUP1 SLOAD DUP5 SWAP3 SWAP1 PUSH2 0x1172 SWAP1 DUP5 SWAP1 PUSH2 0x5190 JUMP JUMPDEST SWAP1 SWAP2 SSTORE POP POP POP POP POP JUMP JUMPDEST PUSH1 0x1 PUSH1 0x1 PUSH1 0xA0 SHL SUB DUP2 AND PUSH1 0x0 SWAP1 DUP2 MSTORE PUSH1 0xA PUSH1 0x20 MSTORE PUSH1 0x40 DUP2 KECCAK256 PUSH1 0x3 DUP2 ADD SLOAD PUSH1 0x4 SWAP1 SWAP2 ADD SLOAD PUSH2 0x9E5 SWAP2 SWAP1 PUSH2 0x51A8 JUMP JUMPDEST PUSH1 0x1 PUSH1 0x1 PUSH1 0xA0 SHL SUB DUP2 AND CALLER EQ PUSH2 0x1219 JUMPI PUSH1 0x40 MLOAD PUSH3 0x461BCD PUSH1 0xE5 SHL DUP2 MSTORE PUSH1 0x20 PUSH1 0x4 DUP3 ADD MSTORE PUSH1 0x2F PUSH1 0x24 DUP3 ADD MSTORE PUSH32 0x416363657373436F6E74726F6C3A2063616E206F6E6C792072656E6F756E6365 PUSH1 0x44 DUP3 ADD MSTORE PUSH15 0x103937B632B9903337B91039B2B633 PUSH1 0x89 SHL PUSH1 0x64 DUP3 ADD MSTORE PUSH1 0x84 ADD PUSH2 0xC68 JUMP JUMPDEST PUSH2 0x1223 DUP3 DUP3 PUSH2 0x344F JUMP JUMPDEST POP POP JUMP JUMPDEST PUSH1 0x0 SLOAD PUSH1 0x1 PUSH1 0x1 PUSH1 0xA0 SHL SUB AND CALLER EQ PUSH2 0x1251 JUMPI PUSH1 0x40 MLOAD PUSH3 0x461BCD PUSH1 0xE5 SHL DUP2 MSTORE PUSH1 0x4 ADD PUSH2 0xC68 SWAP1 PUSH2 0x509A JUMP JUMPDEST PUSH2 0x125A DUP3 PUSH2 0x2428 JUMP JUMPDEST PUSH2 0x1276 JUMPI PUSH1 0x40 MLOAD PUSH3 0x461BCD PUSH1 0xE5 SHL DUP2 MSTORE PUSH1 0x4 ADD PUSH2 0xC68 SWAP1 PUSH2 0x50CF JUMP JUMPDEST PUSH1 0x1 PUSH1 0x1 PUSH1 0xA0 SHL SUB SWAP1 SWAP2 AND PUSH1 0x0 SWAP1 DUP2 MSTORE PUSH1 0xA PUSH1 0x20 MSTORE PUSH1 0x40 SWAP1 KECCAK256 PUSH1 0x3 DUP2 ADD SWAP2 SWAP1 SWAP2 SSTORE TIMESTAMP PUSH1 0xC SWAP1 SWAP2 ADD SSTORE JUMP JUMPDEST PUSH1 0x60 PUSH1 0xB DUP1 SLOAD DUP1 PUSH1 0x20 MUL PUSH1 0x20 ADD PUSH1 0x40 MLOAD SWAP1 DUP2 ADD PUSH1 0x40 MSTORE DUP1 SWAP3 SWAP2 SWAP1 DUP2 DUP2 MSTORE PUSH1 0x20 ADD DUP3 DUP1 SLOAD DUP1 ISZERO PUSH2 0x12F8 JUMPI PUSH1 0x20 MUL DUP3 ADD SWAP2 SWAP1 PUSH1 0x0 MSTORE PUSH1 0x20 PUSH1 0x0 KECCAK256 SWAP1 JUMPDEST DUP2 SLOAD PUSH1 0x1 PUSH1 0x1 PUSH1 0xA0 SHL SUB AND DUP2 MSTORE PUSH1 0x1 SWAP1 SWAP2 ADD SWAP1 PUSH1 0x20 ADD DUP1 DUP4 GT PUSH2 0x12DA JUMPI JUMPDEST POP POP POP POP POP SWAP1 POP SWAP1 JUMP JUMPDEST PUSH1 0x0 SLOAD PUSH1 0x1 PUSH1 0x1 PUSH1 0xA0 SHL SUB AND CALLER EQ PUSH2 0x132C JUMPI PUSH1 0x40 MLOAD PUSH3 0x461BCD PUSH1 0xE5 SHL DUP2 MSTORE PUSH1 0x4 ADD PUSH2 0xC68 SWAP1 PUSH2 0x509A JUMP JUMPDEST PUSH2 0x1335 DUP3 PUSH2 0x2428 JUMP JUMPDEST PUSH2 0x1351 JUMPI PUSH1 0x40 MLOAD PUSH3 0x461BCD PUSH1 0xE5 SHL DUP2 MSTORE PUSH1 0x4 ADD PUSH2 0xC68 SWAP1 PUSH2 0x50CF JUMP JUMPDEST PUSH1 0x3 SLOAD DUP2 LT ISZERO DUP1 ISZERO PUSH2 0x1365 JUMPI POP PUSH1 0x4 SLOAD DUP2 GT ISZERO JUMPDEST PUSH2 0x1370 PUSH1 0x3 SLOAD PUSH2 0x2A61 JUMP JUMPDEST PUSH2 0x137B PUSH1 0x4 SLOAD PUSH2 0x2A61 JUMP JUMPDEST PUSH1 0x40 MLOAD PUSH32 0x5374616B6520666565206D757374206265206265747765656E00000000000000 PUSH1 0x20 DUP3 ADD MSTORE PUSH1 0x39 DUP2 ADD SWAP3 SWAP1 SWAP3 MSTORE PUSH3 0x185B99 PUSH1 0xEA SHL PUSH1 0x59 DUP4 ADD MSTORE PUSH1 0x5C DUP3 ADD MSTORE PUSH1 0x17 PUSH1 0xF9 SHL PUSH1 0x7C DUP3 ADD MSTORE PUSH1 0x7D ADD PUSH1 0x40 MLOAD PUSH1 0x20 DUP2 DUP4 SUB SUB DUP2 MSTORE SWAP1 PUSH1 0x40 MSTORE SWAP1 PUSH2 0x13F7 JUMPI PUSH1 0x40 MLOAD PUSH3 0x461BCD PUSH1 0xE5 SHL DUP2 MSTORE PUSH1 0x4 ADD PUSH2 0xC68 SWAP2 SWAP1 PUSH2 0x4F43 JUMP JUMPDEST POP PUSH1 0x1 PUSH1 0x1 PUSH1 0xA0 SHL SUB SWAP1 SWAP2 AND PUSH1 0x0 SWAP1 DUP2 MSTORE PUSH1 0xA PUSH1 0x20 MSTORE PUSH1 0x40 SWAP1 KECCAK256 PUSH1 0x6 DUP2 ADD SWAP2 SWAP1 SWAP2 SSTORE TIMESTAMP PUSH1 0xC SWAP1 SWAP2 ADD SSTORE JUMP JUMPDEST PUSH1 0x0 SLOAD PUSH1 0x1 PUSH1 0x1 PUSH1 0xA0 SHL SUB AND CALLER EQ PUSH2 0x144C JUMPI PUSH1 0x40 MLOAD PUSH3 0x461BCD PUSH1 0xE5 SHL DUP2 MSTORE PUSH1 0x4 ADD PUSH2 0xC68 SWAP1 PUSH2 0x509A JUMP JUMPDEST PUSH2 0x1455 DUP3 PUSH2 0x2428 JUMP JUMPDEST PUSH2 0x1471 JUMPI PUSH1 0x40 MLOAD PUSH3 0x461BCD PUSH1 0xE5 SHL DUP2 MSTORE PUSH1 0x4 ADD PUSH2 0xC68 SWAP1 PUSH2 0x50CF JUMP JUMPDEST PUSH1 0x0 DUP1 SLOAD PUSH1 0x1 PUSH1 0x1 PUSH1 0xA0 SHL SUB DUP5 DUP2 AND DUP4 MSTORE PUSH1 0xA PUSH1 0x20 DUP2 SWAP1 MSTORE PUSH1 0x40 SWAP1 SWAP4 KECCAK256 SWAP1 SWAP3 ADD SLOAD DUP3 AND SWAP2 AND EQ PUSH2 0x14CB JUMPI PUSH2 0x14CB PUSH2 0x14A7 DUP4 PUSH2 0x1F9B JUMP JUMPDEST PUSH1 0x1 PUSH1 0x1 PUSH1 0xA0 SHL SUB DUP1 DUP6 AND PUSH1 0x0 SWAP1 DUP2 MSTORE PUSH1 0xA PUSH1 0x20 DUP2 SWAP1 MSTORE PUSH1 0x40 SWAP1 SWAP2 KECCAK256 ADD SLOAD AND PUSH2 0x26EE JUMP JUMPDEST PUSH1 0x1 PUSH1 0x1 PUSH1 0xA0 SHL SUB DUP3 DUP2 AND PUSH1 0x0 SWAP1 DUP2 MSTORE PUSH1 0xA PUSH1 0x20 DUP2 SWAP1 MSTORE PUSH1 0x40 SWAP1 SWAP2 KECCAK256 SWAP1 DUP2 ADD DUP1 SLOAD PUSH1 0x1 PUSH1 0x1 PUSH1 0xA0 SHL SUB NOT AND SWAP3 DUP5 AND SWAP3 SWAP1 SWAP3 OR SWAP1 SWAP2 SSTORE TIMESTAMP PUSH1 0xC SWAP1 SWAP2 ADD SSTORE PUSH2 0x1223 PUSH2 0x1513 DUP4 PUSH2 0x1F9B JUMP JUMPDEST PUSH1 0x1 PUSH1 0x1 PUSH1 0xA0 SHL SUB DUP1 DUP6 AND PUSH1 0x0 SWAP1 DUP2 MSTORE PUSH1 0xA PUSH1 0x20 DUP2 SWAP1 MSTORE PUSH1 0x40 SWAP1 SWAP2 KECCAK256 ADD SLOAD AND PUSH2 0xF7B JUMP JUMPDEST PUSH1 0x9 DUP2 DUP2 SLOAD DUP2 LT PUSH2 0x1547 JUMPI PUSH1 0x0 DUP1 REVERT JUMPDEST PUSH1 0x0 SWAP2 DUP3 MSTORE PUSH1 0x20 SWAP1 SWAP2 KECCAK256 ADD SLOAD PUSH1 0x1 PUSH1 0x1 PUSH1 0xA0 SHL SUB AND SWAP1 POP DUP2 JUMP JUMPDEST PUSH1 0x0 SLOAD PUSH1 0x1 PUSH1 0x1 PUSH1 0xA0 SHL SUB AND CALLER EQ PUSH2 0x158B JUMPI PUSH1 0x40 MLOAD PUSH3 0x461BCD PUSH1 0xE5 SHL DUP2 MSTORE PUSH1 0x4 ADD PUSH2 0xC68 SWAP1 PUSH2 0x509A JUMP JUMPDEST PUSH2 0x1594 DUP3 PUSH2 0x2428 JUMP JUMPDEST PUSH2 0x15B0 JUMPI PUSH1 0x40 MLOAD PUSH3 0x461BCD PUSH1 0xE5 SHL DUP2 MSTORE PUSH1 0x4 ADD PUSH2 0xC68 SWAP1 PUSH2 0x50CF JUMP JUMPDEST PUSH1 0x3 SLOAD DUP2 LT ISZERO DUP1 ISZERO PUSH2 0x15C4 JUMPI POP PUSH1 0x4 SLOAD DUP2 GT ISZERO JUMPDEST PUSH2 0x15CF PUSH1 0x3 SLOAD PUSH2 0x2A61 JUMP JUMPDEST PUSH2 0x15DA PUSH1 0x4 SLOAD PUSH2 0x2A61 JUMP JUMPDEST PUSH1 0x40 MLOAD PUSH32 0x556E7374616B6520666565206D757374206265206265747765656E0000000000 PUSH1 0x20 DUP3 ADD MSTORE PUSH1 0x3B DUP2 ADD SWAP3 SWAP1 SWAP3 MSTORE PUSH3 0x185B99 PUSH1 0xEA SHL PUSH1 0x5B DUP4 ADD MSTORE PUSH1 0x5E DUP3 ADD MSTORE PUSH1 0x17 PUSH1 0xF9 SHL PUSH1 0x7E DUP3 ADD MSTORE PUSH1 0x7F ADD PUSH1 0x40 MLOAD PUSH1 0x20 DUP2 DUP4 SUB SUB DUP2 MSTORE SWAP1 PUSH1 0x40 MSTORE SWAP1 PUSH2 0x1656 JUMPI PUSH1 0x40 MLOAD PUSH3 0x461BCD PUSH1 0xE5 SHL DUP2 MSTORE PUSH1 0x4 ADD PUSH2 0xC68 SWAP2 SWAP1 PUSH2 0x4F43 JUMP JUMPDEST POP PUSH1 0x1 PUSH1 0x1 PUSH1 0xA0 SHL SUB SWAP1 SWAP2 AND PUSH1 0x0 SWAP1 DUP2 MSTORE PUSH1 0xA PUSH1 0x20 MSTORE PUSH1 0x40 SWAP1 KECCAK256 PUSH1 0x7 DUP2 ADD SWAP2 SWAP1 SWAP2 SSTORE TIMESTAMP PUSH1 0xC SWAP1 SWAP2 ADD SSTORE JUMP JUMPDEST PUSH2 0x168A DUP3 PUSH2 0x2428 JUMP JUMPDEST PUSH2 0x16D6 JUMPI PUSH1 0x40 MLOAD PUSH3 0x461BCD PUSH1 0xE5 SHL DUP2 MSTORE PUSH1 0x20 PUSH1 0x4 DUP3 ADD MSTORE PUSH1 0x1C PUSH1 0x24 DUP3 ADD MSTORE PUSH32 0x52657761726420746F6B656E20646F6573206E6F742065786973742E00000000 PUSH1 0x44 DUP3 ADD MSTORE PUSH1 0x64 ADD PUSH2 0xC68 JUMP JUMPDEST PUSH1 0x0 DUP2 GT PUSH2 0x16F6 JUMPI PUSH1 0x40 MLOAD PUSH3 0x461BCD PUSH1 0xE5 SHL DUP2 MSTORE PUSH1 0x4 ADD PUSH2 0xC68 SWAP1 PUSH2 0x50FE JUMP JUMPDEST PUSH1 0x1 PUSH1 0x1 PUSH1 0xA0 SHL SUB DUP3 AND PUSH1 0x0 SWAP1 DUP2 MSTORE PUSH1 0xD PUSH1 0x20 SWAP1 DUP2 MSTORE PUSH1 0x40 DUP1 DUP4 KECCAK256 CALLER DUP5 MSTORE SWAP1 SWAP2 MSTORE SWAP1 KECCAK256 SLOAD DUP2 GT ISZERO PUSH2 0x1769 JUMPI PUSH1 0x40 MLOAD PUSH3 0x461BCD PUSH1 0xE5 SHL DUP2 MSTORE PUSH1 0x20 PUSH1 0x4 DUP3 ADD MSTORE PUSH1 0x1C PUSH1 0x24 DUP3 ADD MSTORE PUSH32 0x496E73756666696369656E74207265776172642062616C616E63652E00000000 PUSH1 0x44 DUP3 ADD MSTORE PUSH1 0x64 ADD PUSH2 0xC68 JUMP JUMPDEST PUSH1 0x1 PUSH1 0x1 PUSH1 0xA0 SHL SUB DUP3 AND PUSH1 0x0 SWAP1 DUP2 MSTORE PUSH1 0xD PUSH1 0x20 SWAP1 DUP2 MSTORE PUSH1 0x40 DUP1 DUP4 KECCAK256 CALLER DUP5 MSTORE SWAP1 SWAP2 MSTORE DUP2 KECCAK256 DUP1 SLOAD DUP4 SWAP3 SWAP1 PUSH2 0x179C SWAP1 DUP5 SWAP1 PUSH2 0x51C7 JUMP JUMPDEST SWAP1 SWAP2 SSTORE POP POP PUSH1 0x1 PUSH1 0x1 PUSH1 0xA0 SHL SUB DUP3 AND PUSH1 0x0 DUP2 DUP2 MSTORE PUSH1 0xD PUSH1 0x20 SWAP1 DUP2 MSTORE PUSH1 0x40 DUP1 DUP4 KECCAK256 CALLER DUP1 DUP6 MSTORE SWAP3 MSTORE SWAP1 SWAP2 KECCAK256 TIMESTAMP PUSH1 0x6 SWAP1 SWAP2 ADD SSTORE PUSH4 0xA9059CBB SWAP1 PUSH1 0x40 MLOAD PUSH1 0x1 PUSH1 0x1 PUSH1 0xE0 SHL SUB NOT PUSH1 0xE0 DUP5 SWAP1 SHL AND DUP2 MSTORE PUSH1 0x1 PUSH1 0x1 PUSH1 0xA0 SHL SUB SWAP1 SWAP2 AND PUSH1 0x4 DUP3 ADD MSTORE PUSH1 0x24 DUP2 ADD DUP5 SWAP1 MSTORE PUSH1 0x44 ADD PUSH1 0x20 PUSH1 0x40 MLOAD DUP1 DUP4 SUB DUP2 PUSH1 0x0 DUP8 GAS CALL ISZERO DUP1 ISZERO PUSH2 0x181F JUMPI RETURNDATASIZE PUSH1 0x0 DUP1 RETURNDATACOPY RETURNDATASIZE PUSH1 0x0 REVERT JUMPDEST POP POP POP POP PUSH1 0x40 MLOAD RETURNDATASIZE PUSH1 0x1F NOT PUSH1 0x1F DUP3 ADD AND DUP3 ADD DUP1 PUSH1 0x40 MSTORE POP DUP2 ADD SWAP1 PUSH2 0x1843 SWAP2 SWAP1 PUSH2 0x5158 JUMP JUMPDEST POP PUSH1 0x40 MLOAD DUP2 DUP2 MSTORE PUSH1 0x1 PUSH1 0x1 PUSH1 0xA0 SHL SUB DUP4 AND SWAP1 CALLER SWAP1 PUSH32 0x720DB5561318ADBD9CBE874FB87168241F3E2D2B7961EC09027B908FFBD4526D SWAP1 PUSH1 0x20 ADD PUSH1 0x40 MLOAD DUP1 SWAP2 SUB SWAP1 LOG3 POP POP JUMP JUMPDEST PUSH1 0x0 PUSH2 0x9E5 DUP3 PUSH8 0xDE0B6B3A7640000 PUSH2 0x51A8 JUMP JUMPDEST PUSH1 0x0 SLOAD PUSH1 0x1 PUSH1 0x1 PUSH1 0xA0 SHL SUB AND CALLER EQ PUSH2 0x18C6 JUMPI PUSH1 0x40 MLOAD PUSH3 0x461BCD PUSH1 0xE5 SHL DUP2 MSTORE PUSH1 0x4 ADD PUSH2 0xC68 SWAP1 PUSH2 0x509A JUMP JUMPDEST PUSH2 0x18D0 DUP4 DUP4 PUSH2 0x1302 JUMP JUMPDEST PUSH2 0xCC7 DUP4 DUP3 PUSH2 0x1561 JUMP JUMPDEST PUSH1 0x0 SLOAD PUSH1 0x1 PUSH1 0x1 PUSH1 0xA0 SHL SUB AND CALLER EQ PUSH2 0x1904 JUMPI PUSH1 0x40 MLOAD PUSH3 0x461BCD PUSH1 0xE5 SHL DUP2 MSTORE PUSH1 0x4 ADD PUSH2 0xC68 SWAP1 PUSH2 0x509A JUMP JUMPDEST PUSH2 0x190D DUP2 PUSH2 0x2428 JUMP JUMPDEST PUSH2 0x1929 JUMPI PUSH1 0x40 MLOAD PUSH3 0x461BCD PUSH1 0xE5 SHL DUP2 MSTORE PUSH1 0x4 ADD PUSH2 0xC68 SWAP1 PUSH2 0x50CF JUMP JUMPDEST PUSH1 0x1 PUSH1 0x1 PUSH1 0xA0 SHL SUB AND PUSH1 0x0 SWAP1 DUP2 MSTORE PUSH1 0xA PUSH1 0x20 MSTORE PUSH1 0x40 SWAP1 KECCAK256 DUP1 SLOAD PUSH1 0xFF NOT AND SWAP1 SSTORE JUMP JUMPDEST PUSH2 0x1953 DUP3 PUSH2 0x2428 JUMP JUMPDEST PUSH2 0x196F JUMPI PUSH1 0x40 MLOAD PUSH3 0x461BCD PUSH1 0xE5 SHL DUP2 MSTORE PUSH1 0x4 ADD PUSH2 0xC68 SWAP1 PUSH2 0x50CF JUMP JUMPDEST PUSH1 0x0 DUP2 GT PUSH2 0x198F JUMPI PUSH1 0x40 MLOAD PUSH3 0x461BCD PUSH1 0xE5 SHL DUP2 MSTORE PUSH1 0x4 ADD PUSH2 0xC68 SWAP1 PUSH2 0x50FE JUMP JUMPDEST PUSH1 0x1 PUSH1 0x1 PUSH1 0xA0 SHL SUB DUP3 AND PUSH1 0x0 SWAP1 DUP2 MSTORE PUSH1 0xD PUSH1 0x20 SWAP1 DUP2 MSTORE PUSH1 0x40 DUP1 DUP4 KECCAK256 CALLER DUP5 MSTORE SWAP1 SWAP2 MSTORE SWAP1 KECCAK256 PUSH1 0x1 ADD SLOAD DUP2 GT ISZERO PUSH2 0x1A05 JUMPI PUSH1 0x40 MLOAD PUSH3 0x461BCD PUSH1 0xE5 SHL DUP2 MSTORE PUSH1 0x20 PUSH1 0x4 DUP3 ADD MSTORE PUSH1 0x1D PUSH1 0x24 DUP3 ADD MSTORE PUSH32 0x496E73756666696369656E74207374616B696E672062616C616E63652E000000 PUSH1 0x44 DUP3 ADD MSTORE PUSH1 0x64 ADD PUSH2 0xC68 JUMP JUMPDEST PUSH2 0x1A4B DUP3 CALLER PUSH1 0x40 DUP1 MLOAD PUSH1 0x80 DUP2 ADD DUP3 MSTORE PUSH1 0x7 SWAP2 DUP2 ADD SWAP2 DUP3 MSTORE PUSH7 0x756E7374616B65 PUSH1 0xC8 SHL PUSH1 0x60 DUP3 ADD MSTORE SWAP1 DUP2 MSTORE PUSH1 0x20 DUP2 ADD PUSH2 0x1A44 PUSH2 0x1A3F DUP8 PUSH2 0x2A61 JUMP JUMPDEST PUSH2 0x34B6 JUMP JUMPDEST SWAP1 MSTORE PUSH2 0x35BF JUMP JUMPDEST PUSH1 0x1 PUSH1 0x1 PUSH1 0xA0 SHL SUB DUP3 AND PUSH1 0x0 SWAP1 DUP2 MSTORE PUSH1 0xD PUSH1 0x20 SWAP1 DUP2 MSTORE PUSH1 0x40 DUP1 DUP4 KECCAK256 CALLER DUP5 MSTORE SWAP1 SWAP2 MSTORE SWAP1 KECCAK256 PUSH1 0x1 ADD SLOAD DUP2 SWAP1 SUB PUSH2 0x1AF9 JUMPI CALLER PUSH1 0x0 SWAP1 DUP2 MSTORE PUSH1 0xC PUSH1 0x20 MSTORE PUSH1 0x40 SWAP1 KECCAK256 PUSH1 0x1 SWAP1 DUP2 ADD SLOAD SWAP1 SUB PUSH2 0x1AAC JUMPI CALLER PUSH1 0x0 SWAP1 DUP2 MSTORE PUSH1 0xC PUSH1 0x20 MSTORE PUSH1 0x40 SWAP1 KECCAK256 DUP1 SLOAD PUSH1 0xFF NOT AND SWAP1 SSTORE JUMPDEST CALLER PUSH1 0x0 SWAP1 DUP2 MSTORE PUSH1 0xC PUSH1 0x20 MSTORE PUSH1 0x40 DUP2 KECCAK256 PUSH1 0x1 ADD DUP1 SLOAD SWAP2 PUSH2 0x1ACA DUP4 PUSH2 0x51DE JUMP JUMPDEST SWAP2 SWAP1 POP SSTORE POP TIMESTAMP PUSH1 0xC PUSH1 0x0 PUSH2 0x1ADB CALLER SWAP1 JUMP JUMPDEST PUSH1 0x1 PUSH1 0x1 PUSH1 0xA0 SHL SUB AND DUP2 MSTORE PUSH1 0x20 DUP2 ADD SWAP2 SWAP1 SWAP2 MSTORE PUSH1 0x40 ADD PUSH1 0x0 KECCAK256 PUSH1 0x3 ADD SSTORE JUMPDEST PUSH1 0x1 PUSH1 0x1 PUSH1 0xA0 SHL SUB DUP3 AND PUSH1 0x0 SWAP1 DUP2 MSTORE PUSH1 0xD PUSH1 0x20 SWAP1 DUP2 MSTORE PUSH1 0x40 DUP1 DUP4 KECCAK256 CALLER DUP5 MSTORE SWAP1 SWAP2 MSTORE DUP2 KECCAK256 PUSH1 0x1 ADD DUP1 SLOAD DUP4 SWAP3 SWAP1 PUSH2 0x1B2F SWAP1 DUP5 SWAP1 PUSH2 0x51C7 JUMP JUMPDEST SWAP1 SWAP2 SSTORE POP POP PUSH1 0x1 PUSH1 0x1 PUSH1 0xA0 SHL SUB DUP3 AND PUSH1 0x0 SWAP1 DUP2 MSTORE PUSH1 0xD PUSH1 0x20 SWAP1 DUP2 MSTORE PUSH1 0x40 DUP1 DUP4 KECCAK256 CALLER DUP5 MSTORE SWAP1 SWAP2 MSTORE SWAP1 KECCAK256 PUSH1 0x5 ADD SLOAD ISZERO PUSH2 0x1B91 JUMPI PUSH1 0x1 PUSH1 0x1 PUSH1 0xA0 SHL SUB DUP3 AND PUSH1 0x0 SWAP1 DUP2 MSTORE PUSH1 0xD PUSH1 0x20 SWAP1 DUP2 MSTORE PUSH1 0x40 DUP1 DUP4 KECCAK256 CALLER DUP5 MSTORE SWAP1 SWAP2 MSTORE SWAP1 KECCAK256 TIMESTAMP PUSH1 0x6 SWAP1 SWAP2 ADD DUP2 SWAP1 SSTORE PUSH2 0x1BBE JUMP JUMPDEST PUSH1 0x1 PUSH1 0x1 PUSH1 0xA0 SHL SUB DUP3 AND PUSH1 0x0 SWAP1 DUP2 MSTORE PUSH1 0xD PUSH1 0x20 SWAP1 DUP2 MSTORE PUSH1 0x40 DUP1 DUP4 KECCAK256 CALLER DUP5 MSTORE SWAP1 SWAP2 MSTORE SWAP1 KECCAK256 TIMESTAMP PUSH1 0x5 SWAP1 SWAP2 ADD DUP2 SWAP1 SSTORE JUMPDEST POP PUSH1 0x1 PUSH1 0x1 PUSH1 0xA0 SHL SUB DUP3 AND PUSH1 0x0 SWAP1 DUP2 MSTORE PUSH1 0xA PUSH1 0x20 MSTORE PUSH1 0x40 DUP2 KECCAK256 PUSH1 0x5 ADD DUP1 SLOAD DUP4 SWAP3 SWAP1 PUSH2 0x1BEA SWAP1 DUP5 SWAP1 PUSH2 0x51C7 JUMP JUMPDEST SWAP1 SWAP2 SSTORE POP POP PUSH1 0x1 PUSH1 0x1 PUSH1 0xA0 SHL SUB DUP3 AND PUSH1 0x0 SWAP1 DUP2 MSTORE PUSH1 0xA PUSH1 0x20 MSTORE PUSH1 0x40 DUP2 KECCAK256 TIMESTAMP PUSH1 0xC DUP3 ADD SSTORE PUSH1 0x7 ADD SLOAD PUSH2 0x1C1B PUSH1 0x64 PUSH2 0x1888 JUMP JUMPDEST PUSH2 0x1C25 SWAP1 DUP5 PUSH2 0x520B JUMP JUMPDEST PUSH2 0x1C2F SWAP2 SWAP1 PUSH2 0x51A8 JUMP JUMPDEST SWAP1 POP PUSH1 0x0 DUP2 ISZERO DUP1 PUSH2 0x1C4F JUMPI POP CALLER PUSH1 0x0 SWAP1 DUP2 MSTORE PUSH1 0x7 PUSH1 0x20 MSTORE PUSH1 0x40 SWAP1 KECCAK256 SLOAD PUSH1 0xFF AND JUMPDEST ISZERO PUSH2 0x1C5B JUMPI POP DUP2 PUSH2 0x1CE0 JUMP JUMPDEST PUSH1 0x2 SLOAD PUSH1 0x40 MLOAD PUSH4 0xA9059CBB PUSH1 0xE0 SHL DUP2 MSTORE PUSH1 0x1 PUSH1 0x1 PUSH1 0xA0 SHL SUB SWAP2 DUP3 AND PUSH1 0x4 DUP3 ADD MSTORE PUSH1 0x24 DUP2 ADD DUP5 SWAP1 MSTORE SWAP1 DUP6 AND SWAP1 PUSH4 0xA9059CBB SWAP1 PUSH1 0x44 ADD PUSH1 0x20 PUSH1 0x40 MLOAD DUP1 DUP4 SUB DUP2 PUSH1 0x0 DUP8 GAS CALL ISZERO DUP1 ISZERO PUSH2 0x1CAE JUMPI RETURNDATASIZE PUSH1 0x0 DUP1 RETURNDATACOPY RETURNDATASIZE PUSH1 0x0 REVERT JUMPDEST POP POP POP POP PUSH1 0x40 MLOAD RETURNDATASIZE PUSH1 0x1F NOT PUSH1 0x1F DUP3 ADD AND DUP3 ADD DUP1 PUSH1 0x40 MSTORE POP DUP2 ADD SWAP1 PUSH2 0x1CD2 SWAP2 SWAP1 PUSH2 0x5158 JUMP JUMPDEST POP PUSH2 0x1CDD DUP3 DUP5 PUSH2 0x51C7 JUMP JUMPDEST SWAP1 POP JUMPDEST PUSH1 0x1 PUSH1 0x1 PUSH1 0xA0 SHL SUB DUP5 AND PUSH4 0xA9059CBB CALLER PUSH1 0x40 MLOAD PUSH1 0x1 PUSH1 0x1 PUSH1 0xE0 SHL SUB NOT PUSH1 0xE0 DUP5 SWAP1 SHL AND DUP2 MSTORE PUSH1 0x1 PUSH1 0x1 PUSH1 0xA0 SHL SUB SWAP1 SWAP2 AND PUSH1 0x4 DUP3 ADD MSTORE PUSH1 0x24 DUP2 ADD DUP5 SWAP1 MSTORE PUSH1 0x44 ADD PUSH1 0x20 PUSH1 0x40 MLOAD DUP1 DUP4 SUB DUP2 PUSH1 0x0 DUP8 GAS CALL ISZERO DUP1 ISZERO PUSH2 0x1D3D JUMPI RETURNDATASIZE PUSH1 0x0 DUP1 RETURNDATACOPY RETURNDATASIZE PUSH1 0x0 REVERT JUMPDEST POP POP POP POP PUSH1 0x40 MLOAD RETURNDATASIZE PUSH1 0x1F NOT PUSH1 0x1F DUP3 ADD AND DUP3 ADD DUP1 PUSH1 0x40 MSTORE POP DUP2 ADD SWAP1 PUSH2 0x1D61 SWAP2 SWAP1 PUSH2 0x5158 JUMP JUMPDEST POP PUSH1 0x40 MLOAD DUP2 DUP2 MSTORE PUSH1 0x1 PUSH1 0x1 PUSH1 0xA0 SHL SUB DUP6 AND SWAP1 CALLER SWAP1 PUSH32 0x390B1276974B9463E5D66AB10DF69B6F3D7B930EB066A0E66DF327EDD2CC811C SWAP1 PUSH1 0x20 ADD JUMPDEST PUSH1 0x40 MLOAD DUP1 SWAP2 SUB SWAP1 LOG3 POP POP POP POP JUMP JUMPDEST PUSH1 0x0 SLOAD PUSH1 0x1 PUSH1 0x1 PUSH1 0xA0 SHL SUB AND CALLER EQ PUSH2 0x1DD3 JUMPI PUSH1 0x40 MLOAD PUSH3 0x461BCD PUSH1 0xE5 SHL DUP2 MSTORE PUSH1 0x4 ADD PUSH2 0xC68 SWAP1 PUSH2 0x509A JUMP JUMPDEST PUSH2 0x1DDD PUSH1 0x0 PUSH2 0x3F0F JUMP JUMPDEST JUMP JUMPDEST PUSH1 0x0 SLOAD PUSH1 0x1 PUSH1 0x1 PUSH1 0xA0 SHL SUB AND CALLER EQ PUSH2 0x1E09 JUMPI PUSH1 0x40 MLOAD PUSH3 0x461BCD PUSH1 0xE5 SHL DUP2 MSTORE PUSH1 0x4 ADD PUSH2 0xC68 SWAP1 PUSH2 0x509A JUMP JUMPDEST PUSH1 0x2 DUP1 SLOAD PUSH1 0x1 PUSH1 0x1 PUSH1 0xA0 SHL SUB NOT AND PUSH1 0x1 PUSH1 0x1 PUSH1 0xA0 SHL SUB SWAP3 SWAP1 SWAP3 AND SWAP2 SWAP1 SWAP2 OR SWAP1 SSTORE JUMP JUMPDEST PUSH2 0x1E34 DUP3 PUSH2 0x1F9B JUMP JUMPDEST PUSH2 0x1E3D DUP2 PUSH2 0x33DA JUMP JUMPDEST PUSH2 0x1E46 DUP4 PUSH2 0x2428 JUMP JUMPDEST PUSH2 0x1E62 JUMPI PUSH1 0x40 MLOAD PUSH3 0x461BCD PUSH1 0xE5 SHL DUP2 MSTORE PUSH1 0x4 ADD PUSH2 0xC68 SWAP1 PUSH2 0x50CF JUMP JUMPDEST PUSH1 0x5 SLOAD DUP3 LT ISZERO DUP1 ISZERO PUSH2 0x1E76 JUMPI POP PUSH1 0x6 SLOAD DUP3 GT ISZERO JUMPDEST PUSH2 0x1E81 PUSH1 0x5 SLOAD PUSH2 0x2A61 JUMP JUMPDEST PUSH2 0x1E8C PUSH1 0x6 SLOAD PUSH2 0x2A61 JUMP JUMPDEST PUSH1 0x40 MLOAD PUSH32 0x5374616B696E6720415052206D757374206265206265747765656E0000000000 PUSH1 0x20 DUP3 ADD MSTORE PUSH1 0x3B DUP2 ADD SWAP3 SWAP1 SWAP3 MSTORE PUSH3 0x185B99 PUSH1 0xEA SHL PUSH1 0x5B DUP4 ADD MSTORE PUSH1 0x5E DUP3 ADD MSTORE PUSH1 0x17 PUSH1 0xF9 SHL PUSH1 0x7E DUP3 ADD MSTORE PUSH1 0x7F ADD PUSH1 0x40 MLOAD PUSH1 0x20 DUP2 DUP4 SUB SUB DUP2 MSTORE SWAP1 PUSH1 0x40 MSTORE SWAP1 PUSH2 0x1F08 JUMPI PUSH1 0x40 MLOAD PUSH3 0x461BCD PUSH1 0xE5 SHL DUP2 MSTORE PUSH1 0x4 ADD PUSH2 0xC68 SWAP2 SWAP1 PUSH2 0x4F43 JUMP JUMPDEST POP POP PUSH1 0x1 PUSH1 0x1 PUSH1 0xA0 SHL SUB SWAP1 SWAP2 AND PUSH1 0x0 SWAP1 DUP2 MSTORE PUSH1 0xA PUSH1 0x20 MSTORE PUSH1 0x40 SWAP1 KECCAK256 PUSH1 0x8 DUP2 ADD SWAP2 SWAP1 SWAP2 SSTORE TIMESTAMP PUSH1 0xC SWAP1 SWAP2 ADD SSTORE JUMP JUMPDEST PUSH1 0x2 DUP1 SLOAD PUSH1 0x1 PUSH1 0x1 PUSH1 0xA0 SHL SUB NOT AND CALLER OR SWAP1 SSTORE PUSH1 0x0 PUSH1 0x3 SSTORE PUSH2 0x1F55 PUSH1 0xA PUSH2 0x1888 JUMP JUMPDEST PUSH1 0x4 SSTORE PUSH2 0x1F62 PUSH1 0x32 PUSH2 0x1888 JUMP JUMPDEST PUSH1 0x5 SSTORE PUSH2 0x1F70 PUSH2 0x3E8 PUSH2 0x1888 JUMP JUMPDEST PUSH1 0x6 SSTORE PUSH2 0x1F7E PUSH1 0x0 CALLER PUSH2 0x3F5F JUMP JUMPDEST PUSH2 0x1DDD CALLER PUSH2 0x3F0F JUMP JUMPDEST PUSH1 0x0 PUSH2 0x9E5 PUSH2 0x950 DUP4 PUSH5 0x7620D2640 PUSH2 0x51A8 JUMP JUMPDEST PUSH1 0x40 MLOAD PUSH12 0xFFFFFFFFFFFFFFFFFFFFFFFF NOT PUSH1 0x60 DUP4 SWAP1 SHL AND PUSH1 0x20 DUP3 ADD MSTORE PUSH1 0x0 SWAP1 PUSH1 0x34 ADD PUSH1 0x40 MLOAD PUSH1 0x20 DUP2 DUP4 SUB SUB DUP2 MSTORE SWAP1 PUSH1 0x40 MSTORE DUP1 MLOAD SWAP1 PUSH1 0x20 ADD KECCAK256 SWAP1 POP SWAP2 SWAP1 POP JUMP JUMPDEST PUSH1 0x0 SWAP2 DUP3 MSTORE PUSH1 0x1 PUSH1 0x20 SWAP1 DUP2 MSTORE PUSH1 0x40 DUP1 DUP5 KECCAK256 PUSH1 0x1 PUSH1 0x1 PUSH1 0xA0 SHL SUB SWAP4 SWAP1 SWAP4 AND DUP5 MSTORE SWAP2 SWAP1 MSTORE SWAP1 KECCAK256 SLOAD PUSH1 0xFF AND SWAP1 JUMP JUMPDEST PUSH2 0x200E DUP3 PUSH2 0x1F9B JUMP JUMPDEST PUSH2 0x2017 DUP2 PUSH2 0x33DA JUMP JUMPDEST PUSH2 0x2020 DUP4 PUSH2 0x2428 JUMP JUMPDEST PUSH2 0x203C JUMPI PUSH1 0x40 MLOAD PUSH3 0x461BCD PUSH1 0xE5 SHL DUP2 MSTORE PUSH1 0x4 ADD PUSH2 0xC68 SWAP1 PUSH2 0x50CF JUMP JUMPDEST PUSH1 0x0 DUP3 GT PUSH2 0x205C JUMPI PUSH1 0x40 MLOAD PUSH3 0x461BCD PUSH1 0xE5 SHL DUP2 MSTORE PUSH1 0x4 ADD PUSH2 0xC68 SWAP1 PUSH2 0x50FE JUMP JUMPDEST PUSH1 0x1 PUSH1 0x1 PUSH1 0xA0 SHL SUB DUP4 AND PUSH1 0x0 SWAP1 DUP2 MSTORE PUSH1 0xA PUSH1 0x20 MSTORE PUSH1 0x40 SWAP1 KECCAK256 PUSH1 0x4 ADD SLOAD DUP3 GT ISZERO PUSH2 0x20C7 JUMPI PUSH1 0x40 MLOAD PUSH3 0x461BCD PUSH1 0xE5 SHL DUP2 MSTORE PUSH1 0x20 PUSH1 0x4 DUP3 ADD MSTORE PUSH1 0x1C PUSH1 0x24 DUP3 ADD MSTORE PUSH32 0x496E73756666696369656E74207265776172642062616C616E63652E00000000 PUSH1 0x44 DUP3 ADD MSTORE PUSH1 0x64 ADD PUSH2 0xC68 JUMP JUMPDEST PUSH1 0x1 PUSH1 0x1 PUSH1 0xA0 SHL SUB DUP4 AND PUSH1 0x0 SWAP1 DUP2 MSTORE PUSH1 0xA PUSH1 0x20 MSTORE PUSH1 0x40 DUP2 KECCAK256 PUSH1 0x4 ADD DUP1 SLOAD DUP5 SWAP3 SWAP1 PUSH2 0x20F2 SWAP1 DUP5 SWAP1 PUSH2 0x51C7 JUMP JUMPDEST SWAP1 SWAP2 SSTORE POP POP PUSH1 0x40 MLOAD PUSH4 0xA9059CBB PUSH1 0xE0 SHL DUP2 MSTORE CALLER PUSH1 0x4 DUP3 ADD MSTORE PUSH1 0x24 DUP2 ADD DUP4 SWAP1 MSTORE PUSH1 0x1 PUSH1 0x1 PUSH1 0xA0 SHL SUB DUP5 AND SWAP1 PUSH4 0xA9059CBB SWAP1 PUSH1 0x44 ADD JUMPDEST PUSH1 0x20 PUSH1 0x40 MLOAD DUP1 DUP4 SUB DUP2 PUSH1 0x0 DUP8 GAS CALL ISZERO DUP1 ISZERO PUSH2 0x2145 JUMPI RETURNDATASIZE PUSH1 0x0 DUP1 RETURNDATACOPY RETURNDATASIZE PUSH1 0x0 REVERT JUMPDEST POP POP POP POP PUSH1 0x40 MLOAD RETURNDATASIZE PUSH1 0x1F NOT PUSH1 0x1F DUP3 ADD AND DUP3 ADD DUP1 PUSH1 0x40 MSTORE POP DUP2 ADD SWAP1 PUSH2 0x2169 SWAP2 SWAP1 PUSH2 0x5158 JUMP JUMPDEST POP POP POP POP JUMP JUMPDEST PUSH2 0x2178 DUP2 PUSH2 0x1F9B JUMP JUMPDEST PUSH2 0x2181 DUP2 PUSH2 0x33DA JUMP JUMPDEST PUSH2 0x218A DUP3 PUSH2 0x2428 JUMP JUMPDEST PUSH2 0x21A6 JUMPI PUSH1 0x40 MLOAD PUSH3 0x461BCD PUSH1 0xE5 SHL DUP2 MSTORE PUSH1 0x4 ADD PUSH2 0xC68 SWAP1 PUSH2 0x50CF JUMP JUMPDEST POP PUSH1 0x1 PUSH1 0x1 PUSH1 0xA0 SHL SUB AND PUSH1 0x0 SWAP1 DUP2 MSTORE PUSH1 0xA PUSH1 0x20 MSTORE PUSH1 0x40 SWAP1 KECCAK256 DUP1 SLOAD PUSH2 0xFF00 NOT AND SWAP1 SSTORE JUMP JUMPDEST PUSH1 0x60 PUSH1 0x9 DUP1 SLOAD DUP1 PUSH1 0x20 MUL PUSH1 0x20 ADD PUSH1 0x40 MLOAD SWAP1 DUP2 ADD PUSH1 0x40 MSTORE DUP1 SWAP3 SWAP2 SWAP1 DUP2 DUP2 MSTORE PUSH1 0x20 ADD DUP3 DUP1 SLOAD DUP1 ISZERO PUSH2 0x12F8 JUMPI PUSH1 0x20 MUL DUP3 ADD SWAP2 SWAP1 PUSH1 0x0 MSTORE PUSH1 0x20 PUSH1 0x0 KECCAK256 SWAP1 DUP2 SLOAD PUSH1 0x1 PUSH1 0x1 PUSH1 0xA0 SHL SUB AND DUP2 MSTORE PUSH1 0x1 SWAP1 SWAP2 ADD SWAP1 PUSH1 0x20 ADD DUP1 DUP4 GT PUSH2 0x12DA JUMPI POP POP POP POP POP SWAP1 POP SWAP1 JUMP JUMPDEST PUSH2 0x2232 DUP2 PUSH2 0x1F9B JUMP JUMPDEST PUSH2 0x223B DUP2 PUSH2 0x33DA JUMP JUMPDEST PUSH2 0x2244 DUP3 PUSH2 0x2428 JUMP JUMPDEST PUSH2 0x2260 JUMPI PUSH1 0x40 MLOAD PUSH3 0x461BCD PUSH1 0xE5 SHL DUP2 MSTORE PUSH1 0x4 ADD PUSH2 0xC68 SWAP1 PUSH2 0x50CF JUMP JUMPDEST POP PUSH1 0x1 PUSH1 0x1 PUSH1 0xA0 SHL SUB AND PUSH1 0x0 SWAP1 DUP2 MSTORE PUSH1 0xA PUSH1 0x20 MSTORE PUSH1 0x40 SWAP1 KECCAK256 DUP1 SLOAD PUSH2 0xFF00 NOT AND PUSH2 0x100 OR SWAP1 SSTORE JUMP JUMPDEST PUSH1 0xA PUSH1 0x20 MSTORE PUSH1 0x0 SWAP1 DUP2 MSTORE PUSH1 0x40 SWAP1 KECCAK256 DUP1 SLOAD PUSH1 0x1 DUP3 ADD DUP1 SLOAD PUSH1 0xFF DUP1 DUP5 AND SWAP5 PUSH2 0x100 SWAP1 SWAP5 DIV AND SWAP3 SWAP2 SWAP1 PUSH2 0x22B6 SWAP1 PUSH2 0x5060 JUMP JUMPDEST DUP1 PUSH1 0x1F ADD PUSH1 0x20 DUP1 SWAP2 DIV MUL PUSH1 0x20 ADD PUSH1 0x40 MLOAD SWAP1 DUP2 ADD PUSH1 0x40 MSTORE DUP1 SWAP3 SWAP2 SWAP1 DUP2 DUP2 MSTORE PUSH1 0x20 ADD DUP3 DUP1 SLOAD PUSH2 0x22E2 SWAP1 PUSH2 0x5060 JUMP JUMPDEST DUP1 ISZERO PUSH2 0x232F JUMPI DUP1 PUSH1 0x1F LT PUSH2 0x2304 JUMPI PUSH2 0x100 DUP1 DUP4 SLOAD DIV MUL DUP4 MSTORE SWAP2 PUSH1 0x20 ADD SWAP2 PUSH2 0x232F JUMP JUMPDEST DUP3 ADD SWAP2 SWAP1 PUSH1 0x0 MSTORE PUSH1 0x20 PUSH1 0x0 KECCAK256 SWAP1 JUMPDEST DUP2 SLOAD DUP2 MSTORE SWAP1 PUSH1 0x1 ADD SWAP1 PUSH1 0x20 ADD DUP1 DUP4 GT PUSH2 0x2312 JUMPI DUP3 SWAP1 SUB PUSH1 0x1F AND DUP3 ADD SWAP2 JUMPDEST POP POP POP PUSH1 0x2 DUP5 ADD SLOAD PUSH1 0x3 DUP6 ADD SLOAD PUSH1 0x4 DUP7 ADD SLOAD PUSH1 0x5 DUP8 ADD SLOAD PUSH1 0x6 DUP9 ADD SLOAD PUSH1 0x7 DUP10 ADD SLOAD PUSH1 0x8 DUP11 ADD SLOAD PUSH1 0x9 DUP12 ADD SLOAD PUSH1 0xA DUP13 ADD SLOAD PUSH1 0xB DUP14 ADD SLOAD PUSH1 0xC SWAP1 SWAP14 ADD SLOAD SWAP12 SWAP13 SWAP9 SWAP12 SWAP8 SWAP11 POP SWAP6 SWAP9 POP SWAP4 SWAP7 SWAP3 SWAP6 SWAP2 SWAP5 SWAP1 SWAP4 PUSH1 0x1 PUSH1 0x1 PUSH1 0xA0 SHL SUB SWAP1 DUP2 AND SWAP4 SWAP2 AND SWAP2 DUP15 JUMP JUMPDEST PUSH1 0x8 PUSH1 0x20 MSTORE PUSH1 0x0 SWAP1 DUP2 MSTORE PUSH1 0x40 SWAP1 KECCAK256 DUP1 SLOAD PUSH2 0x23A7 SWAP1 PUSH2 0x5060 JUMP JUMPDEST DUP1 PUSH1 0x1F ADD PUSH1 0x20 DUP1 SWAP2 DIV MUL PUSH1 0x20 ADD PUSH1 0x40 MLOAD SWAP1 DUP2 ADD PUSH1 0x40 MSTORE DUP1 SWAP3 SWAP2 SWAP1 DUP2 DUP2 MSTORE PUSH1 0x20 ADD DUP3 DUP1 SLOAD PUSH2 0x23D3 SWAP1 PUSH2 0x5060 JUMP JUMPDEST DUP1 ISZERO PUSH2 0x2420 JUMPI DUP1 PUSH1 0x1F LT PUSH2 0x23F5 JUMPI PUSH2 0x100 DUP1 DUP4 SLOAD DIV MUL DUP4 MSTORE SWAP2 PUSH1 0x20 ADD SWAP2 PUSH2 0x2420 JUMP JUMPDEST DUP3 ADD SWAP2 SWAP1 PUSH1 0x0 MSTORE PUSH1 0x20 PUSH1 0x0 KECCAK256 SWAP1 JUMPDEST DUP2 SLOAD DUP2 MSTORE SWAP1 PUSH1 0x1 ADD SWAP1 PUSH1 0x20 ADD DUP1 DUP4 GT PUSH2 0x2403 JUMPI DUP3 SWAP1 SUB PUSH1 0x1F AND DUP3 ADD SWAP2 JUMPDEST POP POP POP POP POP DUP2 JUMP JUMPDEST PUSH1 0x0 DUP1 JUMPDEST PUSH1 0x9 SLOAD DUP2 LT ISZERO PUSH2 0x2488 JUMPI DUP3 PUSH1 0x1 PUSH1 0x1 PUSH1 0xA0 SHL SUB AND PUSH1 0x9 DUP3 DUP2 SLOAD DUP2 LT PUSH2 0x2453 JUMPI PUSH2 0x2453 PUSH2 0x521F JUMP JUMPDEST PUSH1 0x0 SWAP2 DUP3 MSTORE PUSH1 0x20 SWAP1 SWAP2 KECCAK256 ADD SLOAD PUSH1 0x1 PUSH1 0x1 PUSH1 0xA0 SHL SUB AND SUB PUSH2 0x2476 JUMPI POP PUSH1 0x1 SWAP3 SWAP2 POP POP JUMP JUMPDEST DUP1 PUSH2 0x2480 DUP2 PUSH2 0x5235 JUMP JUMPDEST SWAP2 POP POP PUSH2 0x242C JUMP JUMPDEST POP PUSH1 0x0 SWAP3 SWAP2 POP POP JUMP JUMPDEST PUSH2 0x249A DUP3 PUSH2 0x1F9B JUMP JUMPDEST PUSH2 0x24A3 DUP2 PUSH2 0x33DA JUMP JUMPDEST PUSH2 0x24AC DUP3 PUSH2 0x1F9B JUMP JUMPDEST PUSH2 0x24B5 DUP2 PUSH2 0x33DA JUMP JUMPDEST PUSH2 0x24BE DUP5 PUSH2 0x2428 JUMP JUMPDEST PUSH2 0x24DA JUMPI PUSH1 0x40 MLOAD PUSH3 0x461BCD PUSH1 0xE5 SHL DUP2 MSTORE PUSH1 0x4 ADD PUSH2 0xC68 SWAP1 PUSH2 0x50CF JUMP JUMPDEST PUSH2 0x24E3 DUP4 PUSH2 0x2428 JUMP JUMPDEST PUSH2 0x252F JUMPI PUSH1 0x40 MLOAD PUSH3 0x461BCD PUSH1 0xE5 SHL DUP2 MSTORE PUSH1 0x20 PUSH1 0x4 DUP3 ADD MSTORE PUSH1 0x1C PUSH1 0x24 DUP3 ADD MSTORE PUSH32 0x52657761726420746F6B656E20646F6573206E6F742065786973742E00000000 PUSH1 0x44 DUP3 ADD MSTORE PUSH1 0x64 ADD PUSH2 0xC68 JUMP JUMPDEST POP POP PUSH1 0x1 PUSH1 0x1 PUSH1 0xA0 SHL SUB SWAP2 DUP3 AND PUSH1 0x0 SWAP1 DUP2 MSTORE PUSH1 0xA PUSH1 0x20 MSTORE PUSH1 0x40 SWAP1 KECCAK256 PUSH1 0x9 DUP2 ADD DUP1 SLOAD PUSH1 0x1 PUSH1 0x1 PUSH1 0xA0 SHL SUB NOT AND SWAP3 SWAP1 SWAP4 AND SWAP2 SWAP1 SWAP2 OR SWAP1 SWAP2 SSTORE TIMESTAMP PUSH1 0xC SWAP1 SWAP2 ADD SSTORE JUMP JUMPDEST PUSH1 0x0 SLOAD PUSH1 0x1 PUSH1 0x1 PUSH1 0xA0 SHL SUB AND CALLER EQ PUSH2 0x2598 JUMPI PUSH1 0x40 MLOAD PUSH3 0x461BCD PUSH1 0xE5 SHL DUP2 MSTORE PUSH1 0x4 ADD PUSH2 0xC68 SWAP1 PUSH2 0x509A JUMP JUMPDEST PUSH2 0x25A1 DUP3 PUSH2 0x2428 JUMP JUMPDEST PUSH2 0x25BD JUMPI PUSH1 0x40 MLOAD PUSH3 0x461BCD PUSH1 0xE5 SHL DUP2 MSTORE PUSH1 0x4 ADD PUSH2 0xC68 SWAP1 PUSH2 0x50CF JUMP JUMPDEST PUSH1 0x1 PUSH1 0x1 PUSH1 0xA0 SHL SUB DUP3 AND PUSH1 0x0 SWAP1 DUP2 MSTORE PUSH1 0xA PUSH1 0x20 SWAP1 DUP2 MSTORE PUSH1 0x40 SWAP1 SWAP2 KECCAK256 DUP3 MLOAD PUSH2 0x25EC SWAP3 PUSH1 0x1 SWAP1 SWAP3 ADD SWAP2 DUP5 ADD SWAP1 PUSH2 0x4733 JUMP JUMPDEST POP POP PUSH1 0x1 PUSH1 0x1 PUSH1 0xA0 SHL SUB AND PUSH1 0x0 SWAP1 DUP2 MSTORE PUSH1 0xA PUSH1 0x20 MSTORE PUSH1 0x40 SWAP1 KECCAK256 TIMESTAMP PUSH1 0xC SWAP1 SWAP2 ADD SSTORE JUMP JUMPDEST PUSH2 0x263B PUSH1 0x40 MLOAD DUP1 PUSH1 0x80 ADD PUSH1 0x40 MSTORE DUP1 PUSH1 0x0 ISZERO ISZERO DUP2 MSTORE PUSH1 0x20 ADD PUSH1 0x0 DUP2 MSTORE PUSH1 0x20 ADD PUSH1 0x0 DUP2 MSTORE PUSH1 0x20 ADD PUSH1 0x0 DUP2 MSTORE POP SWAP1 JUMP JUMPDEST POP PUSH1 0x1 PUSH1 0x1 PUSH1 0xA0 SHL SUB AND PUSH1 0x0 SWAP1 DUP2 MSTORE PUSH1 0xC PUSH1 0x20 SWAP1 DUP2 MSTORE PUSH1 0x40 SWAP2 DUP3 SWAP1 KECCAK256 DUP3 MLOAD PUSH1 0x80 DUP2 ADD DUP5 MSTORE DUP2 SLOAD PUSH1 0xFF AND ISZERO ISZERO DUP2 MSTORE PUSH1 0x1 DUP3 ADD SLOAD SWAP3 DUP2 ADD SWAP3 SWAP1 SWAP3 MSTORE PUSH1 0x2 DUP2 ADD SLOAD SWAP3 DUP3 ADD SWAP3 SWAP1 SWAP3 MSTORE PUSH1 0x3 SWAP1 SWAP2 ADD SLOAD PUSH1 0x60 DUP3 ADD MSTORE SWAP1 JUMP JUMPDEST PUSH1 0x0 DUP1 JUMPDEST PUSH1 0xB SLOAD DUP2 LT ISZERO PUSH2 0x2488 JUMPI DUP3 PUSH1 0x1 PUSH1 0x1 PUSH1 0xA0 SHL SUB AND PUSH1 0xB DUP3 DUP2 SLOAD DUP2 LT PUSH2 0x26B9 JUMPI PUSH2 0x26B9 PUSH2 0x521F JUMP JUMPDEST PUSH1 0x0 SWAP2 DUP3 MSTORE PUSH1 0x20 SWAP1 SWAP2 KECCAK256 ADD SLOAD PUSH1 0x1 PUSH1 0x1 PUSH1 0xA0 SHL SUB AND SUB PUSH2 0x26DC JUMPI POP PUSH1 0x1 SWAP3 SWAP2 POP POP JUMP JUMPDEST DUP1 PUSH2 0x26E6 DUP2 PUSH2 0x5235 JUMP JUMPDEST SWAP2 POP POP PUSH2 0x2692 JUMP JUMPDEST PUSH1 0x0 DUP3 DUP2 MSTORE PUSH1 0x1 PUSH1 0x20 DUP2 SWAP1 MSTORE PUSH1 0x40 SWAP1 SWAP2 KECCAK256 ADD SLOAD PUSH2 0x270A DUP2 PUSH2 0x33DA JUMP JUMPDEST PUSH2 0xCC7 DUP4 DUP4 PUSH2 0x344F JUMP JUMPDEST PUSH1 0x0 SLOAD PUSH1 0x1 PUSH1 0x1 PUSH1 0xA0 SHL SUB AND CALLER EQ PUSH2 0x273E JUMPI PUSH1 0x40 MLOAD PUSH3 0x461BCD PUSH1 0xE5 SHL DUP2 MSTORE PUSH1 0x4 ADD PUSH2 0xC68 SWAP1 PUSH2 0x509A JUMP JUMPDEST PUSH1 0x0 JUMPDEST PUSH1 0x9 SLOAD DUP2 LT ISZERO PUSH2 0x2828 JUMPI PUSH1 0x0 PUSH1 0x9 DUP3 DUP2 SLOAD DUP2 LT PUSH2 0x2760 JUMPI PUSH2 0x2760 PUSH2 0x521F JUMP JUMPDEST PUSH1 0x0 SWAP2 DUP3 MSTORE PUSH1 0x20 DUP3 KECCAK256 ADD SLOAD PUSH1 0x1 PUSH1 0x1 PUSH1 0xA0 SHL SUB AND SWAP2 POP JUMPDEST PUSH1 0xB SLOAD DUP2 LT ISZERO PUSH2 0x2813 JUMPI PUSH1 0x0 PUSH1 0xB DUP3 DUP2 SLOAD DUP2 LT PUSH2 0x2796 JUMPI PUSH2 0x2796 PUSH2 0x521F JUMP JUMPDEST PUSH1 0x0 SWAP2 DUP3 MSTORE PUSH1 0x20 DUP1 DUP4 KECCAK256 SWAP1 SWAP2 ADD SLOAD PUSH1 0x40 DUP1 MLOAD PUSH1 0x80 DUP2 ADD DUP3 MSTORE PUSH1 0x15 DUP2 DUP4 ADD SWAP1 DUP2 MSTORE PUSH21 0x6973737565207374616B696E672072657761726473 PUSH1 0x58 SHL PUSH1 0x60 DUP4 ADD MSTORE DUP2 MSTORE DUP2 MLOAD DUP1 DUP6 ADD SWAP1 SWAP3 MSTORE SWAP4 DUP2 MSTORE SWAP2 DUP4 ADD SWAP2 SWAP1 SWAP2 MSTORE PUSH1 0x1 PUSH1 0x1 PUSH1 0xA0 SHL SUB AND SWAP2 POP PUSH2 0x2800 SWAP1 DUP5 SWAP1 DUP4 SWAP1 PUSH2 0x35BF JUMP JUMPDEST POP DUP1 PUSH2 0x280B DUP2 PUSH2 0x5235 JUMP JUMPDEST SWAP2 POP POP PUSH2 0x2777 JUMP JUMPDEST POP POP DUP1 DUP1 PUSH2 0x2820 SWAP1 PUSH2 0x5235 JUMP JUMPDEST SWAP2 POP POP PUSH2 0x2741 JUMP JUMPDEST POP JUMP JUMPDEST PUSH1 0x0 SLOAD PUSH1 0x1 PUSH1 0x1 PUSH1 0xA0 SHL SUB AND CALLER EQ PUSH2 0x2855 JUMPI PUSH1 0x40 MLOAD PUSH3 0x461BCD PUSH1 0xE5 SHL DUP2 MSTORE PUSH1 0x4 ADD PUSH2 0xC68 SWAP1 PUSH2 0x509A JUMP JUMPDEST PUSH2 0x285E DUP9 PUSH2 0x2428 JUMP JUMPDEST ISZERO PUSH2 0x28A3 JUMPI PUSH1 0x40 MLOAD PUSH3 0x461BCD PUSH1 0xE5 SHL DUP2 MSTORE PUSH1 0x20 PUSH1 0x4 DUP3 ADD MSTORE PUSH1 0x15 PUSH1 0x24 DUP3 ADD MSTORE PUSH21 0x2A37B5B2B71030B63932B0B23C9032BC34B9BA3997 PUSH1 0x59 SHL PUSH1 0x44 DUP3 ADD MSTORE PUSH1 0x64 ADD PUSH2 0xC68 JUMP JUMPDEST PUSH2 0x28B5 PUSH2 0x28AF DUP10 PUSH2 0x1F9B JUMP JUMPDEST CALLER PUSH2 0x3F5F JUMP JUMPDEST PUSH1 0x9 DUP1 SLOAD PUSH1 0x1 DUP1 DUP3 ADD SWAP1 SWAP3 SSTORE PUSH32 0x6E1540171B6C0C960B71A7020D9F60077F6AF931A8BBF590DA0223DACF75C7AF DUP2 ADD DUP1 SLOAD PUSH1 0x1 PUSH1 0x1 PUSH1 0xA0 SHL SUB NOT AND PUSH1 0x1 PUSH1 0x1 PUSH1 0xA0 SHL SUB DUP13 AND SWAP1 DUP2 OR SWAP1 SWAP2 SSTORE PUSH1 0x0 SWAP1 DUP2 MSTORE PUSH1 0xA PUSH1 0x20 SWAP1 DUP2 MSTORE PUSH1 0x40 SWAP1 SWAP2 KECCAK256 DUP11 MLOAD SWAP3 SWAP4 PUSH2 0x2924 SWAP4 SWAP2 ADD SWAP2 DUP12 ADD SWAP1 PUSH2 0x4733 JUMP JUMPDEST POP PUSH1 0x1 PUSH1 0x1 PUSH1 0xA0 SHL SUB DUP10 AND PUSH1 0x0 SWAP1 DUP2 MSTORE PUSH1 0xA PUSH1 0x20 MSTORE PUSH1 0x40 SWAP1 KECCAK256 PUSH1 0x2 DUP2 ADD DUP9 SWAP1 SSTORE TIMESTAMP PUSH1 0xB SWAP1 SWAP2 ADD SSTORE PUSH2 0x297B DUP10 DUP8 ISZERO PUSH2 0x295B JUMPI DUP8 PUSH2 0x2965 JUMP JUMPDEST PUSH2 0x2965 PUSH1 0x1 PUSH2 0x1888 JUMP JUMPDEST DUP8 ISZERO PUSH2 0x2971 JUMPI DUP8 PUSH2 0x189C JUMP JUMPDEST PUSH2 0x699 PUSH1 0x1 PUSH2 0x1888 JUMP JUMPDEST PUSH2 0x2995 DUP10 DUP6 ISZERO PUSH2 0x298B JUMPI DUP6 PUSH2 0x1E2B JUMP JUMPDEST PUSH2 0x6ED PUSH1 0x64 PUSH2 0x1888 JUMP JUMPDEST PUSH2 0x29B4 DUP10 PUSH1 0x1 PUSH1 0x1 PUSH1 0xA0 SHL SUB DUP6 AND ISZERO PUSH2 0x29AE JUMPI DUP5 PUSH2 0x2491 JUMP JUMPDEST DUP11 PUSH2 0x2491 JUMP JUMPDEST PUSH2 0x29D3 DUP10 PUSH1 0x1 PUSH1 0x1 PUSH1 0xA0 SHL SUB DUP5 AND ISZERO PUSH2 0x29CD JUMPI DUP4 PUSH2 0x1422 JUMP JUMPDEST CALLER PUSH2 0x1422 JUMP JUMPDEST POP POP POP POP POP POP POP POP POP JUMP JUMPDEST PUSH1 0x0 SLOAD PUSH1 0x1 PUSH1 0x1 PUSH1 0xA0 SHL SUB AND CALLER EQ PUSH2 0x2A08 JUMPI PUSH1 0x40 MLOAD PUSH3 0x461BCD PUSH1 0xE5 SHL DUP2 MSTORE PUSH1 0x4 ADD PUSH2 0xC68 SWAP1 PUSH2 0x509A JUMP JUMPDEST PUSH1 0x3 SWAP2 SWAP1 SWAP2 SSTORE PUSH1 0x4 SSTORE JUMP JUMPDEST PUSH1 0x0 SLOAD PUSH1 0x1 PUSH1 0x1 PUSH1 0xA0 SHL SUB AND CALLER EQ PUSH2 0x2A3D JUMPI PUSH1 0x40 MLOAD PUSH3 0x461BCD PUSH1 0xE5 SHL DUP2 MSTORE PUSH1 0x4 ADD PUSH2 0xC68 SWAP1 PUSH2 0x509A JUMP JUMPDEST PUSH1 0x1 PUSH1 0x1 PUSH1 0xA0 SHL SUB AND PUSH1 0x0 SWAP1 DUP2 MSTORE PUSH1 0x7 PUSH1 0x20 MSTORE PUSH1 0x40 SWAP1 KECCAK256 DUP1 SLOAD PUSH1 0xFF NOT AND PUSH1 0x1 OR SWAP1 SSTORE JUMP JUMPDEST PUSH1 0x0 PUSH2 0x9E5 PUSH8 0xDE0B6B3A7640000 DUP4 PUSH2 0x520B JUMP JUMPDEST PUSH1 0x0 SLOAD PUSH1 0x1 PUSH1 0x1 PUSH1 0xA0 SHL SUB AND CALLER EQ PUSH2 0x2A9F JUMPI PUSH1 0x40 MLOAD PUSH3 0x461BCD PUSH1 0xE5 SHL DUP2 MSTORE PUSH1 0x4 ADD PUSH2 0xC68 SWAP1 PUSH2 0x509A JUMP JUMPDEST PUSH2 0x2AA8 DUP3 PUSH2 0x2428 JUMP JUMPDEST PUSH2 0x2AC4 JUMPI PUSH1 0x40 MLOAD PUSH3 0x461BCD PUSH1 0xE5 SHL DUP2 MSTORE PUSH1 0x4 ADD PUSH2 0xC68 SWAP1 PUSH2 0x50CF JUMP JUMPDEST PUSH1 0x1 PUSH1 0x1 PUSH1 0xA0 SHL SUB SWAP1 SWAP2 AND PUSH1 0x0 SWAP1 DUP2 MSTORE PUSH1 0xA PUSH1 0x20 MSTORE PUSH1 0x40 SWAP1 KECCAK256 PUSH1 0x2 DUP2 ADD SWAP2 SWAP1 SWAP2 SSTORE TIMESTAMP PUSH1 0xC SWAP1 SWAP2 ADD SSTORE JUMP JUMPDEST PUSH1 0x0 SLOAD PUSH1 0x1 PUSH1 0x1 PUSH1 0xA0 SHL SUB AND CALLER EQ PUSH2 0x2B18 JUMPI PUSH1 0x40 MLOAD PUSH3 0x461BCD PUSH1 0xE5 SHL DUP2 MSTORE PUSH1 0x4 ADD PUSH2 0xC68 SWAP1 PUSH2 0x509A JUMP JUMPDEST PUSH1 0x1 PUSH1 0x1 PUSH1 0xA0 SHL SUB DUP2 AND PUSH2 0x2B7D JUMPI PUSH1 0x40 MLOAD PUSH3 0x461BCD PUSH1 0xE5 SHL DUP2 MSTORE PUSH1 0x20 PUSH1 0x4 DUP3 ADD MSTORE PUSH1 0x26 PUSH1 0x24 DUP3 ADD MSTORE PUSH32 0x4F776E61626C653A206E6577206F776E657220697320746865207A65726F2061 PUSH1 0x44 DUP3 ADD MSTORE PUSH6 0x646472657373 PUSH1 0xD0 SHL PUSH1 0x64 DUP3 ADD MSTORE PUSH1 0x84 ADD PUSH2 0xC68 JUMP JUMPDEST PUSH2 0x2828 DUP2 PUSH2 0x3F0F JUMP JUMPDEST PUSH1 0x0 SLOAD PUSH1 0x1 PUSH1 0x1 PUSH1 0xA0 SHL SUB AND CALLER EQ PUSH2 0x2BB0 JUMPI PUSH1 0x40 MLOAD PUSH3 0x461BCD PUSH1 0xE5 SHL DUP2 MSTORE PUSH1 0x4 ADD PUSH2 0xC68 SWAP1 PUSH2 0x509A JUMP JUMPDEST PUSH1 0x40 MLOAD PUSH4 0xA9059CBB PUSH1 0xE0 SHL DUP2 MSTORE PUSH1 0x1 PUSH1 0x1 PUSH1 0xA0 SHL SUB DUP4 DUP2 AND PUSH1 0x4 DUP4 ADD MSTORE PUSH1 0x24 DUP3 ADD DUP4 SWAP1 MSTORE DUP5 AND SWAP1 PUSH4 0xA9059CBB SWAP1 PUSH1 0x44 ADD PUSH2 0x2126 JUMP JUMPDEST PUSH1 0x1 PUSH1 0x1 PUSH1 0xA0 SHL SUB DUP3 AND PUSH1 0x0 SWAP1 DUP2 MSTORE PUSH1 0xA PUSH1 0x20 MSTORE PUSH1 0x40 SWAP1 KECCAK256 SLOAD PUSH1 0xFF AND PUSH2 0x2C41 JUMPI PUSH1 0x40 MLOAD PUSH3 0x461BCD PUSH1 0xE5 SHL DUP2 MSTORE PUSH1 0x20 PUSH1 0x4 DUP3 ADD MSTORE PUSH1 0x11 PUSH1 0x24 DUP3 ADD MSTORE PUSH17 0x2A37B5B2B7103737BA1030B1BA34BB3297 PUSH1 0x79 SHL PUSH1 0x44 DUP3 ADD MSTORE PUSH1 0x64 ADD PUSH2 0xC68 JUMP JUMPDEST PUSH1 0x0 DUP2 GT PUSH2 0x2C61 JUMPI PUSH1 0x40 MLOAD PUSH3 0x461BCD PUSH1 0xE5 SHL DUP2 MSTORE PUSH1 0x4 ADD PUSH2 0xC68 SWAP1 PUSH2 0x50FE JUMP JUMPDEST DUP1 PUSH1 0x1 PUSH1 0x1 PUSH1 0xA0 SHL SUB DUP4 AND PUSH4 0x70A08231 CALLER PUSH1 0x40 MLOAD PUSH1 0x1 PUSH1 0x1 PUSH1 0xE0 SHL SUB NOT PUSH1 0xE0 DUP5 SWAP1 SHL AND DUP2 MSTORE PUSH1 0x1 PUSH1 0x1 PUSH1 0xA0 SHL SUB SWAP1 SWAP2 AND PUSH1 0x4 DUP3 ADD MSTORE PUSH1 0x24 ADD PUSH1 0x20 PUSH1 0x40 MLOAD DUP1 DUP4 SUB DUP2 DUP7 GAS STATICCALL ISZERO DUP1 ISZERO PUSH2 0x2CB6 JUMPI RETURNDATASIZE PUSH1 0x0 DUP1 RETURNDATACOPY RETURNDATASIZE PUSH1 0x0 REVERT JUMPDEST POP POP POP POP PUSH1 0x40 MLOAD RETURNDATASIZE PUSH1 0x1F NOT PUSH1 0x1F DUP3 ADD AND DUP3 ADD DUP1 PUSH1 0x40 MSTORE POP DUP2 ADD SWAP1 PUSH2 0x2CDA SWAP2 SWAP1 PUSH2 0x513F JUMP JUMPDEST LT ISZERO PUSH2 0x2D28 JUMPI PUSH1 0x40 MLOAD PUSH3 0x461BCD PUSH1 0xE5 SHL DUP2 MSTORE PUSH1 0x20 PUSH1 0x4 DUP3 ADD MSTORE PUSH1 0x1C PUSH1 0x24 DUP3 ADD MSTORE PUSH32 0x496E73756666696369656E742077616C6C65742062616C616E63652E00000000 PUSH1 0x44 DUP3 ADD MSTORE PUSH1 0x64 ADD PUSH2 0xC68 JUMP JUMPDEST PUSH1 0x1 PUSH1 0x1 PUSH1 0xA0 SHL SUB DUP3 AND PUSH1 0x0 SWAP1 DUP2 MSTORE PUSH1 0xA PUSH1 0x20 MSTORE PUSH1 0x40 DUP2 KECCAK256 PUSH1 0x6 ADD SLOAD PUSH2 0x2D4E PUSH1 0x64 PUSH2 0x1888 JUMP JUMPDEST PUSH2 0x2D58 SWAP1 DUP5 PUSH2 0x520B JUMP JUMPDEST PUSH2 0x2D62 SWAP2 SWAP1 PUSH2 0x51A8 JUMP JUMPDEST SWAP1 POP PUSH1 0x0 DUP2 ISZERO DUP1 PUSH2 0x2D82 JUMPI POP CALLER PUSH1 0x0 SWAP1 DUP2 MSTORE PUSH1 0x7 PUSH1 0x20 MSTORE PUSH1 0x40 SWAP1 KECCAK256 SLOAD PUSH1 0xFF AND JUMPDEST ISZERO PUSH2 0x2D8E JUMPI POP DUP2 PUSH2 0x2E27 JUMP JUMPDEST PUSH1 0x1 PUSH1 0x1 PUSH1 0xA0 SHL SUB DUP5 AND PUSH4 0x23B872DD CALLER PUSH1 0x2 SLOAD PUSH1 0x40 MLOAD PUSH1 0xE0 DUP5 SWAP1 SHL PUSH1 0x1 PUSH1 0x1 PUSH1 0xE0 SHL SUB NOT AND DUP2 MSTORE PUSH1 0x1 PUSH1 0x1 PUSH1 0xA0 SHL SUB SWAP3 DUP4 AND PUSH1 0x4 DUP3 ADD MSTORE SWAP2 AND PUSH1 0x24 DUP3 ADD MSTORE PUSH1 0x44 DUP2 ADD DUP6 SWAP1 MSTORE PUSH1 0x64 ADD PUSH1 0x20 PUSH1 0x40 MLOAD DUP1 DUP4 SUB DUP2 PUSH1 0x0 DUP8 GAS CALL ISZERO DUP1 ISZERO PUSH2 0x2DF5 JUMPI RETURNDATASIZE PUSH1 0x0 DUP1 RETURNDATACOPY RETURNDATASIZE PUSH1 0x0 REVERT JUMPDEST POP POP POP POP PUSH1 0x40 MLOAD RETURNDATASIZE PUSH1 0x1F NOT PUSH1 0x1F DUP3 ADD AND DUP3 ADD DUP1 PUSH1 0x40 MSTORE POP DUP2 ADD SWAP1 PUSH2 0x2E19 SWAP2 SWAP1 PUSH2 0x5158 JUMP JUMPDEST POP PUSH2 0x2E24 DUP3 DUP5 PUSH2 0x51C7 JUMP JUMPDEST SWAP1 POP JUMPDEST PUSH1 0x1 PUSH1 0x1 PUSH1 0xA0 SHL SUB DUP5 AND PUSH4 0x23B872DD CALLER PUSH1 0x40 MLOAD PUSH1 0x1 PUSH1 0x1 PUSH1 0xE0 SHL SUB NOT PUSH1 0xE0 DUP5 SWAP1 SHL AND DUP2 MSTORE PUSH1 0x1 PUSH1 0x1 PUSH1 0xA0 SHL SUB SWAP1 SWAP2 AND PUSH1 0x4 DUP3 ADD MSTORE ADDRESS PUSH1 0x24 DUP3 ADD MSTORE PUSH1 0x44 DUP2 ADD DUP5 SWAP1 MSTORE PUSH1 0x64 ADD PUSH1 0x20 PUSH1 0x40 MLOAD DUP1 DUP4 SUB DUP2 PUSH1 0x0 DUP8 GAS CALL ISZERO DUP1 ISZERO PUSH2 0x2E8A JUMPI RETURNDATASIZE PUSH1 0x0 DUP1 RETURNDATACOPY RETURNDATASIZE PUSH1 0x0 REVERT JUMPDEST POP POP POP POP PUSH1 0x40 MLOAD RETURNDATASIZE PUSH1 0x1F NOT PUSH1 0x1F DUP3 ADD AND DUP3 ADD DUP1 PUSH1 0x40 MSTORE POP DUP2 ADD SWAP1 PUSH2 0x2EAE SWAP2 SWAP1 PUSH2 0x5158 JUMP JUMPDEST POP PUSH1 0x1 PUSH1 0x1 PUSH1 0xA0 SHL SUB DUP5 AND PUSH1 0x0 SWAP1 DUP2 MSTORE PUSH1 0xD PUSH1 0x20 SWAP1 DUP2 MSTORE PUSH1 0x40 DUP1 DUP4 KECCAK256 CALLER DUP5 MSTORE SWAP1 SWAP2 MSTORE DUP2 KECCAK256 PUSH1 0x1 ADD SLOAD SWAP1 SUB PUSH2 0x3026 JUMPI CALLER PUSH1 0x0 SWAP1 DUP2 MSTORE PUSH1 0xC PUSH1 0x20 MSTORE PUSH1 0x40 DUP2 KECCAK256 PUSH1 0x1 ADD SLOAD SWAP1 SUB PUSH2 0x2F26 JUMPI PUSH2 0x2EFE CALLER PUSH2 0x268E JUMP JUMPDEST PUSH2 0x2F0B JUMPI PUSH2 0x2F0B CALLER PUSH2 0x3F69 JUMP JUMPDEST CALLER PUSH1 0x0 SWAP1 DUP2 MSTORE PUSH1 0xC PUSH1 0x20 MSTORE PUSH1 0x40 SWAP1 KECCAK256 DUP1 SLOAD PUSH1 0xFF NOT AND PUSH1 0x1 OR SWAP1 SSTORE JUMPDEST CALLER PUSH1 0x0 SWAP1 DUP2 MSTORE PUSH1 0xC PUSH1 0x20 MSTORE PUSH1 0x40 DUP2 KECCAK256 PUSH1 0x1 ADD DUP1 SLOAD SWAP2 PUSH2 0x2F44 DUP4 PUSH2 0x5235 JUMP JUMPDEST SWAP2 SWAP1 POP SSTORE POP PUSH1 0xC PUSH1 0x0 PUSH2 0x2F54 CALLER SWAP1 JUMP JUMPDEST PUSH1 0x1 PUSH1 0x1 PUSH1 0xA0 SHL SUB AND DUP2 MSTORE PUSH1 0x20 DUP2 ADD SWAP2 SWAP1 SWAP2 MSTORE PUSH1 0x40 ADD PUSH1 0x0 KECCAK256 PUSH1 0x2 ADD SLOAD ISZERO PUSH2 0x2F93 JUMPI CALLER PUSH1 0x0 SWAP1 DUP2 MSTORE PUSH1 0xC PUSH1 0x20 MSTORE PUSH1 0x40 SWAP1 KECCAK256 TIMESTAMP PUSH1 0x3 SWAP1 SWAP2 ADD DUP2 SWAP1 SSTORE PUSH2 0x2FAC JUMP JUMPDEST CALLER PUSH1 0x0 SWAP1 DUP2 MSTORE PUSH1 0xC PUSH1 0x20 MSTORE PUSH1 0x40 SWAP1 KECCAK256 TIMESTAMP PUSH1 0x2 SWAP1 SWAP2 ADD DUP2 SWAP1 SSTORE JUMPDEST POP PUSH1 0x1 PUSH1 0x1 PUSH1 0xA0 SHL SUB DUP5 DUP2 AND PUSH1 0x0 SWAP1 DUP2 MSTORE PUSH1 0xD PUSH1 0x20 SWAP1 DUP2 MSTORE PUSH1 0x40 DUP1 DUP4 KECCAK256 CALLER DUP5 MSTORE SWAP1 SWAP2 MSTORE SWAP1 KECCAK256 PUSH1 0x2 ADD SLOAD AND PUSH2 0x3021 JUMPI PUSH1 0x1 PUSH1 0x1 PUSH1 0xA0 SHL SUB DUP5 DUP2 AND PUSH1 0x0 SWAP1 DUP2 MSTORE PUSH1 0xA PUSH1 0x20 SWAP1 DUP2 MSTORE PUSH1 0x40 DUP1 DUP4 KECCAK256 PUSH1 0x9 ADD SLOAD PUSH1 0xD DUP4 MSTORE DUP2 DUP5 KECCAK256 CALLER DUP6 MSTORE SWAP1 SWAP3 MSTORE SWAP1 SWAP2 KECCAK256 PUSH1 0x2 ADD DUP1 SLOAD PUSH1 0x1 PUSH1 0x1 PUSH1 0xA0 SHL SUB NOT AND SWAP2 SWAP1 SWAP3 AND OR SWAP1 SSTORE JUMPDEST PUSH2 0x305E JUMP JUMPDEST PUSH2 0x305E DUP5 CALLER PUSH1 0x40 DUP1 MLOAD PUSH1 0x80 DUP2 ADD DUP3 MSTORE PUSH1 0x5 SWAP2 DUP2 ADD SWAP2 DUP3 MSTORE PUSH5 0x7374616B65 PUSH1 0xD8 SHL PUSH1 0x60 DUP3 ADD MSTORE SWAP1 DUP2 MSTORE PUSH1 0x20 DUP2 ADD PUSH2 0x1A44 PUSH2 0x1A3F DUP10 PUSH2 0x2A61 JUMP JUMPDEST PUSH1 0x1 PUSH1 0x1 PUSH1 0xA0 SHL SUB DUP5 AND PUSH1 0x0 SWAP1 DUP2 MSTORE PUSH1 0xD PUSH1 0x20 SWAP1 DUP2 MSTORE PUSH1 0x40 DUP1 DUP4 KECCAK256 CALLER DUP5 MSTORE SWAP1 SWAP2 MSTORE DUP2 KECCAK256 PUSH1 0x1 ADD DUP1 SLOAD DUP4 SWAP3 SWAP1 PUSH2 0x3094 SWAP1 DUP5 SWAP1 PUSH2 0x5190 JUMP JUMPDEST SWAP1 SWAP2 SSTORE POP POP PUSH1 0x1 PUSH1 0x1 PUSH1 0xA0 SHL SUB DUP5 AND PUSH1 0x0 SWAP1 DUP2 MSTORE PUSH1 0xD PUSH1 0x20 SWAP1 DUP2 MSTORE PUSH1 0x40 DUP1 DUP4 KECCAK256 CALLER DUP5 MSTORE SWAP1 SWAP2 MSTORE SWAP1 KECCAK256 PUSH1 0x5 ADD SLOAD ISZERO PUSH2 0x30F6 JUMPI PUSH1 0x1 PUSH1 0x1 PUSH1 0xA0 SHL SUB DUP5 AND PUSH1 0x0 SWAP1 DUP2 MSTORE PUSH1 0xD PUSH1 0x20 SWAP1 DUP2 MSTORE PUSH1 0x40 DUP1 DUP4 KECCAK256 CALLER DUP5 MSTORE SWAP1 SWAP2 MSTORE SWAP1 KECCAK256 TIMESTAMP PUSH1 0x6 SWAP1 SWAP2 ADD DUP2 SWAP1 SSTORE PUSH2 0x3123 JUMP JUMPDEST PUSH1 0x1 PUSH1 0x1 PUSH1 0xA0 SHL SUB DUP5 AND PUSH1 0x0 SWAP1 DUP2 MSTORE PUSH1 0xD PUSH1 0x20 SWAP1 DUP2 MSTORE PUSH1 0x40 DUP1 DUP4 KECCAK256 CALLER DUP5 MSTORE SWAP1 SWAP2 MSTORE SWAP1 KECCAK256 TIMESTAMP PUSH1 0x5 SWAP1 SWAP2 ADD DUP2 SWAP1 SSTORE JUMPDEST POP PUSH1 0x1 PUSH1 0x1 PUSH1 0xA0 SHL SUB DUP5 AND PUSH1 0x0 SWAP1 DUP2 MSTORE PUSH1 0xA PUSH1 0x20 MSTORE PUSH1 0x40 DUP2 KECCAK256 PUSH1 0x5 ADD DUP1 SLOAD DUP4 SWAP3 SWAP1 PUSH2 0x314F SWAP1 DUP5 SWAP1 PUSH2 0x5190 JUMP JUMPDEST SWAP1 SWAP2 SSTORE POP POP PUSH1 0x1 PUSH1 0x1 PUSH1 0xA0 SHL SUB DUP5 AND PUSH1 0x0 DUP2 DUP2 MSTORE PUSH1 0xA PUSH1 0x20 MSTORE PUSH1 0x40 SWAP1 KECCAK256 TIMESTAMP PUSH1 0xC SWAP1 SWAP2 ADD SSTORE CALLER PUSH1 0x1 PUSH1 0x1 PUSH1 0xA0 SHL SUB AND PUSH32 0x99039FCF0A98F484616C5196EE8B2ECFA971BABF0B519848289EA4DB381F85F7 DUP4 PUSH1 0x40 MLOAD PUSH2 0x1D9B SWAP2 DUP2 MSTORE PUSH1 0x20 ADD SWAP1 JUMP JUMPDEST PUSH1 0xB DUP2 DUP2 SLOAD DUP2 LT PUSH2 0x1547 JUMPI PUSH1 0x0 DUP1 REVERT JUMPDEST PUSH1 0x0 DUP2 ISZERO PUSH2 0x337F JUMPI PUSH1 0x1 PUSH1 0x1 PUSH1 0xA0 SHL SUB DUP5 AND PUSH1 0x0 SWAP1 DUP2 MSTORE PUSH1 0xA PUSH1 0x20 MSTORE PUSH1 0x40 SWAP1 KECCAK256 SLOAD PUSH1 0xFF AND PUSH2 0x3222 JUMPI PUSH1 0x40 MLOAD PUSH3 0x461BCD PUSH1 0xE5 SHL DUP2 MSTORE PUSH1 0x20 PUSH1 0x4 DUP3 ADD MSTORE PUSH1 0x11 PUSH1 0x24 DUP3 ADD MSTORE PUSH17 0x2A37B5B2B7103737BA1030B1BA34BB3297 PUSH1 0x79 SHL PUSH1 0x44 DUP3 ADD MSTORE PUSH1 0x64 ADD PUSH2 0xC68 JUMP JUMPDEST PUSH1 0x1 PUSH1 0x1 PUSH1 0xA0 SHL SUB DUP5 AND PUSH1 0x0 SWAP1 DUP2 MSTORE PUSH1 0xA PUSH1 0x20 MSTORE PUSH1 0x40 SWAP1 KECCAK256 SLOAD PUSH2 0x100 SWAP1 DIV PUSH1 0xFF AND PUSH2 0x3299 JUMPI PUSH1 0x40 MLOAD PUSH3 0x461BCD PUSH1 0xE5 SHL DUP2 MSTORE PUSH1 0x20 PUSH1 0x4 DUP3 ADD MSTORE PUSH1 0x21 PUSH1 0x24 DUP3 ADD MSTORE PUSH32 0x546F6B656E20646F6573206E6F742068617665206D756C746920726577617264 PUSH1 0x44 DUP3 ADD MSTORE PUSH1 0x17 PUSH1 0xF9 SHL PUSH1 0x64 DUP3 ADD MSTORE PUSH1 0x84 ADD PUSH2 0xC68 JUMP JUMPDEST PUSH1 0x1 PUSH1 0x1 PUSH1 0xA0 SHL SUB DUP4 AND PUSH1 0x0 SWAP1 DUP2 MSTORE PUSH1 0xA PUSH1 0x20 MSTORE PUSH1 0x40 SWAP1 KECCAK256 SLOAD PUSH1 0xFF AND PUSH2 0x3301 JUMPI PUSH1 0x40 MLOAD PUSH3 0x461BCD PUSH1 0xE5 SHL DUP2 MSTORE PUSH1 0x20 PUSH1 0x4 DUP3 ADD MSTORE PUSH1 0x18 PUSH1 0x24 DUP3 ADD MSTORE PUSH32 0x52657761726420746F6B656E206E6F74206163746976652E0000000000000000 PUSH1 0x44 DUP3 ADD MSTORE PUSH1 0x64 ADD PUSH2 0xC68 JUMP JUMPDEST PUSH1 0x1 PUSH1 0x1 PUSH1 0xA0 SHL SUB DUP4 AND PUSH1 0x0 SWAP1 DUP2 MSTORE PUSH1 0xA PUSH1 0x20 MSTORE PUSH1 0x40 SWAP1 KECCAK256 SLOAD PUSH2 0x100 SWAP1 DIV PUSH1 0xFF AND PUSH2 0x337F JUMPI PUSH1 0x40 MLOAD PUSH3 0x461BCD PUSH1 0xE5 SHL DUP2 MSTORE PUSH1 0x20 PUSH1 0x4 DUP3 ADD MSTORE PUSH1 0x28 PUSH1 0x24 DUP3 ADD MSTORE PUSH32 0x52657761726420746F6B656E20646F6573206E6F742068617665206D756C7469 PUSH1 0x44 DUP3 ADD MSTORE PUSH8 0x103932BBB0B93217 PUSH1 0xC1 SHL PUSH1 0x64 DUP3 ADD MSTORE PUSH1 0x84 ADD PUSH2 0xC68 JUMP JUMPDEST PUSH2 0x3388 DUP6 PUSH2 0x268E JUMP JUMPDEST PUSH2 0x3395 JUMPI PUSH2 0x3395 DUP6 PUSH2 0x3F69 JUMP JUMPDEST POP POP PUSH1 0x1 PUSH1 0x1 PUSH1 0xA0 SHL SUB SWAP2 DUP3 AND PUSH1 0x0 SWAP1 DUP2 MSTORE PUSH1 0xD PUSH1 0x20 SWAP1 DUP2 MSTORE PUSH1 0x40 DUP1 DUP4 KECCAK256 SWAP6 DUP6 AND DUP4 MSTORE SWAP5 SWAP1 MSTORE SWAP3 SWAP1 SWAP3 KECCAK256 PUSH1 0x2 ADD DUP1 SLOAD PUSH1 0x1 PUSH1 0x1 PUSH1 0xA0 SHL SUB NOT AND SWAP3 SWAP1 SWAP2 AND SWAP2 DUP3 OR SWAP1 SSTORE SWAP1 JUMP JUMPDEST PUSH2 0x2828 DUP2 CALLER PUSH2 0x4019 JUMP JUMPDEST PUSH2 0x33EE DUP3 DUP3 PUSH2 0x1FDA JUMP JUMPDEST PUSH2 0x1223 JUMPI PUSH1 0x0 DUP3 DUP2 MSTORE PUSH1 0x1 PUSH1 0x20 DUP2 DUP2 MSTORE PUSH1 0x40 DUP1 DUP5 KECCAK256 PUSH1 0x1 PUSH1 0x1 PUSH1 0xA0 SHL SUB DUP7 AND DUP1 DUP7 MSTORE SWAP3 MSTORE DUP1 DUP5 KECCAK256 DUP1 SLOAD PUSH1 0xFF NOT AND SWAP1 SWAP4 OR SWAP1 SWAP3 SSTORE SWAP1 MLOAD CALLER SWAP3 DUP6 SWAP2 PUSH32 0x2F8788117E7EFF1D82E926EC794901D17C78024A50270940304540A733656F0D SWAP2 SWAP1 LOG4 POP POP JUMP JUMPDEST PUSH2 0x3459 DUP3 DUP3 PUSH2 0x1FDA JUMP JUMPDEST ISZERO PUSH2 0x1223 JUMPI PUSH1 0x0 DUP3 DUP2 MSTORE PUSH1 0x1 PUSH1 0x20 SWAP1 DUP2 MSTORE PUSH1 0x40 DUP1 DUP4 KECCAK256 PUSH1 0x1 PUSH1 0x1 PUSH1 0xA0 SHL SUB DUP6 AND DUP1 DUP6 MSTORE SWAP3 MSTORE DUP1 DUP4 KECCAK256 DUP1 SLOAD PUSH1 0xFF NOT AND SWAP1 SSTORE MLOAD CALLER SWAP3 DUP6 SWAP2 PUSH32 0xF6391F5C32D9C69D2A47EA670B442974B53935D1EDC7FD64EB21E047A839171B SWAP2 SWAP1 LOG4 POP POP JUMP JUMPDEST PUSH1 0x60 DUP2 PUSH1 0x0 SUB PUSH2 0x34DD JUMPI POP POP PUSH1 0x40 DUP1 MLOAD DUP1 DUP3 ADD SWAP1 SWAP2 MSTORE PUSH1 0x1 DUP2 MSTORE PUSH1 0x3 PUSH1 0xFC SHL PUSH1 0x20 DUP3 ADD MSTORE SWAP1 JUMP JUMPDEST DUP2 PUSH1 0x0 JUMPDEST DUP2 ISZERO PUSH2 0x3507 JUMPI DUP1 PUSH2 0x34F1 DUP2 PUSH2 0x5235 JUMP JUMPDEST SWAP2 POP PUSH2 0x3500 SWAP1 POP PUSH1 0xA DUP4 PUSH2 0x520B JUMP JUMPDEST SWAP2 POP PUSH2 0x34E1 JUMP JUMPDEST PUSH1 0x0 DUP2 PUSH8 0xFFFFFFFFFFFFFFFF DUP2 GT ISZERO PUSH2 0x3522 JUMPI PUSH2 0x3522 PUSH2 0x4CF5 JUMP JUMPDEST PUSH1 0x40 MLOAD SWAP1 DUP1 DUP3 MSTORE DUP1 PUSH1 0x1F ADD PUSH1 0x1F NOT AND PUSH1 0x20 ADD DUP3 ADD PUSH1 0x40 MSTORE DUP1 ISZERO PUSH2 0x354C JUMPI PUSH1 0x20 DUP3 ADD DUP2 DUP1 CALLDATASIZE DUP4 CALLDATACOPY ADD SWAP1 POP JUMPDEST POP SWAP1 POP JUMPDEST DUP5 ISZERO PUSH2 0x35B7 JUMPI PUSH2 0x3561 PUSH1 0x1 DUP4 PUSH2 0x51C7 JUMP JUMPDEST SWAP2 POP PUSH2 0x356E PUSH1 0xA DUP7 PUSH2 0x524E JUMP JUMPDEST PUSH2 0x3579 SWAP1 PUSH1 0x30 PUSH2 0x5190 JUMP JUMPDEST PUSH1 0xF8 SHL DUP2 DUP4 DUP2 MLOAD DUP2 LT PUSH2 0x358E JUMPI PUSH2 0x358E PUSH2 0x521F JUMP JUMPDEST PUSH1 0x20 ADD ADD SWAP1 PUSH1 0x1 PUSH1 0x1 PUSH1 0xF8 SHL SUB NOT AND SWAP1 DUP2 PUSH1 0x0 BYTE SWAP1 MSTORE8 POP PUSH2 0x35B0 PUSH1 0xA DUP7 PUSH2 0x520B JUMP JUMPDEST SWAP5 POP PUSH2 0x3550 JUMP JUMPDEST SWAP5 SWAP4 POP POP POP POP JUMP JUMPDEST PUSH1 0x1 PUSH1 0x1 PUSH1 0xA0 SHL SUB DUP4 AND PUSH1 0x0 SWAP1 DUP2 MSTORE PUSH1 0xA PUSH1 0x20 MSTORE PUSH1 0x40 SWAP1 KECCAK256 SLOAD PUSH1 0xFF AND PUSH2 0x35E4 JUMPI POP POP POP JUMP JUMPDEST PUSH1 0x1 PUSH1 0x1 PUSH1 0xA0 SHL SUB DUP3 AND PUSH1 0x0 SWAP1 DUP2 MSTORE PUSH1 0xC PUSH1 0x20 MSTORE PUSH1 0x40 SWAP1 KECCAK256 SLOAD PUSH1 0xFF AND PUSH2 0x3609 JUMPI POP POP POP JUMP JUMPDEST PUSH1 0x1 PUSH1 0x1 PUSH1 0xA0 SHL SUB DUP4 AND PUSH1 0x0 SWAP1 DUP2 MSTORE PUSH1 0xA PUSH1 0x20 SWAP1 DUP2 MSTORE PUSH1 0x40 DUP1 DUP4 KECCAK256 DUP2 MLOAD PUSH2 0x1C0 DUP2 ADD DUP4 MSTORE DUP2 SLOAD PUSH1 0xFF DUP1 DUP3 AND ISZERO ISZERO DUP4 MSTORE PUSH2 0x100 SWAP1 SWAP2 DIV AND ISZERO ISZERO SWAP4 DUP2 ADD SWAP4 SWAP1 SWAP4 MSTORE PUSH1 0x1 DUP2 ADD DUP1 SLOAD SWAP2 SWAP3 DUP5 ADD SWAP2 PUSH2 0x365C SWAP1 PUSH2 0x5060 JUMP JUMPDEST DUP1 PUSH1 0x1F ADD PUSH1 0x20 DUP1 SWAP2 DIV MUL PUSH1 0x20 ADD PUSH1 0x40 MLOAD SWAP1 DUP2 ADD PUSH1 0x40 MSTORE DUP1 SWAP3 SWAP2 SWAP1 DUP2 DUP2 MSTORE PUSH1 0x20 ADD DUP3 DUP1 SLOAD PUSH2 0x3688 SWAP1 PUSH2 0x5060 JUMP JUMPDEST DUP1 ISZERO PUSH2 0x36D5 JUMPI DUP1 PUSH1 0x1F LT PUSH2 0x36AA JUMPI PUSH2 0x100 DUP1 DUP4 SLOAD DIV MUL DUP4 MSTORE SWAP2 PUSH1 0x20 ADD SWAP2 PUSH2 0x36D5 JUMP JUMPDEST DUP3 ADD SWAP2 SWAP1 PUSH1 0x0 MSTORE PUSH1 0x20 PUSH1 0x0 KECCAK256 SWAP1 JUMPDEST DUP2 SLOAD DUP2 MSTORE SWAP1 PUSH1 0x1 ADD SWAP1 PUSH1 0x20 ADD DUP1 DUP4 GT PUSH2 0x36B8 JUMPI DUP3 SWAP1 SUB PUSH1 0x1F AND DUP3 ADD SWAP2 JUMPDEST POP POP POP SWAP2 DUP4 MSTORE POP POP PUSH1 0x2 DUP3 DUP2 ADD SLOAD PUSH1 0x20 DUP1 DUP5 ADD SWAP2 SWAP1 SWAP2 MSTORE PUSH1 0x3 DUP1 DUP6 ADD SLOAD PUSH1 0x40 DUP1 DUP7 ADD SWAP2 SWAP1 SWAP2 MSTORE PUSH1 0x4 DUP7 ADD SLOAD PUSH1 0x60 DUP1 DUP8 ADD SWAP2 SWAP1 SWAP2 MSTORE PUSH1 0x5 DUP8 ADD SLOAD PUSH1 0x80 DUP8 ADD MSTORE PUSH1 0x6 DUP8 ADD SLOAD PUSH1 0xA0 DUP8 ADD MSTORE PUSH1 0x7 DUP8 ADD SLOAD PUSH1 0xC0 DUP8 ADD MSTORE PUSH1 0x8 DUP8 ADD SLOAD PUSH1 0xE0 DUP1 DUP9 ADD SWAP2 SWAP1 SWAP2 MSTORE PUSH1 0x9 DUP9 ADD SLOAD PUSH1 0x1 PUSH1 0x1 PUSH1 0xA0 SHL SUB SWAP1 DUP2 AND PUSH2 0x100 DUP10 ADD MSTORE PUSH1 0xA DUP10 ADD SLOAD DUP2 AND PUSH2 0x120 DUP10 ADD MSTORE PUSH1 0xB DUP10 ADD SLOAD PUSH2 0x140 DUP10 ADD MSTORE PUSH1 0xC SWAP1 SWAP9 ADD SLOAD PUSH2 0x160 SWAP1 SWAP8 ADD SWAP7 SWAP1 SWAP7 MSTORE DUP12 DUP8 AND PUSH1 0x0 SWAP1 DUP2 MSTORE PUSH1 0xD DUP6 MSTORE DUP3 DUP2 KECCAK256 DUP13 DUP10 AND DUP3 MSTORE DUP6 MSTORE DUP3 DUP2 KECCAK256 DUP4 MLOAD SWAP8 DUP9 ADD DUP5 MSTORE DUP1 SLOAD DUP9 MSTORE PUSH1 0x1 DUP2 ADD SLOAD DUP9 DUP8 ADD MSTORE SWAP6 DUP7 ADD SLOAD SWAP1 SWAP8 AND DUP7 DUP4 ADD MSTORE SWAP2 DUP5 ADD DUP1 SLOAD DUP3 MLOAD DUP2 DUP7 MUL DUP2 ADD DUP7 ADD SWAP1 SWAP4 MSTORE DUP1 DUP4 MSTORE SWAP8 SWAP9 POP SWAP6 SWAP7 SWAP5 SWAP6 SWAP4 SWAP5 SWAP2 DUP7 ADD SWAP4 SWAP1 SWAP3 SWAP1 SWAP2 SWAP1 DUP8 SWAP1 DUP5 ADD JUMPDEST DUP3 DUP3 LT ISZERO PUSH2 0x3949 JUMPI PUSH1 0x0 DUP5 DUP2 MSTORE PUSH1 0x20 DUP1 DUP3 KECCAK256 PUSH1 0x40 DUP1 MLOAD PUSH2 0x180 DUP2 ADD DUP3 MSTORE PUSH1 0xD DUP8 MUL SWAP1 SWAP3 ADD DUP1 SLOAD DUP4 MSTORE PUSH1 0x1 DUP2 ADD SLOAD PUSH1 0x1 PUSH1 0x1 PUSH1 0xA0 SHL SUB SWAP1 DUP2 AND SWAP5 DUP5 ADD SWAP5 SWAP1 SWAP5 MSTORE PUSH1 0x2 DUP1 DUP3 ADD SLOAD DUP6 AND DUP5 DUP5 ADD MSTORE PUSH1 0x3 DUP3 ADD SLOAD PUSH1 0x60 DUP6 ADD MSTORE PUSH1 0x4 DUP3 ADD SLOAD PUSH1 0x80 DUP6 ADD MSTORE PUSH1 0x5 DUP3 ADD SLOAD SWAP1 SWAP5 AND PUSH1 0xA0 DUP5 ADD MSTORE PUSH1 0x6 DUP2 ADD SLOAD PUSH1 0xC0 DUP5 ADD MSTORE PUSH1 0x7 DUP2 ADD SLOAD PUSH1 0xE0 DUP5 ADD MSTORE PUSH1 0x8 DUP2 ADD SLOAD PUSH2 0x100 DUP5 ADD MSTORE DUP2 MLOAD DUP1 DUP4 ADD SWAP1 SWAP3 MSTORE SWAP2 SWAP4 SWAP2 SWAP3 PUSH2 0x120 DUP6 ADD SWAP3 PUSH1 0x9 DUP6 ADD SWAP2 SWAP1 DUP4 JUMPDEST DUP3 DUP3 LT ISZERO PUSH2 0x391E JUMPI DUP4 DUP3 ADD DUP1 SLOAD PUSH2 0x3891 SWAP1 PUSH2 0x5060 JUMP JUMPDEST DUP1 PUSH1 0x1F ADD PUSH1 0x20 DUP1 SWAP2 DIV MUL PUSH1 0x20 ADD PUSH1 0x40 MLOAD SWAP1 DUP2 ADD PUSH1 0x40 MSTORE DUP1 SWAP3 SWAP2 SWAP1 DUP2 DUP2 MSTORE PUSH1 0x20 ADD DUP3 DUP1 SLOAD PUSH2 0x38BD SWAP1 PUSH2 0x5060 JUMP JUMPDEST DUP1 ISZERO PUSH2 0x390A JUMPI DUP1 PUSH1 0x1F LT PUSH2 0x38DF JUMPI PUSH2 0x100 DUP1 DUP4 SLOAD DIV MUL DUP4 MSTORE SWAP2 PUSH1 0x20 ADD SWAP2 PUSH2 0x390A JUMP JUMPDEST DUP3 ADD SWAP2 SWAP1 PUSH1 0x0 MSTORE PUSH1 0x20 PUSH1 0x0 KECCAK256 SWAP1 JUMPDEST DUP2 SLOAD DUP2 MSTORE SWAP1 PUSH1 0x1 ADD SWAP1 PUSH1 0x20 ADD DUP1 DUP4 GT PUSH2 0x38ED JUMPI DUP3 SWAP1 SUB PUSH1 0x1F AND DUP3 ADD SWAP2 JUMPDEST POP POP POP POP POP DUP2 MSTORE PUSH1 0x20 ADD SWAP1 PUSH1 0x1 ADD SWAP1 PUSH2 0x387B JUMP JUMPDEST POP POP POP POP DUP2 MSTORE PUSH1 0x20 ADD PUSH1 0xB DUP3 ADD SLOAD DUP2 MSTORE PUSH1 0x20 ADD PUSH1 0xC DUP3 ADD SLOAD DUP2 MSTORE POP POP DUP2 MSTORE PUSH1 0x20 ADD SWAP1 PUSH1 0x1 ADD SWAP1 PUSH2 0x37D6 JUMP JUMPDEST POP POP POP POP DUP2 MSTORE PUSH1 0x20 ADD PUSH1 0x4 DUP3 ADD SLOAD DUP2 MSTORE PUSH1 0x20 ADD PUSH1 0x5 DUP3 ADD SLOAD DUP2 MSTORE PUSH1 0x20 ADD PUSH1 0x6 DUP3 ADD SLOAD DUP2 MSTORE POP POP SWAP1 POP PUSH1 0x0 DUP2 PUSH1 0x20 ADD MLOAD GT PUSH2 0x3984 JUMPI POP POP POP POP POP JUMP JUMPDEST PUSH1 0x40 DUP1 DUP3 ADD MLOAD PUSH1 0x1 PUSH1 0x1 PUSH1 0xA0 SHL SUB AND PUSH1 0x0 SWAP1 DUP2 MSTORE PUSH1 0xA PUSH1 0x20 MSTORE KECCAK256 SLOAD PUSH1 0xFF AND PUSH2 0x3A0D JUMPI DUP2 PUSH2 0x140 ADD MLOAD PUSH1 0x1 PUSH1 0x1 PUSH1 0xA0 SHL SUB AND DUP2 PUSH1 0x40 ADD MLOAD PUSH1 0x1 PUSH1 0x1 PUSH1 0xA0 SHL SUB AND SUB PUSH2 0x39CF JUMPI POP POP POP POP POP JUMP JUMPDEST PUSH2 0x39E1 DUP5 DUP7 DUP5 PUSH2 0x140 ADD MLOAD PUSH1 0x0 PUSH2 0x31BE JUMP JUMPDEST PUSH1 0x1 PUSH1 0x1 PUSH1 0xA0 SHL SUB AND PUSH1 0x40 DUP1 DUP4 ADD DUP3 SWAP1 MSTORE PUSH1 0x0 SWAP2 DUP3 MSTORE PUSH1 0xA PUSH1 0x20 MSTORE SWAP1 KECCAK256 SLOAD PUSH1 0xFF AND PUSH2 0x3A0D JUMPI POP POP POP POP POP JUMP JUMPDEST PUSH1 0x0 DUP1 PUSH1 0x0 DUP1 PUSH2 0x3A1D DUP9 DUP11 PUSH2 0x407D JUMP JUMPDEST SWAP4 POP SWAP4 POP SWAP4 POP SWAP4 POP DUP4 PUSH1 0x0 SUB PUSH2 0x3A38 JUMPI POP POP POP POP POP POP POP POP POP JUMP JUMPDEST PUSH1 0x0 PUSH2 0x3A47 DUP7 PUSH1 0x40 ADD MLOAD PUSH2 0x117C JUMP JUMPDEST SWAP1 POP DUP5 DUP2 LT ISZERO PUSH2 0x3AC6 JUMPI DUP7 PUSH2 0x140 ADD MLOAD PUSH1 0x1 PUSH1 0x1 PUSH1 0xA0 SHL SUB AND DUP7 PUSH1 0x40 ADD MLOAD PUSH1 0x1 PUSH1 0x1 PUSH1 0xA0 SHL SUB AND SUB PUSH2 0x3A88 JUMPI PUSH2 0x3A7C DUP11 PUSH2 0x18DA JUMP JUMPDEST POP POP POP POP POP POP POP POP POP POP JUMP JUMPDEST PUSH2 0x3A9A DUP10 DUP12 DUP10 PUSH2 0x140 ADD MLOAD PUSH1 0x0 PUSH2 0x31BE JUMP JUMPDEST PUSH1 0x1 PUSH1 0x1 PUSH1 0xA0 SHL SUB AND PUSH1 0x40 DUP8 ADD DUP2 SWAP1 MSTORE PUSH2 0x3AB3 SWAP1 PUSH2 0x117C JUMP JUMPDEST SWAP1 POP DUP5 DUP2 LT ISZERO PUSH2 0x3AC6 JUMPI PUSH2 0x3A7C DUP11 PUSH2 0x18DA JUMP JUMPDEST PUSH1 0x40 DUP1 DUP8 ADD MLOAD PUSH1 0x1 PUSH1 0x1 PUSH1 0xA0 SHL SUB AND PUSH1 0x0 SWAP1 DUP2 MSTORE PUSH1 0xA PUSH1 0x20 MSTORE SWAP1 DUP2 KECCAK256 PUSH1 0x3 ADD SLOAD SWAP1 DUP2 PUSH2 0x3AF1 DUP9 PUSH2 0x1888 JUMP JUMPDEST PUSH2 0x3AFB SWAP2 SWAP1 PUSH2 0x520B JUMP JUMPDEST SWAP1 POP PUSH1 0x0 DUP2 GT PUSH2 0x3B13 JUMPI POP POP POP POP POP POP POP POP POP POP POP POP JUMP JUMPDEST PUSH1 0x40 DUP1 DUP10 ADD MLOAD PUSH1 0x1 PUSH1 0x1 PUSH1 0xA0 SHL SUB AND PUSH1 0x0 SWAP1 DUP2 MSTORE PUSH1 0xA PUSH1 0x20 MSTORE SWAP1 DUP2 KECCAK256 PUSH1 0x4 ADD DUP1 SLOAD DUP4 SWAP3 SWAP1 PUSH2 0x3B42 SWAP1 DUP5 SWAP1 PUSH2 0x51C7 JUMP JUMPDEST SWAP1 SWAP2 SSTORE POP POP PUSH1 0x40 DUP1 DUP10 ADD DUP1 MLOAD PUSH1 0x1 PUSH1 0x1 PUSH1 0xA0 SHL SUB SWAP1 DUP2 AND PUSH1 0x0 SWAP1 DUP2 MSTORE PUSH1 0xA PUSH1 0x20 SWAP1 DUP2 MSTORE DUP5 DUP3 KECCAK256 TIMESTAMP PUSH1 0xC SWAP1 SWAP2 ADD SSTORE SWAP3 MLOAD DUP3 AND DUP2 MSTORE PUSH1 0xD DUP4 MSTORE DUP4 DUP2 KECCAK256 SWAP2 DUP16 AND DUP2 MSTORE SWAP2 MSTORE SWAP1 DUP2 KECCAK256 DUP1 SLOAD DUP4 SWAP3 SWAP1 PUSH2 0x3B96 SWAP1 DUP5 SWAP1 PUSH2 0x5190 JUMP JUMPDEST SWAP3 POP POP DUP2 SWAP1 SSTORE POP TIMESTAMP PUSH1 0xD PUSH1 0x0 DUP11 PUSH1 0x40 ADD MLOAD PUSH1 0x1 PUSH1 0x1 PUSH1 0xA0 SHL SUB AND PUSH1 0x1 PUSH1 0x1 PUSH1 0xA0 SHL SUB AND DUP2 MSTORE PUSH1 0x20 ADD SWAP1 DUP2 MSTORE PUSH1 0x20 ADD PUSH1 0x0 KECCAK256 PUSH1 0x0 DUP14 PUSH1 0x1 PUSH1 0x1 PUSH1 0xA0 SHL SUB AND PUSH1 0x1 PUSH1 0x1 PUSH1 0xA0 SHL SUB AND DUP2 MSTORE PUSH1 0x20 ADD SWAP1 DUP2 MSTORE PUSH1 0x20 ADD PUSH1 0x0 KECCAK256 PUSH1 0x6 ADD DUP2 SWAP1 SSTORE POP TIMESTAMP PUSH1 0xD PUSH1 0x0 DUP15 PUSH1 0x1 PUSH1 0x1 PUSH1 0xA0 SHL SUB AND PUSH1 0x1 PUSH1 0x1 PUSH1 0xA0 SHL SUB AND DUP2 MSTORE PUSH1 0x20 ADD SWAP1 DUP2 MSTORE PUSH1 0x20 ADD PUSH1 0x0 KECCAK256 PUSH1 0x0 DUP14 PUSH1 0x1 PUSH1 0x1 PUSH1 0xA0 SHL SUB AND PUSH1 0x1 PUSH1 0x1 PUSH1 0xA0 SHL SUB AND DUP2 MSTORE PUSH1 0x20 ADD SWAP1 DUP2 MSTORE PUSH1 0x20 ADD PUSH1 0x0 KECCAK256 PUSH1 0x4 ADD DUP2 SWAP1 SSTORE POP PUSH2 0x3C49 PUSH2 0x47B7 JUMP JUMPDEST PUSH1 0xD PUSH1 0x0 DUP15 PUSH1 0x1 PUSH1 0x1 PUSH1 0xA0 SHL SUB AND PUSH1 0x1 PUSH1 0x1 PUSH1 0xA0 SHL SUB AND DUP2 MSTORE PUSH1 0x20 ADD SWAP1 DUP2 MSTORE PUSH1 0x20 ADD PUSH1 0x0 KECCAK256 PUSH1 0x0 DUP14 PUSH1 0x1 PUSH1 0x1 PUSH1 0xA0 SHL SUB AND PUSH1 0x1 PUSH1 0x1 PUSH1 0xA0 SHL SUB AND DUP2 MSTORE PUSH1 0x20 ADD SWAP1 DUP2 MSTORE PUSH1 0x20 ADD PUSH1 0x0 KECCAK256 PUSH1 0x3 ADD DUP1 SLOAD SWAP1 POP DUP2 PUSH1 0x0 ADD DUP2 DUP2 MSTORE POP POP DUP12 DUP2 PUSH1 0x20 ADD SWAP1 PUSH1 0x1 PUSH1 0x1 PUSH1 0xA0 SHL SUB AND SWAP1 DUP2 PUSH1 0x1 PUSH1 0x1 PUSH1 0xA0 SHL SUB AND DUP2 MSTORE POP POP DUP13 DUP2 PUSH1 0x40 ADD SWAP1 PUSH1 0x1 PUSH1 0x1 PUSH1 0xA0 SHL SUB AND SWAP1 DUP2 PUSH1 0x1 PUSH1 0x1 PUSH1 0xA0 SHL SUB AND DUP2 MSTORE POP POP DUP5 DUP2 PUSH1 0x60 ADD DUP2 DUP2 MSTORE POP POP DUP9 PUSH1 0x20 ADD MLOAD DUP2 PUSH1 0x80 ADD DUP2 DUP2 MSTORE POP POP DUP9 PUSH1 0x40 ADD MLOAD DUP2 PUSH1 0xA0 ADD SWAP1 PUSH1 0x1 PUSH1 0x1 PUSH1 0xA0 SHL SUB AND SWAP1 DUP2 PUSH1 0x1 PUSH1 0x1 PUSH1 0xA0 SHL SUB AND DUP2 MSTORE POP POP DUP3 DUP2 PUSH1 0xC0 ADD DUP2 DUP2 MSTORE POP POP DUP2 DUP2 PUSH1 0xE0 ADD DUP2 DUP2 MSTORE POP POP DUP7 DUP2 PUSH2 0x100 ADD DUP2 DUP2 MSTORE POP POP DUP11 DUP2 PUSH2 0x120 ADD DUP2 SWAP1 MSTORE POP TIMESTAMP DUP2 PUSH2 0x140 ADD DUP2 DUP2 MSTORE POP POP PUSH1 0xD PUSH1 0x0 DUP15 PUSH1 0x1 PUSH1 0x1 PUSH1 0xA0 SHL SUB AND PUSH1 0x1 PUSH1 0x1 PUSH1 0xA0 SHL SUB AND DUP2 MSTORE PUSH1 0x20 ADD SWAP1 DUP2 MSTORE PUSH1 0x20 ADD PUSH1 0x0 KECCAK256 PUSH1 0x0 DUP14 PUSH1 0x1 PUSH1 0x1 PUSH1 0xA0 SHL SUB AND PUSH1 0x1 PUSH1 0x1 PUSH1 0xA0 SHL SUB AND DUP2 MSTORE PUSH1 0x20 ADD SWAP1 DUP2 MSTORE PUSH1 0x20 ADD PUSH1 0x0 KECCAK256 PUSH1 0x3 ADD DUP2 SWAP1 DUP1 PUSH1 0x1 DUP2 SLOAD ADD DUP1 DUP3 SSTORE DUP1 SWAP2 POP POP PUSH1 0x1 SWAP1 SUB SWAP1 PUSH1 0x0 MSTORE PUSH1 0x20 PUSH1 0x0 KECCAK256 SWAP1 PUSH1 0xD MUL ADD PUSH1 0x0 SWAP1 SWAP2 SWAP1 SWAP2 SWAP1 SWAP2 POP PUSH1 0x0 DUP3 ADD MLOAD DUP2 PUSH1 0x0 ADD SSTORE PUSH1 0x20 DUP3 ADD MLOAD DUP2 PUSH1 0x1 ADD PUSH1 0x0 PUSH2 0x100 EXP DUP2 SLOAD DUP2 PUSH1 0x1 PUSH1 0x1 PUSH1 0xA0 SHL SUB MUL NOT AND SWAP1 DUP4 PUSH1 0x1 PUSH1 0x1 PUSH1 0xA0 SHL SUB AND MUL OR SWAP1 SSTORE POP PUSH1 0x40 DUP3 ADD MLOAD DUP2 PUSH1 0x2 ADD PUSH1 0x0 PUSH2 0x100 EXP DUP2 SLOAD DUP2 PUSH1 0x1 PUSH1 0x1 PUSH1 0xA0 SHL SUB MUL NOT AND SWAP1 DUP4 PUSH1 0x1 PUSH1 0x1 PUSH1 0xA0 SHL SUB AND MUL OR SWAP1 SSTORE POP PUSH1 0x60 DUP3 ADD MLOAD DUP2 PUSH1 0x3 ADD SSTORE PUSH1 0x80 DUP3 ADD MLOAD DUP2 PUSH1 0x4 ADD SSTORE PUSH1 0xA0 DUP3 ADD MLOAD DUP2 PUSH1 0x5 ADD PUSH1 0x0 PUSH2 0x100 EXP DUP2 SLOAD DUP2 PUSH1 0x1 PUSH1 0x1 PUSH1 0xA0 SHL SUB MUL NOT AND SWAP1 DUP4 PUSH1 0x1 PUSH1 0x1 PUSH1 0xA0 SHL SUB AND MUL OR SWAP1 SSTORE POP PUSH1 0xC0 DUP3 ADD MLOAD DUP2 PUSH1 0x6 ADD SSTORE PUSH1 0xE0 DUP3 ADD MLOAD DUP2 PUSH1 0x7 ADD SSTORE PUSH2 0x100 DUP3 ADD MLOAD DUP2 PUSH1 0x8 ADD SSTORE PUSH2 0x120 DUP3 ADD MLOAD DUP2 PUSH1 0x9 ADD SWAP1 PUSH1 0x2 PUSH2 0x3E9C SWAP3 SWAP2 SWAP1 PUSH2 0x4839 JUMP JUMPDEST POP PUSH2 0x140 DUP3 ADD MLOAD DUP2 PUSH1 0xB ADD SSTORE PUSH2 0x160 DUP3 ADD MLOAD DUP2 PUSH1 0xC ADD SSTORE POP POP DUP13 PUSH1 0x1 PUSH1 0x1 PUSH1 0xA0 SHL SUB AND DUP13 PUSH1 0x1 PUSH1 0x1 PUSH1 0xA0 SHL SUB AND PUSH32 0xB395C2E4B9EEFD26762AAAC5447EF5CD093097911077F60B874F4FFDC5391B36 DUP4 PUSH1 0x40 MLOAD PUSH2 0x3EF8 SWAP2 SWAP1 PUSH2 0x5262 JUMP JUMPDEST PUSH1 0x40 MLOAD DUP1 SWAP2 SUB SWAP1 LOG3 POP POP POP POP POP POP POP POP POP POP POP POP POP JUMP JUMPDEST PUSH1 0x0 DUP1 SLOAD PUSH1 0x1 PUSH1 0x1 PUSH1 0xA0 SHL SUB DUP4 DUP2 AND PUSH1 0x1 PUSH1 0x1 PUSH1 0xA0 SHL SUB NOT DUP4 AND DUP2 OR DUP5 SSTORE PUSH1 0x40 MLOAD SWAP2 SWAP1 SWAP3 AND SWAP3 DUP4 SWAP2 PUSH32 0x8BE0079C531659141344CD1FD0A4F28419497F9722A3DAAFE3B4186F6B6457E0 SWAP2 SWAP1 LOG3 POP POP JUMP JUMPDEST PUSH2 0x1223 DUP3 DUP3 PUSH2 0x33E4 JUMP JUMPDEST PUSH2 0x3F72 DUP2 PUSH2 0x268E JUMP JUMPDEST ISZERO PUSH2 0x3FB8 JUMPI PUSH1 0x40 MLOAD PUSH3 0x461BCD PUSH1 0xE5 SHL DUP2 MSTORE PUSH1 0x20 PUSH1 0x4 DUP3 ADD MSTORE PUSH1 0x16 PUSH1 0x24 DUP3 ADD MSTORE PUSH22 0x29BA30B5B2B91030B63932B0B23C9032BC34B9BA3997 PUSH1 0x51 SHL PUSH1 0x44 DUP3 ADD MSTORE PUSH1 0x64 ADD PUSH2 0xC68 JUMP JUMPDEST PUSH1 0xB DUP1 SLOAD PUSH1 0x1 DUP2 ADD SWAP1 SWAP2 SSTORE PUSH32 0x175B7A638427703F0DBE7BB9BBF987A2551717B34E79F33B5B1008D1FA01DB9 ADD DUP1 SLOAD PUSH1 0x1 PUSH1 0x1 PUSH1 0xA0 SHL SUB SWAP1 SWAP3 AND PUSH1 0x1 PUSH1 0x1 PUSH1 0xA0 SHL SUB NOT SWAP1 SWAP3 AND DUP3 OR SWAP1 SSTORE PUSH1 0x0 SWAP1 DUP2 MSTORE PUSH1 0xC PUSH1 0x20 MSTORE PUSH1 0x40 SWAP1 KECCAK256 TIMESTAMP PUSH1 0x2 SWAP1 SWAP2 ADD SSTORE JUMP JUMPDEST PUSH2 0x4023 DUP3 DUP3 PUSH2 0x1FDA JUMP JUMPDEST PUSH2 0x1223 JUMPI PUSH2 0x403B DUP2 PUSH1 0x1 PUSH1 0x1 PUSH1 0xA0 SHL SUB AND PUSH1 0x14 PUSH2 0x4590 JUMP JUMPDEST PUSH2 0x4046 DUP4 PUSH1 0x20 PUSH2 0x4590 JUMP JUMPDEST PUSH1 0x40 MLOAD PUSH1 0x20 ADD PUSH2 0x4057 SWAP3 SWAP2 SWAP1 PUSH2 0x5275 JUMP JUMPDEST PUSH1 0x40 DUP1 MLOAD PUSH1 0x1F NOT DUP2 DUP5 SUB ADD DUP2 MSTORE SWAP1 DUP3 SWAP1 MSTORE PUSH3 0x461BCD PUSH1 0xE5 SHL DUP3 MSTORE PUSH2 0xC68 SWAP2 PUSH1 0x4 ADD PUSH2 0x4F43 JUMP JUMPDEST PUSH1 0x0 DUP1 PUSH1 0x0 DUP1 PUSH2 0x408C DUP7 PUSH2 0x268E JUMP JUMPDEST PUSH2 0x40A1 JUMPI POP PUSH1 0x0 SWAP3 POP DUP3 SWAP2 POP DUP2 SWAP1 POP DUP1 PUSH2 0x4587 JUMP JUMPDEST PUSH2 0x40AA DUP6 PUSH2 0x2428 JUMP JUMPDEST PUSH2 0x40BF JUMPI POP PUSH1 0x0 SWAP3 POP DUP3 SWAP2 POP DUP2 SWAP1 POP DUP1 PUSH2 0x4587 JUMP JUMPDEST PUSH1 0x1 PUSH1 0x1 PUSH1 0xA0 SHL SUB DUP6 AND PUSH1 0x0 SWAP1 DUP2 MSTORE PUSH1 0xA PUSH1 0x20 SWAP1 DUP2 MSTORE PUSH1 0x40 DUP1 DUP4 KECCAK256 DUP2 MLOAD PUSH2 0x1C0 DUP2 ADD DUP4 MSTORE DUP2 SLOAD PUSH1 0xFF DUP1 DUP3 AND ISZERO ISZERO DUP4 MSTORE PUSH2 0x100 SWAP1 SWAP2 DIV AND ISZERO ISZERO SWAP4 DUP2 ADD SWAP4 SWAP1 SWAP4 MSTORE PUSH1 0x1 DUP2 ADD DUP1 SLOAD SWAP2 SWAP3 DUP5 ADD SWAP2 PUSH2 0x4112 SWAP1 PUSH2 0x5060 JUMP JUMPDEST DUP1 PUSH1 0x1F ADD PUSH1 0x20 DUP1 SWAP2 DIV MUL PUSH1 0x20 ADD PUSH1 0x40 MLOAD SWAP1 DUP2 ADD PUSH1 0x40 MSTORE DUP1 SWAP3 SWAP2 SWAP1 DUP2 DUP2 MSTORE PUSH1 0x20 ADD DUP3 DUP1 SLOAD PUSH2 0x413E SWAP1 PUSH2 0x5060 JUMP JUMPDEST DUP1 ISZERO PUSH2 0x418B JUMPI DUP1 PUSH1 0x1F LT PUSH2 0x4160 JUMPI PUSH2 0x100 DUP1 DUP4 SLOAD DIV MUL DUP4 MSTORE SWAP2 PUSH1 0x20 ADD SWAP2 PUSH2 0x418B JUMP JUMPDEST DUP3 ADD SWAP2 SWAP1 PUSH1 0x0 MSTORE PUSH1 0x20 PUSH1 0x0 KECCAK256 SWAP1 JUMPDEST DUP2 SLOAD DUP2 MSTORE SWAP1 PUSH1 0x1 ADD SWAP1 PUSH1 0x20 ADD DUP1 DUP4 GT PUSH2 0x416E JUMPI DUP3 SWAP1 SUB PUSH1 0x1F AND DUP3 ADD SWAP2 JUMPDEST POP POP POP POP POP DUP2 MSTORE PUSH1 0x20 ADD PUSH1 0x2 DUP3 ADD SLOAD DUP2 MSTORE PUSH1 0x20 ADD PUSH1 0x3 DUP3 ADD SLOAD DUP2 MSTORE PUSH1 0x20 ADD PUSH1 0x4 DUP3 ADD SLOAD DUP2 MSTORE PUSH1 0x20 ADD PUSH1 0x5 DUP3 ADD SLOAD DUP2 MSTORE PUSH1 0x20 ADD PUSH1 0x6 DUP3 ADD SLOAD DUP2 MSTORE PUSH1 0x20 ADD PUSH1 0x7 DUP3 ADD SLOAD DUP2 MSTORE PUSH1 0x20 ADD PUSH1 0x8 DUP3 ADD SLOAD DUP2 MSTORE PUSH1 0x20 ADD PUSH1 0x9 DUP3 ADD PUSH1 0x0 SWAP1 SLOAD SWAP1 PUSH2 0x100 EXP SWAP1 DIV PUSH1 0x1 PUSH1 0x1 PUSH1 0xA0 SHL SUB AND PUSH1 0x1 PUSH1 0x1 PUSH1 0xA0 SHL SUB AND PUSH1 0x1 PUSH1 0x1 PUSH1 0xA0 SHL SUB AND DUP2 MSTORE PUSH1 0x20 ADD PUSH1 0xA DUP3 ADD PUSH1 0x0 SWAP1 SLOAD SWAP1 PUSH2 0x100 EXP SWAP1 DIV PUSH1 0x1 PUSH1 0x1 PUSH1 0xA0 SHL SUB AND PUSH1 0x1 PUSH1 0x1 PUSH1 0xA0 SHL SUB AND PUSH1 0x1 PUSH1 0x1 PUSH1 0xA0 SHL SUB AND DUP2 MSTORE PUSH1 0x20 ADD PUSH1 0xB DUP3 ADD SLOAD DUP2 MSTORE PUSH1 0x20 ADD PUSH1 0xC DUP3 ADD SLOAD DUP2 MSTORE POP POP SWAP1 POP PUSH1 0x0 PUSH1 0xD PUSH1 0x0 DUP9 PUSH1 0x1 PUSH1 0x1 PUSH1 0xA0 SHL SUB AND PUSH1 0x1 PUSH1 0x1 PUSH1 0xA0 SHL SUB AND DUP2 MSTORE PUSH1 0x20 ADD SWAP1 DUP2 MSTORE PUSH1 0x20 ADD PUSH1 0x0 KECCAK256 PUSH1 0x0 DUP10 PUSH1 0x1 PUSH1 0x1 PUSH1 0xA0 SHL SUB AND PUSH1 0x1 PUSH1 0x1 PUSH1 0xA0 SHL SUB AND DUP2 MSTORE PUSH1 0x20 ADD SWAP1 DUP2 MSTORE PUSH1 0x20 ADD PUSH1 0x0 KECCAK256 PUSH1 0x40 MLOAD DUP1 PUSH1 0xE0 ADD PUSH1 0x40 MSTORE SWAP1 DUP2 PUSH1 0x0 DUP3 ADD SLOAD DUP2 MSTORE PUSH1 0x20 ADD PUSH1 0x1 DUP3 ADD SLOAD DUP2 MSTORE PUSH1 0x20 ADD PUSH1 0x2 DUP3 ADD PUSH1 0x0 SWAP1 SLOAD SWAP1 PUSH2 0x100 EXP SWAP1 DIV PUSH1 0x1 PUSH1 0x1 PUSH1 0xA0 SHL SUB AND PUSH1 0x1 PUSH1 0x1 PUSH1 0xA0 SHL SUB AND PUSH1 0x1 PUSH1 0x1 PUSH1 0xA0 SHL SUB AND DUP2 MSTORE PUSH1 0x20 ADD PUSH1 0x3 DUP3 ADD DUP1 SLOAD DUP1 PUSH1 0x20 MUL PUSH1 0x20 ADD PUSH1 0x40 MLOAD SWAP1 DUP2 ADD PUSH1 0x40 MSTORE DUP1 SWAP3 SWAP2 SWAP1 DUP2 DUP2 MSTORE PUSH1 0x20 ADD PUSH1 0x0 SWAP1 JUMPDEST DUP3 DUP3 LT ISZERO PUSH2 0x447E JUMPI PUSH1 0x0 DUP5 DUP2 MSTORE PUSH1 0x20 DUP1 DUP3 KECCAK256 PUSH1 0x40 DUP1 MLOAD PUSH2 0x180 DUP2 ADD DUP3 MSTORE PUSH1 0xD DUP8 MUL SWAP1 SWAP3 ADD DUP1 SLOAD DUP4 MSTORE PUSH1 0x1 DUP2 ADD SLOAD PUSH1 0x1 PUSH1 0x1 PUSH1 0xA0 SHL SUB SWAP1 DUP2 AND SWAP5 DUP5 ADD SWAP5 SWAP1 SWAP5 MSTORE PUSH1 0x2 DUP1 DUP3 ADD SLOAD DUP6 AND DUP5 DUP5 ADD MSTORE PUSH1 0x3 DUP3 ADD SLOAD PUSH1 0x60 DUP6 ADD MSTORE PUSH1 0x4 DUP3 ADD SLOAD PUSH1 0x80 DUP6 ADD MSTORE PUSH1 0x5 DUP3 ADD SLOAD SWAP1 SWAP5 AND PUSH1 0xA0 DUP5 ADD MSTORE PUSH1 0x6 DUP2 ADD SLOAD PUSH1 0xC0 DUP5 ADD MSTORE PUSH1 0x7 DUP2 ADD SLOAD PUSH1 0xE0 DUP5 ADD MSTORE PUSH1 0x8 DUP2 ADD SLOAD PUSH2 0x100 DUP5 ADD MSTORE DUP2 MLOAD DUP1 DUP4 ADD SWAP1 SWAP3 MSTORE SWAP2 SWAP4 SWAP2 SWAP3 PUSH2 0x120 DUP6 ADD SWAP3 PUSH1 0x9 DUP6 ADD SWAP2 SWAP1 DUP4 JUMPDEST DUP3 DUP3 LT ISZERO PUSH2 0x4453 JUMPI DUP4 DUP3 ADD DUP1 SLOAD PUSH2 0x43C6 SWAP1 PUSH2 0x5060 JUMP JUMPDEST DUP1 PUSH1 0x1F ADD PUSH1 0x20 DUP1 SWAP2 DIV MUL PUSH1 0x20 ADD PUSH1 0x40 MLOAD SWAP1 DUP2 ADD PUSH1 0x40 MSTORE DUP1 SWAP3 SWAP2 SWAP1 DUP2 DUP2 MSTORE PUSH1 0x20 ADD DUP3 DUP1 SLOAD PUSH2 0x43F2 SWAP1 PUSH2 0x5060 JUMP JUMPDEST DUP1 ISZERO PUSH2 0x443F JUMPI DUP1 PUSH1 0x1F LT PUSH2 0x4414 JUMPI PUSH2 0x100 DUP1 DUP4 SLOAD DIV MUL DUP4 MSTORE SWAP2 PUSH1 0x20 ADD SWAP2 PUSH2 0x443F JUMP JUMPDEST DUP3 ADD SWAP2 SWAP1 PUSH1 0x0 MSTORE PUSH1 0x20 PUSH1 0x0 KECCAK256 SWAP1 JUMPDEST DUP2 SLOAD DUP2 MSTORE SWAP1 PUSH1 0x1 ADD SWAP1 PUSH1 0x20 ADD DUP1 DUP4 GT PUSH2 0x4422 JUMPI DUP3 SWAP1 SUB PUSH1 0x1F AND DUP3 ADD SWAP2 JUMPDEST POP POP POP POP POP DUP2 MSTORE PUSH1 0x20 ADD SWAP1 PUSH1 0x1 ADD SWAP1 PUSH2 0x43B0 JUMP JUMPDEST POP POP POP POP DUP2 MSTORE PUSH1 0x20 ADD PUSH1 0xB DUP3 ADD SLOAD DUP2 MSTORE PUSH1 0x20 ADD PUSH1 0xC DUP3 ADD SLOAD DUP2 MSTORE POP POP DUP2 MSTORE PUSH1 0x20 ADD SWAP1 PUSH1 0x1 ADD SWAP1 PUSH2 0x430B JUMP JUMPDEST POP POP POP POP DUP2 MSTORE PUSH1 0x20 ADD PUSH1 0x4 DUP3 ADD SLOAD DUP2 MSTORE PUSH1 0x20 ADD PUSH1 0x5 DUP3 ADD SLOAD DUP2 MSTORE PUSH1 0x20 ADD PUSH1 0x6 DUP3 ADD SLOAD DUP2 MSTORE POP POP SWAP1 POP PUSH1 0x0 DUP2 PUSH1 0x20 ADD MLOAD GT PUSH2 0x44C7 JUMPI PUSH1 0x0 DUP1 PUSH1 0x0 DUP1 SWAP6 POP SWAP6 POP SWAP6 POP SWAP6 POP POP POP PUSH2 0x4587 JUMP JUMPDEST PUSH1 0x0 PUSH2 0x44E0 DUP4 PUSH1 0x80 ADD MLOAD DUP4 PUSH1 0x20 ADD MLOAD PUSH2 0x950 SWAP2 SWAP1 PUSH2 0x51A8 JUMP JUMPDEST SWAP1 POP PUSH1 0x0 PUSH1 0x64 DUP5 PUSH2 0x120 ADD MLOAD PUSH2 0x44F6 SWAP2 SWAP1 PUSH2 0x520B JUMP JUMPDEST SWAP1 POP PUSH1 0x0 DUP4 PUSH1 0x80 ADD MLOAD PUSH1 0x0 SUB PUSH2 0x4510 JUMPI DUP4 PUSH1 0xA0 ADD MLOAD PUSH2 0x4516 JUMP JUMPDEST DUP4 PUSH1 0x80 ADD MLOAD JUMPDEST SWAP1 POP TIMESTAMP PUSH1 0x0 PUSH2 0x4528 PUSH2 0x686 DUP5 DUP5 PUSH2 0x51C7 JUMP JUMPDEST SWAP1 POP PUSH1 0x0 PUSH2 0x4535 DUP3 PUSH2 0x1F87 JUMP JUMPDEST SWAP1 POP PUSH1 0x0 PUSH15 0xC097CE7BC90715B34B9F1000000000 DUP3 PUSH2 0x4554 DUP9 DUP11 PUSH2 0x51A8 JUMP JUMPDEST PUSH2 0x455E SWAP2 SWAP1 PUSH2 0x51A8 JUMP JUMPDEST PUSH2 0x4568 SWAP2 SWAP1 PUSH2 0x520B JUMP JUMPDEST PUSH1 0x20 SWAP1 SWAP9 ADD MLOAD PUSH1 0x80 SWAP1 SWAP10 ADD MLOAD SWAP8 SWAP13 POP SWAP2 SWAP11 POP SWAP7 SWAP9 POP SWAP5 SWAP7 POP POP POP POP POP POP POP JUMPDEST SWAP3 SWAP6 SWAP2 SWAP5 POP SWAP3 POP JUMP JUMPDEST PUSH1 0x60 PUSH1 0x0 PUSH2 0x459F DUP4 PUSH1 0x2 PUSH2 0x51A8 JUMP JUMPDEST PUSH2 0x45AA SWAP1 PUSH1 0x2 PUSH2 0x5190 JUMP JUMPDEST PUSH8 0xFFFFFFFFFFFFFFFF DUP2 GT ISZERO PUSH2 0x45C2 JUMPI PUSH2 0x45C2 PUSH2 0x4CF5 JUMP JUMPDEST PUSH1 0x40 MLOAD SWAP1 DUP1 DUP3 MSTORE DUP1 PUSH1 0x1F ADD PUSH1 0x1F NOT AND PUSH1 0x20 ADD DUP3 ADD PUSH1 0x40 MSTORE DUP1 ISZERO PUSH2 0x45EC JUMPI PUSH1 0x20 DUP3 ADD DUP2 DUP1 CALLDATASIZE DUP4 CALLDATACOPY ADD SWAP1 POP JUMPDEST POP SWAP1 POP PUSH1 0x3 PUSH1 0xFC SHL DUP2 PUSH1 0x0 DUP2 MLOAD DUP2 LT PUSH2 0x4607 JUMPI PUSH2 0x4607 PUSH2 0x521F JUMP JUMPDEST PUSH1 0x20 ADD ADD SWAP1 PUSH1 0x1 PUSH1 0x1 PUSH1 0xF8 SHL SUB NOT AND SWAP1 DUP2 PUSH1 0x0 BYTE SWAP1 MSTORE8 POP PUSH1 0xF PUSH1 0xFB SHL DUP2 PUSH1 0x1 DUP2 MLOAD DUP2 LT PUSH2 0x4636 JUMPI PUSH2 0x4636 PUSH2 0x521F JUMP JUMPDEST PUSH1 0x20 ADD ADD SWAP1 PUSH1 0x1 PUSH1 0x1 PUSH1 0xF8 SHL SUB NOT AND SWAP1 DUP2 PUSH1 0x0 BYTE SWAP1 MSTORE8 POP PUSH1 0x0 PUSH2 0x465A DUP5 PUSH1 0x2 PUSH2 0x51A8 JUMP JUMPDEST PUSH2 0x4665 SWAP1 PUSH1 0x1 PUSH2 0x5190 JUMP JUMPDEST SWAP1 POP JUMPDEST PUSH1 0x1 DUP2 GT ISZERO PUSH2 0x46DD JUMPI PUSH16 0x181899199A1A9B1B9C1CB0B131B232B3 PUSH1 0x81 SHL DUP6 PUSH1 0xF AND PUSH1 0x10 DUP2 LT PUSH2 0x4699 JUMPI PUSH2 0x4699 PUSH2 0x521F JUMP JUMPDEST BYTE PUSH1 0xF8 SHL DUP3 DUP3 DUP2 MLOAD DUP2 LT PUSH2 0x46AF JUMPI PUSH2 0x46AF PUSH2 0x521F JUMP JUMPDEST PUSH1 0x20 ADD ADD SWAP1 PUSH1 0x1 PUSH1 0x1 PUSH1 0xF8 SHL SUB NOT AND SWAP1 DUP2 PUSH1 0x0 BYTE SWAP1 MSTORE8 POP PUSH1 0x4 SWAP5 SWAP1 SWAP5 SHR SWAP4 PUSH2 0x46D6 DUP2 PUSH2 0x51DE JUMP JUMPDEST SWAP1 POP PUSH2 0x4668 JUMP JUMPDEST POP DUP4 ISZERO PUSH2 0x472C JUMPI PUSH1 0x40 MLOAD PUSH3 0x461BCD PUSH1 0xE5 SHL DUP2 MSTORE PUSH1 0x20 PUSH1 0x4 DUP3 ADD DUP2 SWAP1 MSTORE PUSH1 0x24 DUP3 ADD MSTORE PUSH32 0x537472696E67733A20686578206C656E67746820696E73756666696369656E74 PUSH1 0x44 DUP3 ADD MSTORE PUSH1 0x64 ADD PUSH2 0xC68 JUMP JUMPDEST SWAP4 SWAP3 POP POP POP JUMP JUMPDEST DUP3 DUP1 SLOAD PUSH2 0x473F SWAP1 PUSH2 0x5060 JUMP JUMPDEST SWAP1 PUSH1 0x0 MSTORE PUSH1 0x20 PUSH1 0x0 KECCAK256 SWAP1 PUSH1 0x1F ADD PUSH1 0x20 SWAP1 DIV DUP2 ADD SWAP3 DUP3 PUSH2 0x4761 JUMPI PUSH1 0x0 DUP6 SSTORE PUSH2 0x47A7 JUMP JUMPDEST DUP3 PUSH1 0x1F LT PUSH2 0x477A JUMPI DUP1 MLOAD PUSH1 0xFF NOT AND DUP4 DUP1 ADD OR DUP6 SSTORE PUSH2 0x47A7 JUMP JUMPDEST DUP3 DUP1 ADD PUSH1 0x1 ADD DUP6 SSTORE DUP3 ISZERO PUSH2 0x47A7 JUMPI SWAP2 DUP3 ADD JUMPDEST DUP3 DUP2 GT ISZERO PUSH2 0x47A7 JUMPI DUP3 MLOAD DUP3 SSTORE SWAP2 PUSH1 0x20 ADD SWAP2 SWAP1 PUSH1 0x1 ADD SWAP1 PUSH2 0x478C JUMP JUMPDEST POP PUSH2 0x47B3 SWAP3 SWAP2 POP PUSH2 0x4885 JUMP JUMPDEST POP SWAP1 JUMP JUMPDEST PUSH1 0x40 MLOAD DUP1 PUSH2 0x180 ADD PUSH1 0x40 MSTORE DUP1 PUSH1 0x0 DUP2 MSTORE PUSH1 0x20 ADD PUSH1 0x0 PUSH1 0x1 PUSH1 0x1 PUSH1 0xA0 SHL SUB AND DUP2 MSTORE PUSH1 0x20 ADD PUSH1 0x0 PUSH1 0x1 PUSH1 0x1 PUSH1 0xA0 SHL SUB AND DUP2 MSTORE PUSH1 0x20 ADD PUSH1 0x0 DUP2 MSTORE PUSH1 0x20 ADD PUSH1 0x0 DUP2 MSTORE PUSH1 0x20 ADD PUSH1 0x0 PUSH1 0x1 PUSH1 0x1 PUSH1 0xA0 SHL SUB AND DUP2 MSTORE PUSH1 0x20 ADD PUSH1 0x0 DUP2 MSTORE PUSH1 0x20 ADD PUSH1 0x0 DUP2 MSTORE PUSH1 0x20 ADD PUSH1 0x0 DUP2 MSTORE PUSH1 0x20 ADD PUSH2 0x4825 PUSH2 0x489A JUMP JUMPDEST DUP2 MSTORE PUSH1 0x20 ADD PUSH1 0x0 DUP2 MSTORE PUSH1 0x20 ADD PUSH1 0x0 DUP2 MSTORE POP SWAP1 JUMP JUMPDEST DUP3 PUSH1 0x2 DUP2 ADD SWAP3 DUP3 ISZERO PUSH2 0x4879 JUMPI SWAP2 PUSH1 0x20 MUL DUP3 ADD JUMPDEST DUP3 DUP2 GT ISZERO PUSH2 0x4879 JUMPI DUP3 MLOAD DUP1 MLOAD PUSH2 0x4869 SWAP2 DUP5 SWAP2 PUSH1 0x20 SWAP1 SWAP2 ADD SWAP1 PUSH2 0x4733 JUMP JUMPDEST POP SWAP2 PUSH1 0x20 ADD SWAP2 SWAP1 PUSH1 0x1 ADD SWAP1 PUSH2 0x484C JUMP JUMPDEST POP PUSH2 0x47B3 SWAP3 SWAP2 POP PUSH2 0x48C1 JUMP JUMPDEST JUMPDEST DUP1 DUP3 GT ISZERO PUSH2 0x47B3 JUMPI PUSH1 0x0 DUP2 SSTORE PUSH1 0x1 ADD PUSH2 0x4886 JUMP JUMPDEST PUSH1 0x40 MLOAD DUP1 PUSH1 0x40 ADD PUSH1 0x40 MSTORE DUP1 PUSH1 0x2 SWAP1 JUMPDEST PUSH1 0x60 DUP2 MSTORE PUSH1 0x20 ADD SWAP1 PUSH1 0x1 SWAP1 SUB SWAP1 DUP2 PUSH2 0x48A9 JUMPI SWAP1 POP POP SWAP1 JUMP JUMPDEST DUP1 DUP3 GT ISZERO PUSH2 0x47B3 JUMPI PUSH1 0x0 PUSH2 0x48D5 DUP3 DUP3 PUSH2 0x48DE JUMP JUMPDEST POP PUSH1 0x1 ADD PUSH2 0x48C1 JUMP JUMPDEST POP DUP1 SLOAD PUSH2 0x48EA SWAP1 PUSH2 0x5060 JUMP JUMPDEST PUSH1 0x0 DUP3 SSTORE DUP1 PUSH1 0x1F LT PUSH2 0x48FA JUMPI POP POP JUMP JUMPDEST PUSH1 0x1F ADD PUSH1 0x20 SWAP1 DIV SWAP1 PUSH1 0x0 MSTORE PUSH1 0x20 PUSH1 0x0 KECCAK256 SWAP1 DUP2 ADD SWAP1 PUSH2 0x2828 SWAP2 SWAP1 PUSH2 0x4885 JUMP JUMPDEST PUSH1 0x0 PUSH1 0x20 DUP3 DUP5 SUB SLT ISZERO PUSH2 0x492A JUMPI PUSH1 0x0 DUP1 REVERT JUMPDEST DUP2 CALLDATALOAD PUSH1 0x1 PUSH1 0x1 PUSH1 0xE0 SHL SUB NOT DUP2 AND DUP2 EQ PUSH2 0x472C JUMPI PUSH1 0x0 DUP1 REVERT JUMPDEST DUP1 CALLDATALOAD PUSH1 0x1 PUSH1 0x1 PUSH1 0xA0 SHL SUB DUP2 AND DUP2 EQ PUSH2 0x4959 JUMPI PUSH1 0x0 DUP1 REVERT JUMPDEST SWAP2 SWAP1 POP JUMP JUMPDEST PUSH1 0x0 DUP1 PUSH1 0x40 DUP4 DUP6 SUB SLT ISZERO PUSH2 0x4971 JUMPI PUSH1 0x0 DUP1 REVERT JUMPDEST PUSH2 0x497A DUP4 PUSH2 0x4942 JUMP JUMPDEST SWAP2 POP PUSH2 0x4988 PUSH1 0x20 DUP5 ADD PUSH2 0x4942 JUMP JUMPDEST SWAP1 POP SWAP3 POP SWAP3 SWAP1 POP JUMP JUMPDEST PUSH1 0x0 JUMPDEST DUP4 DUP2 LT ISZERO PUSH2 0x49AC JUMPI DUP2 DUP2 ADD MLOAD DUP4 DUP3 ADD MSTORE PUSH1 0x20 ADD PUSH2 0x4994 JUMP JUMPDEST DUP4 DUP2 GT ISZERO PUSH2 0x2169 JUMPI POP POP PUSH1 0x0 SWAP2 ADD MSTORE JUMP JUMPDEST PUSH1 0x0 DUP2 MLOAD DUP1 DUP5 MSTORE PUSH2 0x49D5 DUP2 PUSH1 0x20 DUP7 ADD PUSH1 0x20 DUP7 ADD PUSH2 0x4991 JUMP JUMPDEST PUSH1 0x1F ADD PUSH1 0x1F NOT AND SWAP3 SWAP1 SWAP3 ADD PUSH1 0x20 ADD SWAP3 SWAP2 POP POP JUMP JUMPDEST PUSH1 0x0 DUP3 PUSH1 0x40 DUP2 ADD DUP4 PUSH1 0x0 JUMPDEST PUSH1 0x2 DUP2 LT ISZERO PUSH2 0x4A23 JUMPI DUP4 DUP4 SUB DUP8 MSTORE PUSH2 0x4A0D DUP4 DUP4 MLOAD PUSH2 0x49BD JUMP JUMPDEST PUSH1 0x20 SWAP8 DUP9 ADD SWAP8 SWAP1 SWAP4 POP SWAP2 SWAP1 SWAP2 ADD SWAP1 PUSH1 0x1 ADD PUSH2 0x49F4 JUMP JUMPDEST POP SWAP1 SWAP6 SWAP5 POP POP POP POP POP JUMP JUMPDEST PUSH1 0x0 PUSH2 0x180 DUP3 MLOAD DUP5 MSTORE PUSH1 0x20 DUP4 ADD MLOAD PUSH2 0x4A51 PUSH1 0x20 DUP7 ADD DUP3 PUSH1 0x1 PUSH1 0x1 PUSH1 0xA0 SHL SUB AND SWAP1 MSTORE JUMP JUMPDEST POP PUSH1 0x40 DUP4 ADD MLOAD PUSH2 0x4A6C PUSH1 0x40 DUP7 ADD DUP3 PUSH1 0x1 PUSH1 0x1 PUSH1 0xA0 SHL SUB AND SWAP1 MSTORE JUMP JUMPDEST POP PUSH1 0x60 DUP4 ADD MLOAD PUSH1 0x60 DUP6 ADD MSTORE PUSH1 0x80 DUP4 ADD MLOAD PUSH1 0x80 DUP6 ADD MSTORE PUSH1 0xA0 DUP4 ADD MLOAD PUSH2 0x4A9B PUSH1 0xA0 DUP7 ADD DUP3 PUSH1 0x1 PUSH1 0x1 PUSH1 0xA0 SHL SUB AND SWAP1 MSTORE JUMP JUMPDEST POP PUSH1 0xC0 DUP4 ADD MLOAD PUSH1 0xC0 DUP6 ADD MSTORE PUSH1 0xE0 DUP4 ADD MLOAD PUSH1 0xE0 DUP6 ADD MSTORE PUSH2 0x100 DUP1 DUP5 ADD MLOAD DUP2 DUP7 ADD MSTORE POP PUSH2 0x120 DUP1 DUP5 ADD MLOAD DUP3 DUP3 DUP8 ADD MSTORE PUSH2 0x4AD4 DUP4 DUP8 ADD DUP3 PUSH2 0x49E9 JUMP JUMPDEST PUSH2 0x140 DUP7 DUP2 ADD MLOAD SWAP1 DUP9 ADD MSTORE PUSH2 0x160 SWAP6 DUP7 ADD MLOAD SWAP6 SWAP1 SWAP7 ADD SWAP5 SWAP1 SWAP5 MSTORE POP SWAP3 SWAP4 SWAP3 POP POP POP JUMP JUMPDEST PUSH1 0x0 PUSH1 0x20 DUP1 DUP4 MSTORE PUSH2 0x100 DUP4 ADD DUP5 MLOAD DUP3 DUP6 ADD MSTORE DUP2 DUP6 ADD MLOAD PUSH1 0x40 DUP6 ADD MSTORE PUSH1 0x1 DUP1 PUSH1 0xA0 SHL SUB PUSH1 0x40 DUP7 ADD MLOAD AND PUSH1 0x60 DUP6 ADD MSTORE PUSH1 0x60 DUP6 ADD MLOAD PUSH1 0xE0 PUSH1 0x80 DUP7 ADD MSTORE DUP2 DUP2 MLOAD DUP1 DUP5 MSTORE PUSH2 0x120 SWAP4 POP DUP4 DUP8 ADD SWAP2 POP DUP4 DUP2 PUSH1 0x5 SHL DUP9 ADD ADD SWAP4 POP DUP5 DUP4 ADD SWAP3 POP PUSH1 0x0 JUMPDEST DUP2 DUP2 LT ISZERO PUSH2 0x4B81 JUMPI PUSH2 0x11F NOT DUP9 DUP7 SUB ADD DUP4 MSTORE PUSH2 0x4B6F DUP6 DUP6 MLOAD PUSH2 0x4A2E JUMP JUMPDEST SWAP5 POP SWAP3 DUP6 ADD SWAP3 SWAP2 DUP6 ADD SWAP2 PUSH1 0x1 ADD PUSH2 0x4B52 JUMP JUMPDEST POP POP POP POP PUSH1 0x80 DUP6 ADD MLOAD PUSH1 0xA0 DUP6 ADD MSTORE PUSH1 0xA0 DUP6 ADD MLOAD PUSH1 0xC0 DUP6 ADD MSTORE PUSH1 0xC0 DUP6 ADD MLOAD PUSH1 0xE0 DUP6 ADD MSTORE DUP1 SWAP3 POP POP POP SWAP3 SWAP2 POP POP JUMP JUMPDEST PUSH1 0x0 PUSH1 0x20 DUP3 DUP5 SUB SLT ISZERO PUSH2 0x4BC0 JUMPI PUSH1 0x0 DUP1 REVERT JUMPDEST PUSH2 0x472C DUP3 PUSH2 0x4942 JUMP JUMPDEST PUSH1 0x20 DUP2 MSTORE PUSH2 0x4BDC PUSH1 0x20 DUP3 ADD DUP4 MLOAD ISZERO ISZERO SWAP1 MSTORE JUMP JUMPDEST PUSH1 0x0 PUSH1 0x20 DUP4 ADD MLOAD PUSH2 0x4BF1 PUSH1 0x40 DUP5 ADD DUP3 ISZERO ISZERO SWAP1 MSTORE JUMP JUMPDEST POP PUSH1 0x40 DUP4 ADD MLOAD PUSH2 0x1C0 DUP1 PUSH1 0x60 DUP6 ADD MSTORE PUSH2 0x4C0E PUSH2 0x1E0 DUP6 ADD DUP4 PUSH2 0x49BD JUMP JUMPDEST SWAP2 POP PUSH1 0x60 DUP6 ADD MLOAD PUSH1 0x80 DUP6 ADD MSTORE PUSH1 0x80 DUP6 ADD MLOAD PUSH1 0xA0 DUP6 ADD MSTORE PUSH1 0xA0 DUP6 ADD MLOAD PUSH1 0xC0 DUP6 ADD MSTORE PUSH1 0xC0 DUP6 ADD MLOAD PUSH1 0xE0 DUP6 ADD MSTORE PUSH1 0xE0 DUP6 ADD MLOAD PUSH2 0x100 DUP2 DUP2 DUP8 ADD MSTORE DUP1 DUP8 ADD MLOAD SWAP2 POP POP PUSH2 0x120 DUP2 DUP2 DUP8 ADD MSTORE DUP1 DUP8 ADD MLOAD SWAP2 POP POP PUSH2 0x140 DUP2 DUP2 DUP8 ADD MSTORE DUP1 DUP8 ADD MLOAD SWAP2 POP POP PUSH2 0x160 PUSH2 0x4C81 DUP2 DUP8 ADD DUP4 PUSH1 0x1 PUSH1 0x1 PUSH1 0xA0 SHL SUB AND SWAP1 MSTORE JUMP JUMPDEST DUP7 ADD MLOAD SWAP1 POP PUSH2 0x180 PUSH2 0x4C9D DUP7 DUP3 ADD DUP4 PUSH1 0x1 PUSH1 0x1 PUSH1 0xA0 SHL SUB AND SWAP1 MSTORE JUMP JUMPDEST DUP7 ADD MLOAD PUSH2 0x1A0 DUP7 DUP2 ADD SWAP2 SWAP1 SWAP2 MSTORE SWAP1 SWAP6 ADD MLOAD SWAP4 ADD SWAP3 SWAP1 SWAP3 MSTORE POP SWAP2 SWAP1 POP JUMP JUMPDEST PUSH1 0x0 DUP1 PUSH1 0x40 DUP4 DUP6 SUB SLT ISZERO PUSH2 0x4CCD JUMPI PUSH1 0x0 DUP1 REVERT JUMPDEST POP POP DUP1 CALLDATALOAD SWAP3 PUSH1 0x20 SWAP1 SWAP2 ADD CALLDATALOAD SWAP2 POP JUMP JUMPDEST PUSH1 0x0 PUSH1 0x20 DUP3 DUP5 SUB SLT ISZERO PUSH2 0x4CEE JUMPI PUSH1 0x0 DUP1 REVERT JUMPDEST POP CALLDATALOAD SWAP2 SWAP1 POP JUMP JUMPDEST PUSH4 0x4E487B71 PUSH1 0xE0 SHL PUSH1 0x0 MSTORE PUSH1 0x41 PUSH1 0x4 MSTORE PUSH1 0x24 PUSH1 0x0 REVERT JUMPDEST PUSH1 0x0 DUP3 PUSH1 0x1F DUP4 ADD SLT PUSH2 0x4D1C JUMPI PUSH1 0x0 DUP1 REVERT JUMPDEST DUP2 CALLDATALOAD PUSH8 0xFFFFFFFFFFFFFFFF DUP1 DUP3 GT ISZERO PUSH2 0x4D37 JUMPI PUSH2 0x4D37 PUSH2 0x4CF5 JUMP JUMPDEST PUSH1 0x40 MLOAD PUSH1 0x1F DUP4 ADD PUSH1 0x1F NOT SWAP1 DUP2 AND PUSH1 0x3F ADD AND DUP2 ADD SWAP1 DUP3 DUP3 GT DUP2 DUP4 LT OR ISZERO PUSH2 0x4D5F JUMPI PUSH2 0x4D5F PUSH2 0x4CF5 JUMP JUMPDEST DUP2 PUSH1 0x40 MSTORE DUP4 DUP2 MSTORE DUP7 PUSH1 0x20 DUP6 DUP9 ADD ADD GT ISZERO PUSH2 0x4D78 JUMPI PUSH1 0x0 DUP1 REVERT JUMPDEST DUP4 PUSH1 0x20 DUP8 ADD PUSH1 0x20 DUP4 ADD CALLDATACOPY PUSH1 0x0 PUSH1 0x20 DUP6 DUP4 ADD ADD MSTORE DUP1 SWAP5 POP POP POP POP POP SWAP3 SWAP2 POP POP JUMP JUMPDEST PUSH1 0x0 DUP1 PUSH1 0x40 DUP4 DUP6 SUB SLT ISZERO PUSH2 0x4DAB JUMPI PUSH1 0x0 DUP1 REVERT JUMPDEST DUP3 CALLDATALOAD SWAP2 POP PUSH1 0x20 DUP4 ADD CALLDATALOAD PUSH8 0xFFFFFFFFFFFFFFFF DUP2 GT ISZERO PUSH2 0x4DC9 JUMPI PUSH1 0x0 DUP1 REVERT JUMPDEST PUSH2 0x4DD5 DUP6 DUP3 DUP7 ADD PUSH2 0x4D0B JUMP JUMPDEST SWAP2 POP POP SWAP3 POP SWAP3 SWAP1 POP JUMP JUMPDEST PUSH1 0x0 DUP1 PUSH1 0x40 DUP4 DUP6 SUB SLT ISZERO PUSH2 0x4DF2 JUMPI PUSH1 0x0 DUP1 REVERT JUMPDEST DUP3 CALLDATALOAD SWAP2 POP PUSH2 0x4988 PUSH1 0x20 DUP5 ADD PUSH2 0x4942 JUMP JUMPDEST PUSH1 0x0 DUP1 PUSH1 0x40 DUP4 DUP6 SUB SLT ISZERO PUSH2 0x4E15 JUMPI PUSH1 0x0 DUP1 REVERT JUMPDEST PUSH2 0x4E1E DUP4 PUSH2 0x4942 JUMP JUMPDEST SWAP5 PUSH1 0x20 SWAP4 SWAP1 SWAP4 ADD CALLDATALOAD SWAP4 POP POP POP JUMP JUMPDEST PUSH1 0x20 DUP1 DUP3 MSTORE DUP3 MLOAD DUP3 DUP3 ADD DUP2 SWAP1 MSTORE PUSH1 0x0 SWAP2 SWAP1 DUP5 DUP3 ADD SWAP1 PUSH1 0x40 DUP6 ADD SWAP1 DUP5 JUMPDEST DUP2 DUP2 LT ISZERO PUSH2 0x4E6D JUMPI DUP4 MLOAD PUSH1 0x1 PUSH1 0x1 PUSH1 0xA0 SHL SUB AND DUP4 MSTORE SWAP3 DUP5 ADD SWAP3 SWAP2 DUP5 ADD SWAP2 PUSH1 0x1 ADD PUSH2 0x4E48 JUMP JUMPDEST POP SWAP1 SWAP7 SWAP6 POP POP POP POP POP POP JUMP JUMPDEST PUSH1 0x0 DUP1 PUSH1 0x0 PUSH1 0x60 DUP5 DUP7 SUB SLT ISZERO PUSH2 0x4E8E JUMPI PUSH1 0x0 DUP1 REVERT JUMPDEST PUSH2 0x4E97 DUP5 PUSH2 0x4942 JUMP JUMPDEST SWAP6 PUSH1 0x20 DUP6 ADD CALLDATALOAD SWAP6 POP PUSH1 0x40 SWAP1 SWAP5 ADD CALLDATALOAD SWAP4 SWAP3 POP POP POP JUMP JUMPDEST DUP15 ISZERO ISZERO DUP2 MSTORE DUP14 ISZERO ISZERO PUSH1 0x20 DUP3 ADD MSTORE PUSH2 0x1C0 PUSH1 0x40 DUP3 ADD MSTORE PUSH1 0x0 PUSH2 0x4ED1 PUSH2 0x1C0 DUP4 ADD DUP16 PUSH2 0x49BD JUMP JUMPDEST SWAP1 POP DUP13 PUSH1 0x60 DUP4 ADD MSTORE DUP12 PUSH1 0x80 DUP4 ADD MSTORE DUP11 PUSH1 0xA0 DUP4 ADD MSTORE DUP10 PUSH1 0xC0 DUP4 ADD MSTORE DUP9 PUSH1 0xE0 DUP4 ADD MSTORE DUP8 PUSH2 0x100 DUP4 ADD MSTORE DUP7 PUSH2 0x120 DUP4 ADD MSTORE PUSH2 0x4F15 PUSH2 0x140 DUP4 ADD DUP8 PUSH1 0x1 PUSH1 0x1 PUSH1 0xA0 SHL SUB AND SWAP1 MSTORE JUMP JUMPDEST PUSH1 0x1 PUSH1 0x1 PUSH1 0xA0 SHL SUB DUP6 AND PUSH2 0x160 DUP4 ADD MSTORE PUSH2 0x180 DUP3 ADD SWAP4 SWAP1 SWAP4 MSTORE PUSH2 0x1A0 ADD MSTORE SWAP13 SWAP12 POP POP POP POP POP POP POP POP POP POP POP POP JUMP JUMPDEST PUSH1 0x20 DUP2 MSTORE PUSH1 0x0 PUSH2 0x472C PUSH1 0x20 DUP4 ADD DUP5 PUSH2 0x49BD JUMP JUMPDEST PUSH1 0x0 DUP1 PUSH1 0x40 DUP4 DUP6 SUB SLT ISZERO PUSH2 0x4F69 JUMPI PUSH1 0x0 DUP1 REVERT JUMPDEST PUSH2 0x4F72 DUP4 PUSH2 0x4942 JUMP JUMPDEST SWAP2 POP PUSH1 0x20 DUP4 ADD CALLDATALOAD PUSH8 0xFFFFFFFFFFFFFFFF DUP2 GT ISZERO PUSH2 0x4DC9 JUMPI PUSH1 0x0 DUP1 REVERT JUMPDEST PUSH1 0x0 DUP1 PUSH1 0x0 DUP1 PUSH1 0x0 DUP1 PUSH1 0x0 DUP1 PUSH2 0x100 DUP10 DUP12 SUB SLT ISZERO PUSH2 0x4FAB JUMPI PUSH1 0x0 DUP1 REVERT JUMPDEST PUSH2 0x4FB4 DUP10 PUSH2 0x4942 JUMP JUMPDEST SWAP8 POP PUSH1 0x20 DUP10 ADD CALLDATALOAD PUSH8 0xFFFFFFFFFFFFFFFF DUP2 GT ISZERO PUSH2 0x4FD0 JUMPI PUSH1 0x0 DUP1 REVERT JUMPDEST PUSH2 0x4FDC DUP12 DUP3 DUP13 ADD PUSH2 0x4D0B JUMP JUMPDEST SWAP8 POP POP PUSH1 0x40 DUP10 ADD CALLDATALOAD SWAP6 POP PUSH1 0x60 DUP10 ADD CALLDATALOAD SWAP5 POP PUSH1 0x80 DUP10 ADD CALLDATALOAD SWAP4 POP PUSH1 0xA0 DUP10 ADD CALLDATALOAD SWAP3 POP PUSH2 0x5007 PUSH1 0xC0 DUP11 ADD PUSH2 0x4942 JUMP JUMPDEST SWAP2 POP PUSH2 0x5015 PUSH1 0xE0 DUP11 ADD PUSH2 0x4942 JUMP JUMPDEST SWAP1 POP SWAP3 SWAP6 SWAP9 POP SWAP3 SWAP6 SWAP9 SWAP1 SWAP4 SWAP7 POP JUMP JUMPDEST PUSH1 0x0 DUP1 PUSH1 0x0 PUSH1 0x60 DUP5 DUP7 SUB SLT ISZERO PUSH2 0x5039 JUMPI PUSH1 0x0 DUP1 REVERT JUMPDEST PUSH2 0x5042 DUP5 PUSH2 0x4942 JUMP JUMPDEST SWAP3 POP PUSH2 0x5050 PUSH1 0x20 DUP6 ADD PUSH2 0x4942 JUMP JUMPDEST SWAP2 POP PUSH1 0x40 DUP5 ADD CALLDATALOAD SWAP1 POP SWAP3 POP SWAP3 POP SWAP3 JUMP JUMPDEST PUSH1 0x1 DUP2 DUP2 SHR SWAP1 DUP3 AND DUP1 PUSH2 0x5074 JUMPI PUSH1 0x7F DUP3 AND SWAP2 POP JUMPDEST PUSH1 0x20 DUP3 LT DUP2 SUB PUSH2 0x5094 JUMPI PUSH4 0x4E487B71 PUSH1 0xE0 SHL PUSH1 0x0 MSTORE PUSH1 0x22 PUSH1 0x4 MSTORE PUSH1 0x24 PUSH1 0x0 REVERT JUMPDEST POP SWAP2 SWAP1 POP JUMP JUMPDEST PUSH1 0x20 DUP1 DUP3 MSTORE DUP2 DUP2 ADD MSTORE PUSH32 0x4F776E61626C653A2063616C6C6572206973206E6F7420746865206F776E6572 PUSH1 0x40 DUP3 ADD MSTORE PUSH1 0x60 ADD SWAP1 JUMP JUMPDEST PUSH1 0x20 DUP1 DUP3 MSTORE PUSH1 0x15 SWAP1 DUP3 ADD MSTORE PUSH21 0x2A37B5B2B7103237B2B9903737BA1032BC34B9BA17 PUSH1 0x59 SHL PUSH1 0x40 DUP3 ADD MSTORE PUSH1 0x60 ADD SWAP1 JUMP JUMPDEST PUSH1 0x20 DUP1 DUP3 MSTORE PUSH1 0x21 SWAP1 DUP3 ADD MSTORE PUSH32 0x416D6F756E74206D7573742062652067726561746572207468616E207A65726F PUSH1 0x40 DUP3 ADD MSTORE PUSH1 0x17 PUSH1 0xF9 SHL PUSH1 0x60 DUP3 ADD MSTORE PUSH1 0x80 ADD SWAP1 JUMP JUMPDEST PUSH1 0x0 PUSH1 0x20 DUP3 DUP5 SUB SLT ISZERO PUSH2 0x5151 JUMPI PUSH1 0x0 DUP1 REVERT JUMPDEST POP MLOAD SWAP2 SWAP1 POP JUMP JUMPDEST PUSH1 0x0 PUSH1 0x20 DUP3 DUP5 SUB SLT ISZERO PUSH2 0x516A JUMPI PUSH1 0x0 DUP1 REVERT JUMPDEST DUP2 MLOAD DUP1 ISZERO ISZERO DUP2 EQ PUSH2 0x472C JUMPI PUSH1 0x0 DUP1 REVERT JUMPDEST PUSH4 0x4E487B71 PUSH1 0xE0 SHL PUSH1 0x0 MSTORE PUSH1 0x11 PUSH1 0x4 MSTORE PUSH1 0x24 PUSH1 0x0 REVERT JUMPDEST PUSH1 0x0 DUP3 NOT DUP3 GT ISZERO PUSH2 0x51A3 JUMPI PUSH2 0x51A3 PUSH2 0x517A JUMP JUMPDEST POP ADD SWAP1 JUMP JUMPDEST PUSH1 0x0 DUP2 PUSH1 0x0 NOT DIV DUP4 GT DUP3 ISZERO ISZERO AND ISZERO PUSH2 0x51C2 JUMPI PUSH2 0x51C2 PUSH2 0x517A JUMP JUMPDEST POP MUL SWAP1 JUMP JUMPDEST PUSH1 0x0 DUP3 DUP3 LT ISZERO PUSH2 0x51D9 JUMPI PUSH2 0x51D9 PUSH2 0x517A JUMP JUMPDEST POP SUB SWAP1 JUMP JUMPDEST PUSH1 0x0 DUP2 PUSH2 0x51ED JUMPI PUSH2 0x51ED PUSH2 0x517A JUMP JUMPDEST POP PUSH1 0x0 NOT ADD SWAP1 JUMP JUMPDEST PUSH4 0x4E487B71 PUSH1 0xE0 SHL PUSH1 0x0 MSTORE PUSH1 0x12 PUSH1 0x4 MSTORE PUSH1 0x24 PUSH1 0x0 REVERT JUMPDEST PUSH1 0x0 DUP3 PUSH2 0x521A JUMPI PUSH2 0x521A PUSH2 0x51F5 JUMP JUMPDEST POP DIV SWAP1 JUMP JUMPDEST PUSH4 0x4E487B71 PUSH1 0xE0 SHL PUSH1 0x0 MSTORE PUSH1 0x32 PUSH1 0x4 MSTORE PUSH1 0x24 PUSH1 0x0 REVERT JUMPDEST PUSH1 0x0 PUSH1 0x1 DUP3 ADD PUSH2 0x5247 JUMPI PUSH2 0x5247 PUSH2 0x517A JUMP JUMPDEST POP PUSH1 0x1 ADD SWAP1 JUMP JUMPDEST PUSH1 0x0 DUP3 PUSH2 0x525D JUMPI PUSH2 0x525D PUSH2 0x51F5 JUMP JUMPDEST POP MOD SWAP1 JUMP JUMPDEST PUSH1 0x20 DUP2 MSTORE PUSH1 0x0 PUSH2 0x472C PUSH1 0x20 DUP4 ADD DUP5 PUSH2 0x4A2E JUMP JUMPDEST PUSH32 0x416363657373436F6E74726F6C3A206163636F756E7420000000000000000000 DUP2 MSTORE PUSH1 0x0 DUP4 MLOAD PUSH2 0x52AD DUP2 PUSH1 0x17 DUP6 ADD PUSH1 0x20 DUP9 ADD PUSH2 0x4991 JUMP JUMPDEST PUSH17 0x1034B99036B4B9B9B4B733903937B6329 PUSH1 0x7D SHL PUSH1 0x17 SWAP2 DUP5 ADD SWAP2 DUP3 ADD MSTORE DUP4 MLOAD PUSH2 0x52DE DUP2 PUSH1 0x28 DUP5 ADD PUSH1 0x20 DUP9 ADD PUSH2 0x4991 JUMP JUMPDEST ADD PUSH1 0x28 ADD SWAP5 SWAP4 POP POP POP POP JUMP INVALID LOG2 PUSH5 0x6970667358 0x22 SLT KECCAK256 PUSH2 0x8162 0xF6 0x5E 0xBC SWAP3 0xC 0xC4 EXTCODESIZE 0x4E COINBASE 0xBE 0x21 SGT PUSH10 0xBC1184E498D3D4E19F37 0x2A 0xD7 MSTORE CALLCODE PUSH7 0xD164736F6C6343 STOP ADDMOD 0xD STOP CALLER ","sha1":"a2f4cc49754337b70ddf5cf983e709e5852d0d13","source":"// SPDX-License-Identifier: MIT\npragma solidity ^0.8.0;\n\nimport \"@openzeppelin/contracts/access/Ownable.sol\";\nimport \"@openzeppelin/contracts/access/AccessControl.sol\";\nimport \"@openzeppelin/contracts/token/ERC20/IERC20.sol\";\nimport \"@openzeppelin/contracts/utils/Strings.sol\";\n\ncontract SavvyFinanceFarm is Ownable, AccessControl {\n    address constant ZERO_ADDRESS = 0x0000000000000000000000000000000000000000;\n    address public developmentWallet;\n    uint256 public minimumStakingFee;\n    uint256 public maximumStakingFee;\n    uint256 public minimumStakingApr;\n    uint256 public maximumStakingApr;\n    mapping(address => bool) public isExcludedFromFees;\n    mapping(uint256 => string) public tokenCategoryNumberToName;\n\n    address[] public tokens;\n    struct TokenDetails {\n        // uint256 index;\n        bool isActive;\n        bool hasMultiReward;\n        string name;\n        uint256 category;\n        uint256 price;\n        uint256 rewardBalance;\n        uint256 stakingBalance;\n        uint256 stakeFee;\n        uint256 unstakeFee;\n        uint256 stakingApr;\n        address rewardToken;\n        address admin;\n        uint256 timestampAdded;\n        uint256 timestampLastUpdated;\n    }\n    mapping(address => TokenDetails) public tokensData;\n\n    address[] public stakers;\n    struct StakerDetails {\n        // uint256 index;\n        bool isActive;\n        uint256 uniqueTokensStaked;\n        uint256 timestampAdded;\n        uint256 timestampLastUpdated;\n    }\n    mapping(address => StakerDetails) public stakersData;\n\n    struct TokenStakerRewardDetails {\n        uint256 id;\n        address staker;\n        address stakedToken;\n        uint256 stakedTokenPrice;\n        uint256 stakedTokenAmount;\n        address rewardToken;\n        uint256 rewardTokenPrice;\n        uint256 rewardTokenAmount;\n        uint256 stakingDurationInSeconds;\n        string[2] actionPerformed;\n        uint256 timestampAdded;\n        uint256 timestampLastUpdated;\n    }\n    struct TokenStakerDetails {\n        uint256 rewardBalance;\n        uint256 stakingBalance;\n        address stakingRewardToken;\n        TokenStakerRewardDetails[] stakingRewards;\n        uint256 timestampLastRewarded;\n        uint256 timestampAdded;\n        uint256 timestampLastUpdated;\n    }\n    // token => staker => TokenStakerDetails\n    mapping(address => mapping(address => TokenStakerDetails))\n        public tokensStakersData;\n\n    event Stake(address indexed staker, address indexed token, uint256 amount);\n    event Unstake(\n        address indexed staker,\n        address indexed token,\n        uint256 amount\n    );\n    event IssueStakingReward(\n        address indexed staker,\n        address indexed token,\n        TokenStakerRewardDetails rewardData\n    );\n    event WithdrawStakingReward(\n        address indexed staker,\n        address indexed reward_token,\n        uint256 amount\n    );\n\n    // event Test(uint256 testVar);\n\n    // constructor() {\n    //     developmentWallet = _msgSender();\n    //     minimumStakingFee = 0;\n    //     maximumStakingFee = toWei(10);\n    //     minimumStakingApr = toWei(50);\n    //     maximumStakingApr = toWei(1000);\n    //     _setupRole(DEFAULT_ADMIN_ROLE, _msgSender());\n    // }\n\n    function initialize() external {\n        developmentWallet = _msgSender();\n        minimumStakingFee = 0;\n        maximumStakingFee = toWei(10);\n        minimumStakingApr = toWei(50);\n        maximumStakingApr = toWei(1000);\n        _setupRole(DEFAULT_ADMIN_ROLE, _msgSender());\n        _transferOwnership(_msgSender());\n    }\n\n    function toRole(address a) public pure returns (bytes32) {\n        return keccak256(abi.encodePacked(a));\n    }\n\n    function toWei(uint256 _number) public pure returns (uint256) {\n        return _number * (10**18);\n    }\n\n    function fromWei(uint256 _number) public pure returns (uint256) {\n        return _number / (10**18);\n    }\n\n    function secondsToYears(uint256 _seconds) public pure returns (uint256) {\n        return fromWei(_seconds * (0.0000000317098 * (10**18)));\n    }\n\n    function tokenExists(address _token) public view returns (bool) {\n        for (uint256 tokenIndex = 0; tokenIndex < tokens.length; tokenIndex++) {\n            if (tokens[tokenIndex] == _token) return true;\n        }\n        return false;\n    }\n\n    function stakerExists(address _staker) public view returns (bool) {\n        for (\n            uint256 stakerIndex = 0;\n            stakerIndex < stakers.length;\n            stakerIndex++\n        ) {\n            if (stakers[stakerIndex] == _staker) return true;\n        }\n        return false;\n    }\n\n    function getTokens() public view returns (address[] memory) {\n        return tokens;\n    }\n\n    function getStakers() public view returns (address[] memory) {\n        return stakers;\n    }\n\n    function getTokenData(address _token)\n        public\n        view\n        returns (TokenDetails memory)\n    {\n        return tokensData[_token];\n    }\n\n    function getStakerData(address _staker)\n        public\n        view\n        returns (StakerDetails memory)\n    {\n        return stakersData[_staker];\n    }\n\n    function getTokenStakerData(address _token, address _staker)\n        public\n        view\n        returns (TokenStakerDetails memory)\n    {\n        return tokensStakersData[_token][_staker];\n    }\n\n    function getTokenRewardValue(address _token) public view returns (uint256) {\n        return tokensData[_token].rewardBalance * tokensData[_token].price;\n    }\n\n    function setDevelopmentWallet(address _developmentWallet) public onlyOwner {\n        developmentWallet = _developmentWallet;\n    }\n\n    function setStakingFeeDetails(\n        uint256 _minimumStakingFee,\n        uint256 _maximumStakingFee\n    ) public onlyOwner {\n        minimumStakingFee = _minimumStakingFee;\n        maximumStakingFee = _maximumStakingFee;\n    }\n\n    function setStakingAprDetails(\n        uint256 _minimumStakingApr,\n        uint256 _maximumStakingApr\n    ) public onlyOwner {\n        minimumStakingApr = _minimumStakingApr;\n        maximumStakingApr = _maximumStakingApr;\n    }\n\n    function excludeFromFees(address _address) public onlyOwner {\n        isExcludedFromFees[_address] = true;\n    }\n\n    function includeInFees(address _address) public onlyOwner {\n        isExcludedFromFees[_address] = false;\n    }\n\n    function setTokenCategoryNumberToName(uint256 _number, string memory _name)\n        public\n        onlyOwner\n    {\n        tokenCategoryNumberToName[_number] = _name;\n    }\n\n    function addToken(\n        address _token,\n        string memory _name,\n        uint256 _category,\n        uint256 _stakeFee,\n        uint256 _unstakeFee,\n        uint256 _stakingApr,\n        address _reward_token,\n        address _admin\n    ) public onlyOwner {\n        require(!tokenExists(_token), \"Token already exists.\");\n        _setupRole(toRole(_token), _msgSender());\n        uint256 index = tokens.length;\n        tokens.push(_token);\n        // tokensData[_token].index = index;\n        tokensData[_token].name = _name;\n        tokensData[_token].category = _category;\n        tokensData[_token].timestampAdded = block.timestamp;\n        setTokenStakingFees(\n            _token,\n            _stakeFee == 0 ? toWei(1) : _stakeFee,\n            _unstakeFee == 0 ? toWei(1) : _unstakeFee\n        );\n        setTokenStakingApr(_token, _stakingApr == 0 ? toWei(100) : _stakingApr);\n        setTokenRewardToken(\n            _token,\n            _reward_token == address(0x0) ? _token : _reward_token\n        );\n        setTokenAdmin(_token, _admin == address(0x0) ? _msgSender() : _admin);\n    }\n\n    function activateToken(address _token) public onlyOwner {\n        require(tokenExists(_token), \"Token does not exist.\");\n        tokensData[_token].isActive = true;\n    }\n\n    function deactivateToken(address _token) public onlyOwner {\n        require(tokenExists(_token), \"Token does not exist.\");\n        tokensData[_token].isActive = false;\n    }\n\n    function setTokenName(address _token, string memory _name)\n        public\n        onlyOwner\n    {\n        require(tokenExists(_token), \"Token does not exist.\");\n        tokensData[_token].name = _name;\n        tokensData[_token].timestampLastUpdated = block.timestamp;\n    }\n\n    function setTokenCategory(address _token, uint256 _category)\n        public\n        onlyOwner\n    {\n        require(tokenExists(_token), \"Token does not exist.\");\n        tokensData[_token].category = _category;\n        tokensData[_token].timestampLastUpdated = block.timestamp;\n    }\n\n    function setTokenPrice(address _token, uint256 _price) public onlyOwner {\n        require(tokenExists(_token), \"Token does not exist.\");\n        tokensData[_token].price = _price;\n        tokensData[_token].timestampLastUpdated = block.timestamp;\n    }\n\n    function setTokenAdmin(address _token, address _admin) public onlyOwner {\n        require(tokenExists(_token), \"Token does not exist.\");\n        if (tokensData[_token].admin != owner())\n            revokeRole(toRole(_token), tokensData[_token].admin);\n        tokensData[_token].admin = _admin;\n        tokensData[_token].timestampLastUpdated = block.timestamp;\n        grantRole(toRole(_token), tokensData[_token].admin);\n    }\n\n    function setTokenStakingFees(\n        address _token,\n        uint256 _stakeFee,\n        uint256 _unstakeFee\n    ) public onlyOwner {\n        setTokenStakeFee(_token, _stakeFee);\n        setTokenUnstakeFee(_token, _unstakeFee);\n    }\n\n    function setTokenStakeFee(address _token, uint256 _stakeFee)\n        public\n        onlyOwner\n    {\n        require(tokenExists(_token), \"Token does not exist.\");\n        require(\n            _stakeFee >= minimumStakingFee && _stakeFee <= maximumStakingFee,\n            string(\n                abi.encodePacked(\n                    \"Stake fee must be between\",\n                    fromWei(minimumStakingFee),\n                    \"and\",\n                    fromWei(maximumStakingFee),\n                    \".\"\n                )\n            )\n        );\n        tokensData[_token].stakeFee = _stakeFee;\n        tokensData[_token].timestampLastUpdated = block.timestamp;\n    }\n\n    function setTokenUnstakeFee(address _token, uint256 _unstakeFee)\n        public\n        onlyOwner\n    {\n        require(tokenExists(_token), \"Token does not exist.\");\n        require(\n            _unstakeFee >= minimumStakingFee &&\n                _unstakeFee <= maximumStakingFee,\n            string(\n                abi.encodePacked(\n                    \"Unstake fee must be between\",\n                    fromWei(minimumStakingFee),\n                    \"and\",\n                    fromWei(maximumStakingFee),\n                    \".\"\n                )\n            )\n        );\n        tokensData[_token].unstakeFee = _unstakeFee;\n        tokensData[_token].timestampLastUpdated = block.timestamp;\n    }\n\n    function setTokenStakingApr(address _token, uint256 _stakingApr)\n        public\n        onlyRole(toRole(_token))\n    {\n        require(tokenExists(_token), \"Token does not exist.\");\n        require(\n            _stakingApr >= minimumStakingApr &&\n                _stakingApr <= maximumStakingApr,\n            string(\n                abi.encodePacked(\n                    \"Staking APR must be between\",\n                    fromWei(minimumStakingApr),\n                    \"and\",\n                    fromWei(maximumStakingApr),\n                    \".\"\n                )\n            )\n        );\n        tokensData[_token].stakingApr = _stakingApr;\n        tokensData[_token].timestampLastUpdated = block.timestamp;\n    }\n\n    function setTokenRewardToken(address _token, address _reward_token)\n        public\n        onlyRole(toRole(_token))\n        onlyRole(toRole(_reward_token))\n    {\n        require(tokenExists(_token), \"Token does not exist.\");\n        require(tokenExists(_reward_token), \"Reward token does not exist.\");\n        tokensData[_token].rewardToken = _reward_token;\n        tokensData[_token].timestampLastUpdated = block.timestamp;\n    }\n\n    function enableTokenMultiReward(address _token)\n        public\n        onlyRole(toRole(_token))\n    {\n        require(tokenExists(_token), \"Token does not exist.\");\n        tokensData[_token].hasMultiReward = true;\n    }\n\n    function disableTokenMultiReward(address _token)\n        public\n        onlyRole(toRole(_token))\n    {\n        require(tokenExists(_token), \"Token does not exist.\");\n        tokensData[_token].hasMultiReward = false;\n    }\n\n    function depositToken(address _token, uint256 _amount)\n        public\n        onlyRole(toRole(_token))\n    {\n        require(tokenExists(_token), \"Token does not exist.\");\n        require(_amount > 0, \"Amount must be greater than zero.\");\n        require(\n            IERC20(_token).balanceOf(_msgSender()) >= _amount,\n            \"Insufficient wallet balance.\"\n        );\n        IERC20(_token).transferFrom(_msgSender(), address(this), _amount);\n        tokensData[_token].rewardBalance += _amount;\n    }\n\n    function withdrawToken(address _token, uint256 _amount)\n        public\n        onlyRole(toRole(_token))\n    {\n        require(tokenExists(_token), \"Token does not exist.\");\n        require(_amount > 0, \"Amount must be greater than zero.\");\n        require(\n            tokensData[_token].rewardBalance >= _amount,\n            \"Insufficient reward balance.\"\n        );\n        tokensData[_token].rewardBalance -= _amount;\n        IERC20(_token).transfer(_msgSender(), _amount);\n    }\n\n    function addStaker(address _staker) internal {\n        require(!stakerExists(_staker), \"Staker already exists.\");\n        uint256 index = stakers.length;\n        stakers.push(_staker);\n        // stakersData[_staker].index = index;\n        stakersData[_staker].timestampAdded = block.timestamp;\n    }\n\n    function stakeToken(address _token, uint256 _amount) public {\n        require(tokensData[_token].isActive, \"Token not active.\");\n        require(_amount > 0, \"Amount must be greater than zero.\");\n        require(\n            IERC20(_token).balanceOf(_msgSender()) >= _amount,\n            \"Insufficient wallet balance.\"\n        );\n\n        uint256 stakeFee = (_amount / toWei(100)) * tokensData[_token].stakeFee;\n        uint256 stakeAmount;\n        if (stakeFee == 0 || isExcludedFromFees[_msgSender()]) {\n            stakeAmount = _amount;\n        } else {\n            IERC20(_token).transferFrom(\n                _msgSender(),\n                developmentWallet,\n                stakeFee\n            );\n            stakeAmount = _amount - stakeFee;\n        }\n        IERC20(_token).transferFrom(_msgSender(), address(this), stakeAmount);\n\n        if (tokensStakersData[_token][_msgSender()].stakingBalance == 0) {\n            if (stakersData[_msgSender()].uniqueTokensStaked == 0) {\n                if (!stakerExists(_msgSender())) addStaker(_msgSender());\n                stakersData[_msgSender()].isActive = true;\n            }\n\n            stakersData[_msgSender()].uniqueTokensStaked++;\n            stakersData[_msgSender()].timestampAdded == 0\n                ? stakersData[_msgSender()].timestampAdded = block.timestamp\n                : stakersData[_msgSender()].timestampLastUpdated = block\n                .timestamp;\n\n            if (\n                tokensStakersData[_token][_msgSender()].stakingRewardToken ==\n                address(0x0)\n            )\n                tokensStakersData[_token][_msgSender()]\n                    .stakingRewardToken = tokensData[_token].rewardToken;\n        } else {\n            issueStakingReward(\n                _token,\n                _msgSender(),\n                [\"stake\", Strings.toString(fromWei(_amount))]\n            );\n        }\n\n        tokensStakersData[_token][_msgSender()].stakingBalance += stakeAmount;\n        tokensStakersData[_token][_msgSender()].timestampAdded == 0\n            ? tokensStakersData[_token][_msgSender()].timestampAdded = block\n                .timestamp\n            : tokensStakersData[_token][_msgSender()]\n                .timestampLastUpdated = block.timestamp;\n        tokensData[_token].stakingBalance += stakeAmount;\n        tokensData[_token].timestampLastUpdated = block.timestamp;\n        emit Stake(_msgSender(), _token, stakeAmount);\n    }\n\n    function unstakeToken(address _token, uint256 _amount) public {\n        require(tokenExists(_token), \"Token does not exist.\");\n        require(_amount > 0, \"Amount must be greater than zero.\");\n        require(\n            tokensStakersData[_token][_msgSender()].stakingBalance >= _amount,\n            \"Insufficient staking balance.\"\n        );\n\n        issueStakingReward(\n            _token,\n            _msgSender(),\n            [\"unstake\", Strings.toString(fromWei(_amount))]\n        );\n\n        if (tokensStakersData[_token][_msgSender()].stakingBalance == _amount) {\n            if (stakersData[_msgSender()].uniqueTokensStaked == 1) {\n                stakersData[_msgSender()].isActive = false;\n            }\n            stakersData[_msgSender()].uniqueTokensStaked--;\n            stakersData[_msgSender()].timestampLastUpdated = block.timestamp;\n        }\n\n        tokensStakersData[_token][_msgSender()].stakingBalance -= _amount;\n        tokensStakersData[_token][_msgSender()].timestampAdded == 0\n            ? tokensStakersData[_token][_msgSender()].timestampAdded = block\n                .timestamp\n            : tokensStakersData[_token][_msgSender()]\n                .timestampLastUpdated = block.timestamp;\n        tokensData[_token].stakingBalance -= _amount;\n        tokensData[_token].timestampLastUpdated = block.timestamp;\n\n        uint256 unstakeFee = (_amount / toWei(100)) *\n            tokensData[_token].unstakeFee;\n        uint256 unstakeAmount;\n        if (unstakeFee == 0 || isExcludedFromFees[_msgSender()]) {\n            unstakeAmount = _amount;\n        } else {\n            IERC20(_token).transfer(developmentWallet, unstakeFee);\n            unstakeAmount = _amount - unstakeFee;\n        }\n        IERC20(_token).transfer(_msgSender(), unstakeAmount);\n        emit Unstake(_msgSender(), _token, unstakeAmount);\n    }\n\n    function withdrawStakingReward(address _reward_token, uint256 _amount)\n        public\n    {\n        require(tokenExists(_reward_token), \"Reward token does not exist.\");\n        require(_amount > 0, \"Amount must be greater than zero.\");\n        require(\n            tokensStakersData[_reward_token][_msgSender()].rewardBalance >=\n                _amount,\n            \"Insufficient reward balance.\"\n        );\n        tokensStakersData[_reward_token][_msgSender()].rewardBalance -= _amount;\n        tokensStakersData[_reward_token][_msgSender()]\n            .timestampLastUpdated = block.timestamp;\n        IERC20(_reward_token).transfer(_msgSender(), _amount);\n        emit WithdrawStakingReward(_msgSender(), _reward_token, _amount);\n    }\n\n    function setStakingRewardToken(address _token, address _reward_token)\n        public\n    {\n        setStakerStakingRewardToken(_msgSender(), _token, _reward_token, true);\n    }\n\n    function setStakerStakingRewardToken(\n        address _staker,\n        address _token,\n        address _reward_token,\n        bool validate\n    ) internal returns (address) {\n        if (validate) {\n            require(tokensData[_token].isActive, \"Token not active.\");\n            require(\n                tokensData[_token].hasMultiReward,\n                \"Token does not have multi reward.\"\n            );\n            require(\n                tokensData[_reward_token].isActive,\n                \"Reward token not active.\"\n            );\n            require(\n                tokensData[_reward_token].hasMultiReward,\n                \"Reward token does not have multi reward.\"\n            );\n        }\n\n        if (!stakerExists(_staker)) addStaker(_staker);\n        tokensStakersData[_token][_staker].stakingRewardToken = _reward_token;\n        return tokensStakersData[_token][_staker].stakingRewardToken;\n    }\n\n    function calculateStakerStakingRewardValue(address _staker, address _token)\n        internal\n        view\n        returns (\n            uint256,\n            uint256,\n            uint256,\n            uint256\n        )\n    {\n        if (!stakerExists(_staker)) return (0, 0, 0, 0);\n        if (!tokenExists(_token)) return (0, 0, 0, 0);\n\n        TokenDetails memory tokenData = tokensData[_token];\n        TokenStakerDetails memory tokenStakerData = tokensStakersData[_token][\n            _staker\n        ];\n        if (tokenStakerData.stakingBalance <= 0) return (0, 0, 0, 0);\n\n        uint256 stakingValue = fromWei(\n            tokenStakerData.stakingBalance * tokenData.price\n        );\n        uint256 rate = tokenData.stakingApr / 100;\n        uint256 stakingTimestampStarted = tokenStakerData\n            .timestampLastRewarded != 0\n            ? tokenStakerData.timestampLastRewarded\n            : tokenStakerData.timestampAdded;\n        uint256 stakingTimestampEnded = block.timestamp;\n        uint256 stakingDurationInSeconds = toWei(\n            stakingTimestampEnded - stakingTimestampStarted\n        );\n        uint256 stakingDurationInYears = secondsToYears(\n            stakingDurationInSeconds\n        );\n        uint256 stakingRewardValue = (stakingValue *\n            rate *\n            stakingDurationInYears) / (10**36);\n\n        return (\n            stakingRewardValue,\n            stakingDurationInSeconds,\n            tokenStakerData.stakingBalance,\n            tokenData.price\n        );\n    }\n\n    function issueStakingReward(\n        address _token,\n        address _staker,\n        string[2] memory _actionPerformed\n    ) internal {\n        if (!tokensData[_token].isActive) return;\n        if (!stakersData[_staker].isActive) return;\n\n        TokenDetails memory tokenData = tokensData[_token];\n        TokenStakerDetails memory tokenStakerData = tokensStakersData[_token][\n            _staker\n        ];\n        if (tokenStakerData.stakingBalance <= 0) return;\n\n        if (!tokensData[tokenStakerData.stakingRewardToken].isActive) {\n            if (tokenStakerData.stakingRewardToken == tokenData.rewardToken)\n                return;\n            tokenStakerData.stakingRewardToken = setStakerStakingRewardToken(\n                _staker,\n                _token,\n                tokenData.rewardToken,\n                false\n            );\n            if (!tokensData[tokenStakerData.stakingRewardToken].isActive)\n                return;\n        }\n\n        (\n            uint256 stakingRewardValue,\n            uint256 stakingDurationInSeconds,\n            uint256 stakingBalance,\n            uint256 tokenPrice\n        ) = calculateStakerStakingRewardValue(_staker, _token);\n        if (stakingRewardValue == 0) return;\n\n        uint256 stakerRewardTokenRewardValue = getTokenRewardValue(\n            tokenStakerData.stakingRewardToken\n        );\n        if (stakerRewardTokenRewardValue < stakingRewardValue) {\n            if (tokenStakerData.stakingRewardToken == tokenData.rewardToken) {\n                deactivateToken(_token);\n                return;\n            }\n            tokenStakerData.stakingRewardToken = setStakerStakingRewardToken(\n                _staker,\n                _token,\n                tokenData.rewardToken,\n                false\n            );\n            stakerRewardTokenRewardValue = getTokenRewardValue(\n                tokenStakerData.stakingRewardToken\n            );\n            if (stakerRewardTokenRewardValue < stakingRewardValue) {\n                deactivateToken(_token);\n                return;\n            }\n        }\n\n        uint256 stakingRewardTokenPrice = tokensData[\n            tokenStakerData.stakingRewardToken\n        ].price;\n        uint256 stakingRewardTokenAmount = toWei(stakingRewardValue) /\n            stakingRewardTokenPrice;\n        if (stakingRewardTokenAmount <= 0) return;\n\n        tokensData[tokenStakerData.stakingRewardToken]\n            .rewardBalance -= stakingRewardTokenAmount;\n        tokensData[tokenStakerData.stakingRewardToken]\n            .timestampLastUpdated = block.timestamp;\n        tokensStakersData[tokenStakerData.stakingRewardToken][_staker]\n            .rewardBalance += stakingRewardTokenAmount;\n        tokensStakersData[tokenStakerData.stakingRewardToken][_staker]\n            .timestampLastUpdated = block.timestamp;\n        tokensStakersData[_token][_staker].timestampLastRewarded = block\n            .timestamp;\n\n        TokenStakerRewardDetails memory tokenStakerRewardData;\n        tokenStakerRewardData.id = tokensStakersData[_token][_staker]\n            .stakingRewards\n            .length;\n        tokenStakerRewardData.staker = _staker;\n        tokenStakerRewardData.stakedToken = _token;\n        tokenStakerRewardData.stakedTokenPrice = tokenPrice;\n        tokenStakerRewardData.stakedTokenAmount = tokenStakerData\n            .stakingBalance;\n        tokenStakerRewardData.rewardToken = tokenStakerData.stakingRewardToken;\n        tokenStakerRewardData.rewardTokenPrice = stakingRewardTokenPrice;\n        tokenStakerRewardData.rewardTokenAmount = stakingRewardTokenAmount;\n        tokenStakerRewardData\n            .stakingDurationInSeconds = stakingDurationInSeconds;\n        tokenStakerRewardData.actionPerformed = _actionPerformed;\n        tokenStakerRewardData.timestampAdded = block.timestamp;\n        tokensStakersData[_token][_staker].stakingRewards.push(\n            tokenStakerRewardData\n        );\n\n        emit IssueStakingReward(_staker, _token, tokenStakerRewardData);\n    }\n\n    function issueStakingRewards() public onlyOwner {\n        for (uint256 tokenIndex = 0; tokenIndex < tokens.length; tokenIndex++) {\n            address token = tokens[tokenIndex];\n\n            for (\n                uint256 stakerIndex = 0;\n                stakerIndex < stakers.length;\n                stakerIndex++\n            ) {\n                address staker = stakers[stakerIndex];\n\n                issueStakingReward(\n                    token,\n                    staker,\n                    [\"issue staking rewards\", \"\"]\n                );\n            }\n        }\n    }\n\n    function transferToken(\n        address _token,\n        address _to,\n        uint256 _amount\n    ) public onlyOwner {\n        IERC20(_token).transfer(_to, _amount);\n    }\n}\n","sourcePath":"contracts/SavvyFinanceFarm.sol","type":"contract","deployment":{"address":"0x416f78331732e574a8723c91abB99321Ca9e28e5","chainid":"97","blockHeight":19892769}}